{
  "contractName": "CoinMachine",
  "abi": [
    {
      "inputs": [
        {
          "internalType": "address",
          "name": "_owner",
          "type": "address"
        },
        {
          "internalType": "uint256",
          "name": "_feeFraction",
          "type": "uint256"
        }
      ],
      "stateMutability": "nonpayable",
      "type": "constructor"
    },
    {
      "anonymous": false,
      "inputs": [
        {
          "indexed": false,
          "internalType": "address",
          "name": "beneficiary",
          "type": "address"
        }
      ],
      "name": "BeneficiarySet",
      "type": "event"
    },
    {
      "anonymous": false,
      "inputs": [],
      "name": "CoinMachineInitialised",
      "type": "event"
    },
    {
      "anonymous": false,
      "inputs": [
        {
          "indexed": false,
          "internalType": "enum CoinMachine.CoinMachineState",
          "name": "state",
          "type": "uint8"
        }
      ],
      "name": "CoinMachineStateSet",
      "type": "event"
    },
    {
      "anonymous": false,
      "inputs": [
        {
          "indexed": true,
          "internalType": "address",
          "name": "authority",
          "type": "address"
        }
      ],
      "name": "LogSetAuthority",
      "type": "event"
    },
    {
      "anonymous": false,
      "inputs": [
        {
          "indexed": true,
          "internalType": "address",
          "name": "owner",
          "type": "address"
        }
      ],
      "name": "LogSetOwner",
      "type": "event"
    },
    {
      "anonymous": false,
      "inputs": [
        {
          "indexed": false,
          "internalType": "uint256",
          "name": "activePeriod",
          "type": "uint256"
        },
        {
          "indexed": false,
          "internalType": "uint256",
          "name": "currentPeriod",
          "type": "uint256"
        }
      ],
      "name": "PeriodUpdated",
      "type": "event"
    },
    {
      "anonymous": false,
      "inputs": [
        {
          "indexed": false,
          "internalType": "bool",
          "name": "evolvePrice",
          "type": "bool"
        }
      ],
      "name": "PriceEvolutionSet",
      "type": "event"
    },
    {
      "anonymous": false,
      "inputs": [
        {
          "indexed": false,
          "internalType": "address",
          "name": "buyer",
          "type": "address"
        },
        {
          "indexed": false,
          "internalType": "uint256",
          "name": "numTokens",
          "type": "uint256"
        },
        {
          "indexed": false,
          "internalType": "uint256",
          "name": "totalCost",
          "type": "uint256"
        }
      ],
      "name": "TokensBought",
      "type": "event"
    },
    {
      "anonymous": false,
      "inputs": [
        {
          "indexed": false,
          "internalType": "address",
          "name": "whitelist",
          "type": "address"
        }
      ],
      "name": "WhitelistSet",
      "type": "event"
    },
    {
      "inputs": [],
      "name": "activeIntake",
      "outputs": [
        {
          "internalType": "uint256",
          "name": "",
          "type": "uint256"
        }
      ],
      "stateMutability": "view",
      "type": "function"
    },
    {
      "inputs": [],
      "name": "activePeriod",
      "outputs": [
        {
          "internalType": "uint256",
          "name": "",
          "type": "uint256"
        }
      ],
      "stateMutability": "view",
      "type": "function"
    },
    {
      "inputs": [],
      "name": "activePrice",
      "outputs": [
        {
          "internalType": "uint256",
          "name": "",
          "type": "uint256"
        }
      ],
      "stateMutability": "view",
      "type": "function"
    },
    {
      "inputs": [],
      "name": "activeSold",
      "outputs": [
        {
          "internalType": "uint256",
          "name": "",
          "type": "uint256"
        }
      ],
      "stateMutability": "view",
      "type": "function"
    },
    {
      "inputs": [],
      "name": "alpha",
      "outputs": [
        {
          "internalType": "uint256",
          "name": "",
          "type": "uint256"
        }
      ],
      "stateMutability": "view",
      "type": "function"
    },
    {
      "inputs": [],
      "name": "authority",
      "outputs": [
        {
          "internalType": "contract DSAuthority",
          "name": "",
          "type": "address"
        }
      ],
      "stateMutability": "view",
      "type": "function"
    },
    {
      "inputs": [],
      "name": "beneficiary",
      "outputs": [
        {
          "internalType": "address payable",
          "name": "",
          "type": "address"
        }
      ],
      "stateMutability": "view",
      "type": "function"
    },
    {
      "inputs": [],
      "name": "emaIntake",
      "outputs": [
        {
          "internalType": "uint256",
          "name": "",
          "type": "uint256"
        }
      ],
      "stateMutability": "view",
      "type": "function"
    },
    {
      "inputs": [],
      "name": "endTime",
      "outputs": [
        {
          "internalType": "uint256",
          "name": "",
          "type": "uint256"
        }
      ],
      "stateMutability": "view",
      "type": "function"
    },
    {
      "inputs": [],
      "name": "evolvePrice",
      "outputs": [
        {
          "internalType": "bool",
          "name": "",
          "type": "bool"
        }
      ],
      "stateMutability": "view",
      "type": "function"
    },
    {
      "inputs": [],
      "name": "factory",
      "outputs": [
        {
          "internalType": "address payable",
          "name": "",
          "type": "address"
        }
      ],
      "stateMutability": "view",
      "type": "function"
    },
    {
      "inputs": [],
      "name": "feeFraction",
      "outputs": [
        {
          "internalType": "uint256",
          "name": "",
          "type": "uint256"
        }
      ],
      "stateMutability": "view",
      "type": "function"
    },
    {
      "inputs": [],
      "name": "intakeCap",
      "outputs": [
        {
          "internalType": "uint256",
          "name": "",
          "type": "uint256"
        }
      ],
      "stateMutability": "view",
      "type": "function"
    },
    {
      "inputs": [],
      "name": "maxPerPeriod",
      "outputs": [
        {
          "internalType": "uint256",
          "name": "",
          "type": "uint256"
        }
      ],
      "stateMutability": "view",
      "type": "function"
    },
    {
      "inputs": [],
      "name": "minPurchaseFraction",
      "outputs": [
        {
          "internalType": "uint256",
          "name": "",
          "type": "uint256"
        }
      ],
      "stateMutability": "view",
      "type": "function"
    },
    {
      "inputs": [],
      "name": "owner",
      "outputs": [
        {
          "internalType": "address",
          "name": "",
          "type": "address"
        }
      ],
      "stateMutability": "view",
      "type": "function"
    },
    {
      "inputs": [],
      "name": "periodLength",
      "outputs": [
        {
          "internalType": "uint256",
          "name": "",
          "type": "uint256"
        }
      ],
      "stateMutability": "view",
      "type": "function"
    },
    {
      "inputs": [],
      "name": "purchaseToken",
      "outputs": [
        {
          "internalType": "address",
          "name": "",
          "type": "address"
        }
      ],
      "stateMutability": "view",
      "type": "function"
    },
    {
      "inputs": [
        {
          "internalType": "contract DSAuthority",
          "name": "authority_",
          "type": "address"
        }
      ],
      "name": "setAuthority",
      "outputs": [],
      "stateMutability": "nonpayable",
      "type": "function"
    },
    {
      "inputs": [
        {
          "internalType": "address",
          "name": "owner_",
          "type": "address"
        }
      ],
      "name": "setOwner",
      "outputs": [],
      "stateMutability": "nonpayable",
      "type": "function"
    },
    {
      "inputs": [],
      "name": "soldTotal",
      "outputs": [
        {
          "internalType": "uint256",
          "name": "",
          "type": "uint256"
        }
      ],
      "stateMutability": "view",
      "type": "function"
    },
    {
      "inputs": [
        {
          "internalType": "address",
          "name": "",
          "type": "address"
        }
      ],
      "name": "soldUser",
      "outputs": [
        {
          "internalType": "uint256",
          "name": "",
          "type": "uint256"
        }
      ],
      "stateMutability": "view",
      "type": "function"
    },
    {
      "inputs": [],
      "name": "startTime",
      "outputs": [
        {
          "internalType": "uint256",
          "name": "",
          "type": "uint256"
        }
      ],
      "stateMutability": "view",
      "type": "function"
    },
    {
      "inputs": [],
      "name": "state",
      "outputs": [
        {
          "internalType": "enum CoinMachine.CoinMachineState",
          "name": "",
          "type": "uint8"
        }
      ],
      "stateMutability": "view",
      "type": "function"
    },
    {
      "inputs": [],
      "name": "stoppable",
      "outputs": [
        {
          "internalType": "bool",
          "name": "",
          "type": "bool"
        }
      ],
      "stateMutability": "view",
      "type": "function"
    },
    {
      "inputs": [],
      "name": "targetPerPeriod",
      "outputs": [
        {
          "internalType": "uint256",
          "name": "",
          "type": "uint256"
        }
      ],
      "stateMutability": "view",
      "type": "function"
    },
    {
      "inputs": [],
      "name": "token",
      "outputs": [
        {
          "internalType": "address",
          "name": "",
          "type": "address"
        }
      ],
      "stateMutability": "view",
      "type": "function"
    },
    {
      "inputs": [],
      "name": "totalIntake",
      "outputs": [
        {
          "internalType": "uint256",
          "name": "",
          "type": "uint256"
        }
      ],
      "stateMutability": "view",
      "type": "function"
    },
    {
      "inputs": [],
      "name": "userLimitFraction",
      "outputs": [
        {
          "internalType": "uint256",
          "name": "",
          "type": "uint256"
        }
      ],
      "stateMutability": "view",
      "type": "function"
    },
    {
      "inputs": [],
      "name": "whitelist",
      "outputs": [
        {
          "internalType": "address",
          "name": "",
          "type": "address"
        }
      ],
      "stateMutability": "view",
      "type": "function"
    },
    {
      "stateMutability": "payable",
      "type": "receive"
    },
    {
      "inputs": [
        {
          "internalType": "address[2]",
          "name": "_tokens",
          "type": "address[2]"
        },
        {
          "internalType": "uint256[2]",
          "name": "_times",
          "type": "uint256[2]"
        },
        {
          "internalType": "uint256",
          "name": "_periodLength",
          "type": "uint256"
        },
        {
          "internalType": "uint256",
          "name": "_windowSize",
          "type": "uint256"
        },
        {
          "internalType": "uint256[2]",
          "name": "_targets",
          "type": "uint256[2]"
        },
        {
          "internalType": "uint256[]",
          "name": "_limits",
          "type": "uint256[]"
        },
        {
          "internalType": "uint256",
          "name": "_startingPrice",
          "type": "uint256"
        },
        {
          "internalType": "uint256",
          "name": "_intakeCap",
          "type": "uint256"
        },
        {
          "internalType": "bool",
          "name": "_stoppable",
          "type": "bool"
        },
        {
          "internalType": "address",
          "name": "_beneficiary",
          "type": "address"
        },
        {
          "internalType": "address",
          "name": "_whitelist",
          "type": "address"
        }
      ],
      "name": "initialise",
      "outputs": [],
      "stateMutability": "nonpayable",
      "type": "function"
    },
    {
      "inputs": [
        {
          "internalType": "address",
          "name": "_beneficiary",
          "type": "address"
        }
      ],
      "name": "setBeneficiary",
      "outputs": [],
      "stateMutability": "nonpayable",
      "type": "function"
    },
    {
      "inputs": [],
      "name": "pause",
      "outputs": [],
      "stateMutability": "nonpayable",
      "type": "function"
    },
    {
      "inputs": [],
      "name": "unpause",
      "outputs": [],
      "stateMutability": "nonpayable",
      "type": "function"
    },
    {
      "inputs": [],
      "name": "stop",
      "outputs": [],
      "stateMutability": "nonpayable",
      "type": "function"
    },
    {
      "inputs": [
        {
          "internalType": "uint256",
          "name": "_numTokens",
          "type": "uint256"
        }
      ],
      "name": "buyTokens",
      "outputs": [],
      "stateMutability": "payable",
      "type": "function"
    },
    {
      "inputs": [],
      "name": "updatePeriod",
      "outputs": [],
      "stateMutability": "nonpayable",
      "type": "function"
    },
    {
      "inputs": [],
      "name": "withdraw",
      "outputs": [],
      "stateMutability": "nonpayable",
      "type": "function"
    },
    {
      "inputs": [],
      "name": "getTokenBalance",
      "outputs": [
        {
          "internalType": "uint256",
          "name": "",
          "type": "uint256"
        }
      ],
      "stateMutability": "view",
      "type": "function"
    },
    {
      "inputs": [],
      "name": "getCurrentPrice",
      "outputs": [
        {
          "internalType": "uint256",
          "name": "",
          "type": "uint256"
        }
      ],
      "stateMutability": "view",
      "type": "function"
    },
    {
      "inputs": [],
      "name": "getSellableTokens",
      "outputs": [
        {
          "internalType": "uint256",
          "name": "",
          "type": "uint256"
        }
      ],
      "stateMutability": "view",
      "type": "function"
    },
    {
      "inputs": [],
      "name": "getMinPurchase",
      "outputs": [
        {
          "internalType": "uint256",
          "name": "",
          "type": "uint256"
        }
      ],
      "stateMutability": "view",
      "type": "function"
    },
    {
      "inputs": [
        {
          "internalType": "address",
          "name": "_user",
          "type": "address"
        }
      ],
      "name": "getMaxPurchase",
      "outputs": [
        {
          "internalType": "uint256",
          "name": "",
          "type": "uint256"
        }
      ],
      "stateMutability": "view",
      "type": "function"
    },
    {
      "inputs": [
        {
          "internalType": "address",
          "name": "_user",
          "type": "address"
        }
      ],
      "name": "getUserLimit",
      "outputs": [
        {
          "internalType": "uint256",
          "name": "",
          "type": "uint256"
        }
      ],
      "stateMutability": "view",
      "type": "function"
    },
    {
      "inputs": [],
      "name": "getCurrentPeriod",
      "outputs": [
        {
          "internalType": "uint256",
          "name": "",
          "type": "uint256"
        }
      ],
      "stateMutability": "view",
      "type": "function"
    }
  ],
  "bytecode": "0x60806040523480156200001157600080fd5b50604051620028d4380380620028d4833981016040819052620000349162000219565b600180546001600160a01b03191633908117909155604051600080516020620028b483398151915290600090a2600280546001600160a01b031916331790556003819055600019600755620000898262000091565b505062000280565b620000a9336001600160e01b03196000351662000133565b620000fa5760405162461bcd60e51b815260206004820152601460248201527f64732d617574682d756e617574686f72697a6564000000000000000000000000604482015260640160405180910390fd5b600180546001600160a01b0319166001600160a01b038316908117909155604051600080516020620028b483398151915290600090a250565b6000306001600160a01b038416036200014f5750600162000213565b6001546001600160a01b03908116908416036200016f5750600162000213565b6000546001600160a01b0316620001895750600062000213565b60005460405163b700961360e01b81526001600160a01b0385811660048301523060248301526001600160e01b0319851660448301529091169063b700961390606401602060405180830381865afa158015620001ea573d6000803e3d6000fd5b505050506040513d601f19601f8201168201806040525081019062000210919062000255565b90505b92915050565b600080604083850312156200022d57600080fd5b82516001600160a01b03811681146200024557600080fd5b6020939093015192949293505050565b6000602082840312156200026857600080fd5b815180151581146200027957600080fd5b9392505050565b61262480620002906000396000f3fe6080604052600436106102765760003560e01c8063810226311161014f578063bb4872de116100c1578063d53316b21161007a578063d53316b2146106b0578063db1d0fd5146106c6578063e2f90823146106dc578063e9587e86146106f2578063eb91d37e14610712578063fc0c546a1461072757600080fd5b8063bb4872de14610603578063be0a64a21461061d578063bf7e214f14610633578063c19d93fb14610653578063c45a01551461067a578063d2ca21151461069a57600080fd5b806393e59dc11161011357806393e59dc114610568578063a83627de1461058d578063a95c4d62146105a2578063b497d501146105c2578063b5b2f1ef146105d8578063baa9da15146105ed57600080fd5b806381022631146104de57806382b2e257146104f45780638456cb59146105095780638da5cb5b1461051e57806391cadaf61461053e57600080fd5b80632b96d909116101e85780633f4ba83a116101ac5780633f4ba83a1461045157806348bbbd9c1461046657806352a303841461047c5780635bf8eddd1461049257806378e97925146104a85780637a9e5e4b146104be57600080fd5b80632b96d909146103c55780633197cbb6146103db5780633610724e146103f157806338af3eed146104045780633ccfd60b1461043c57600080fd5b80630f3d88031161023a5780630f3d880314610303578063114f67691461031857806313af403514610338578063148f9314146103585780631c31f710146103785780632869b1281461039857600080fd5b806307da68f514610282578063086146d2146102995780630a441f7b146102c15780630aed1428146102d75780630c707339146102ed57600080fd5b3661027d57005b600080fd5b34801561028e57600080fd5b5061029761074c565b005b3480156102a557600080fd5b506102ae6108e6565b6040519081526020015b60405180910390f35b3480156102cd57600080fd5b506102ae600d5481565b3480156102e357600080fd5b506102ae600c5481565b3480156102f957600080fd5b506102ae60115481565b34801561030f57600080fd5b506102ae610911565b34801561032457600080fd5b506102ae6103333660046121ec565b610931565b34801561034457600080fd5b506102976103533660046121ec565b610973565b34801561036457600080fd5b5061029761037336600461234c565b6109ef565b34801561038457600080fd5b506102976103933660046121ec565b610ffc565b3480156103a457600080fd5b506102ae6103b33660046121ec565b60166020526000908152604090205481565b3480156103d157600080fd5b506102ae600f5481565b3480156103e757600080fd5b506102ae60085481565b6102976103ff366004612465565b611083565b34801561041057600080fd5b50600654610424906001600160a01b031681565b6040516001600160a01b0390911681526020016102b8565b34801561044857600080fd5b506102976117d4565b34801561045d57600080fd5b506102976118db565b34801561047257600080fd5b506102ae60175481565b34801561048857600080fd5b506102ae600e5481565b34801561049e57600080fd5b506102ae60035481565b3480156104b457600080fd5b506102ae60075481565b3480156104ca57600080fd5b506102976104d93660046121ec565b61197d565b3480156104ea57600080fd5b506102ae60105481565b34801561050057600080fd5b506102ae6119f7565b34801561051557600080fd5b50610297611a6d565b34801561052a57600080fd5b50600154610424906001600160a01b031681565b34801561054a57600080fd5b506012546105589060ff1681565b60405190151581526020016102b8565b34801561057457600080fd5b506012546104249061010090046001600160a01b031681565b34801561059957600080fd5b50610297611b65565b3480156105ae57600080fd5b50600554610424906001600160a01b031681565b3480156105ce57600080fd5b506102ae60135481565b3480156105e457600080fd5b506102ae611c8e565b3480156105f957600080fd5b506102ae60155481565b34801561060f57600080fd5b506019546105589060ff1681565b34801561062957600080fd5b506102ae600b5481565b34801561063f57600080fd5b50600054610424906001600160a01b031681565b34801561065f57600080fd5b5060045461066d9060ff1681565b6040516102b89190612494565b34801561068657600080fd5b50600254610424906001600160a01b031681565b3480156106a657600080fd5b506102ae60095481565b3480156106bc57600080fd5b506102ae60185481565b3480156106d257600080fd5b506102ae600a5481565b3480156106e857600080fd5b506102ae60145481565b3480156106fe57600080fd5b506102ae61070d3660046121ec565b611cd2565b34801561071e57600080fd5b506102ae611d4c565b34801561073357600080fd5b506004546104249061010090046001600160a01b031681565b610762336000356001600160e01b031916611e0f565b6107875760405162461bcd60e51b815260040161077e906124bc565b60405180910390fd5b60195460ff166107d95760405162461bcd60e51b815260206004820152601a60248201527f636f696e2d6d616368696e652d6e6f742d73746f707061626c65000000000000604482015260640161077e565b600260045460ff1660028111156107f2576107f261247e565b0361083f5760405162461bcd60e51b815260206004820152601c60248201527f636f696e2d6d616368696e652d616c72656164792d73746f7070656400000000604482015260640161077e565b600060045460ff1660028111156108585761085861247e565b148061087a5750600160045460ff1660028111156108785761087861247e565b145b6108d05760405162461bcd60e51b815260206004820152602160248201527f636f696e2d6d616368696e652d6e6f742d6163746976652d6f722d70617573656044820152601960fa1b606482015260840161077e565b6108da6000611eea565b6108e46002611f3b565b565b60006009546109026108fa42600754611f8e565b600754611fa5565b61090c9190612516565b905090565b600061090c60135461092c6015546109276119f7565b611ffb565b612050565b60008061093c6119f7565b90506000610948611c8e565b9050600061095585611cd2565b905061096a81610965858561206f565b61206f565b95945050505050565b610989336000356001600160e01b031916611e0f565b6109a55760405162461bcd60e51b815260040161077e906124bc565b600180546001600160a01b0319166001600160a01b0383169081179091556040517fce241d7ca1f669fee44b6fc00b8eba2df3bb514eed0f6f668f8f89096e81ed9490600090a250565b610a05336000356001600160e01b031916611e0f565b610a215760405162461bcd60e51b815260040161077e906124bc565b6007544210610a725760405162461bcd60e51b815260206004820152601760248201527f636f696e2d6d616368696e652d73616c652d626567756e000000000000000000604482015260640161077e565b8a516001600160a01b0316610ac95760405162461bcd60e51b815260206004820152601a60248201527f636f696e2d6d616368696e652d696e76616c69642d746f6b656e000000000000604482015260640161077e565b60008911610b195760405162461bcd60e51b815260206004820152601d60248201527f636f696e2d6d616368696e652d706572696f642d746f6f2d736d616c6c000000604482015260640161077e565b60008811610b695760405162461bcd60e51b815260206004820152601d60248201527f636f696e2d6d616368696e652d77696e646f772d746f6f2d736d616c6c000000604482015260640161077e565b610200881115610bbb5760405162461bcd60e51b815260206004820152601d60248201527f636f696e2d6d616368696e652d77696e646f772d746f6f2d6c61726765000000604482015260640161077e565b8651610c095760405162461bcd60e51b815260206004820152601d60248201527f636f696e2d6d616368696e652d7461726765742d746f6f2d736d616c6c000000604482015260640161077e565b602087015187511115610c5e5760405162461bcd60e51b815260206004820152601a60248201527f636f696e2d6d616368696e652d6d61782d746f6f2d736d616c6c000000000000604482015260640161077e565b670de0b6b3a764000086600081518110610c7a57610c7a61252a565b60200260200101511115610cd05760405162461bcd60e51b815260206004820152601c60248201527f636f696e2d6d616368696e652d6c696d69742d746f6f2d6c6172676500000000604482015260640161077e565b600086600081518110610ce557610ce561252a565b602002602001015111610d3a5760405162461bcd60e51b815260206004820152601c60248201527f636f696e2d6d616368696e652d6c696d69742d746f6f2d736d616c6c00000000604482015260640161077e565b670de0b6b3a764000086600181518110610d5657610d5661252a565b60200260200101511115610dac5760405162461bcd60e51b815260206004820152601c60248201527f636f696e2d6d616368696e652d6c696d69742d746f6f2d6c6172676500000000604482015260640161077e565b6fffffffffffffffffffffffffffffffff841115610e0c5760405162461bcd60e51b815260206004820152601860248201527f636f696e2d6d616368696e652d6361702d746f6f2d6269670000000000000000604482015260640161077e565b8a5160048054610100600160a81b0319166101006001600160a01b039384160217905560208c0151600580549183166001600160a01b0319928316179055600154600680549092169216919091179055895115610e6a578951610e6c565b425b60075560208a015115610e835760208a0151610e87565b6000195b600881905560075410610edc5760405162461bcd60e51b815260206004820152601960248201527f636f696e2d6d616368696e652d6261642d656e642d74696d6500000000000000604482015260640161077e565b6009899055610ef66002610ef18a6001612540565b61207f565b600a558651600b556020870151600c5585518690600090610f1957610f1961252a565b602002602001015160148190555085600181518110610f3a57610f3a61252a565b6020908102919091010151601355600e859055610f556108e6565b600d55600b54610f659086612050565b60115560188490556019805460ff1916841515179055610f8482610ffc565b60128054610100600160a81b0319166101006001600160a01b03841602179055610fc66000610fb16119f7565b118015610fc15750610fc1612094565b611eea565b6040517f8659acc9ee6146ef7e0dcc9851284bd43577098ffbe0119792784129fa0d2eed90600090a15050505050505050505050565b611012336000356001600160e01b031916611e0f565b61102e5760405162461bcd60e51b815260040161077e906124bc565b600680546001600160a01b0319166001600160a01b0383169081179091556040519081527f04d55a8be181fb8d75b76f2d48aa0b2ee40f47e53d6e61763eeeec46feea8a24906020015b60405180910390a150565b61108b612094565b6110d15760405162461bcd60e51b8152602060048201526017602482015276636f696e2d6d616368696e652d6e6f742d61637469766560481b604482015260640161077e565b4260075411156111235760405162461bcd60e51b815260206004820152601b60248201527f636f696e2d6d616368696e652d73616c652d6e6f742d626567756e0000000000604482015260640161077e565b600854421061116d5760405162461bcd60e51b815260206004820152601660248201527531b7b4b716b6b0b1b434b73296b9b0b63296b7bb32b960511b604482015260640161077e565b611175611b65565b60125461010090046001600160a01b031615806111fd575060125460405163673448dd60e01b81523360048201526101009091046001600160a01b03169063673448dd90602401602060405180830381865afa1580156111d9573d6000803e3d6000fd5b505050506040513d601f19601f820116820180604052508101906111fd9190612558565b6112495760405162461bcd60e51b815260206004820152601960248201527f636f696e2d6d616368696e652d756e617574686f726973656400000000000000604482015260640161077e565b600061125433610931565b90506000611262828461206f565b9050600081116112a55734156112a05760405133903480156108fc02916000818181858888f1935050505015801561129e573d6000803e3d6000fd5b505b505050565b60006112b382600e54612050565b90506112c160175482611ffb565b6017556010546112d19082611ffb565b601055600f546112e19083611ffb565b600f8190555060006112f582600354612050565b9050601854601754111561130b5761130b612575565b600c54600f54111561131f5761131f612575565b670de0b6b3a7640000601454108061133957506000601354115b156113d6576000611348610911565b905061135660155485611ffb565b601555336000908152601660205260409020546113739085611ffb565b3360009081526016602052604090208190558111156113d45760405162461bcd60e51b815260206004820152601f60248201527f636f696e2d6d616368696e652d70757263686173652d746f6f2d736d616c6c00604482015260640161077e565b505b6113de6119f7565b83106113ee576113ee6000611eea565b6005546001600160a01b0316611510578134101561144e5760405162461bcd60e51b815260206004820152601f60248201527f636f696e2d6d616368696e652d696e73756666696369656e742d66756e647300604482015260640161077e565b8134111561148e57336108fc611464843461258b565b6040518115909202916000818181858888f1935050505015801561148c573d6000803e3d6000fd5b505b6002546040516001600160a01b039091169082156108fc029083906000818181858888f193505050501580156114c8573d6000803e3d6000fd5b506006546001600160a01b03166108fc6114e28484611fa5565b6040518115909202916000818181858888f1935050505015801561150a573d6000803e3d6000fd5b506116c4565b6005546002546040516323b872dd60e01b81523360048201526001600160a01b039182166024820152604481018490529116906323b872dd906064016020604051808303816000875af115801561156b573d6000803e3d6000fd5b505050506040513d601f19601f8201168201806040525081019061158f9190612558565b6115db5760405162461bcd60e51b815260206004820152601c60248201527f636f696e2d6d616368696e652d70757263686173652d6661696c656400000000604482015260640161077e565b6005546006546001600160a01b03918216916323b872dd913391166116008686611fa5565b6040516001600160e01b031960e086901b1681526001600160a01b03938416600482015292909116602483015260448201526064016020604051808303816000875af1158015611654573d6000803e3d6000fd5b505050506040513d601f19601f820116820180604052508101906116789190612558565b6116c45760405162461bcd60e51b815260206004820152601c60248201527f636f696e2d6d616368696e652d70757263686173652d6661696c656400000000604482015260640161077e565b6004805460405163a9059cbb60e01b815233928101929092526024820185905261010090046001600160a01b03169063a9059cbb906044016020604051808303816000875af115801561171b573d6000803e3d6000fd5b505050506040513d601f19601f8201168201806040525081019061173f9190612558565b61178b5760405162461bcd60e51b815260206004820152601c60248201527f636f696e2d6d616368696e652d7472616e736665722d6661696c656400000000604482015260640161077e565b60408051338152602081018590529081018390527f8442948036198f1146d3a63c3db355d7e0295c2cc5676c755990445da4fdc1c99060600160405180910390a1505050505b50565b4260085410806117fa5750600260045460ff1660028111156117f8576117f861247e565b145b6118465760405162461bcd60e51b815260206004820152601a60248201527f636f696e2d6d616368696e652d73616c652d6e6f742d6f766572000000000000604482015260640161077e565b6004546006546001600160a01b0361010090920482169163a9059cbb911661186c6119f7565b6040516001600160e01b031960e085901b1681526001600160a01b03909216600483015260248201526044016020604051808303816000875af11580156118b7573d6000803e3d6000fd5b505050506040513d601f19601f820116820180604052508101906117d19190612558565b6118f1336000356001600160e01b031916611e0f565b61190d5760405162461bcd60e51b815260040161077e906124bc565b600160045460ff1660028111156119265761192661247e565b146119735760405162461bcd60e51b815260206004820152601760248201527f636f696e2d6d616368696e652d6e6f742d706175736564000000000000000000604482015260640161077e565b6108e46000611f3b565b611993336000356001600160e01b031916611e0f565b6119af5760405162461bcd60e51b815260040161077e906124bc565b600080546001600160a01b0319166001600160a01b038316908117825560405190917f1abebea81bfa2637f28358c371278fb15ede7ea8dd28d2e03b112ff6d936ada491a250565b600480546040516370a0823160e01b815230928101929092526000916101009091046001600160a01b0316906370a0823190602401602060405180830381865afa158015611a49573d6000803e3d6000fd5b505050506040513d601f19601f8201168201806040525081019061090c91906125a2565b611a83336000356001600160e01b031916611e0f565b611a9f5760405162461bcd60e51b815260040161077e906124bc565b60195460ff16611af15760405162461bcd60e51b815260206004820152601a60248201527f636f696e2d6d616368696e652d6e6f742d73746f707061626c65000000000000604482015260640161077e565b600060045460ff166002811115611b0a57611b0a61247e565b14611b515760405162461bcd60e51b8152602060048201526017602482015276636f696e2d6d616368696e652d6e6f742d61637469766560481b604482015260640161077e565b611b5b6000611eea565b6108e46001611f3b565b6000611b6f6108e6565b600d54909150818110611b80575050565b60125460ff16611b9c57600d829055611b9c6000610fb16119f7565b81600d541015611c4757611bb4600a54601054612050565b611bd5600a54670de0b6b3a7640000611bcd919061258b565b601154612050565b611bdf9190612540565b601155600d54600090600190611bf5908561258b565b611bff919061258b565b90508015611c2d57611c29611bcd600a54670de0b6b3a7640000611c23919061258b565b836120b4565b6011555b82600d81905550611c42601154600b5461207f565b600e55505b60006010819055600f5560408051828152602081018490527f5b873fc01d45058fe77f3883a91020f46d5a7385baac6ceab19748d1d0ae464a910160405180910390a15050565b600061090c611cb9600c54611ca16108e6565b600d541015611cb1576000611fa5565b600f54611fa5565b610965611cca601854601754611fa5565b600e5461207f565b6000670de0b6b3a76400006014541480611cfa575060125461010090046001600160a01b0316155b611d4257611d3d611d1f611d17611d0f6119f7565b601554611ffb565b601454612050565b6001600160a01b038416600090815260166020526040902054611fa5565b611d46565b6000195b92915050565b600080611d576108e6565b905080600d54101580611d6d575060125460ff16155b15611d7a575050600e5490565b601154600a54601054611d8d9190612050565b611dac600a54670de0b6b3a7640000611da6919061258b565b83612050565b611db69190612540565b905060006001600d5484611dca919061258b565b611dd4919061258b565b90508015611dfb57611df8611da6600a54670de0b6b3a7640000611c23919061258b565b91505b611e0782600b5461207f565b935050505090565b6000306001600160a01b03841603611e2957506001611d46565b6001546001600160a01b0390811690841603611e4757506001611d46565b6000546001600160a01b0316611e5f57506000611d46565b60005460405163b700961360e01b81526001600160a01b0385811660048301523060248301526001600160e01b0319851660448301529091169063b700961390606401602060405180830381865afa158015611ebf573d6000803e3d6000fd5b505050506040513d601f19601f82011682018060405250810190611ee39190612558565b9392505050565b60125460ff161515811515146117d1576012805460ff19168215159081179091556040519081527f5b4e200daa1a93764a810c35f18f2fcfb14b5e95df6ae7ac1ffdc8eec425babc90602001611078565b6004805482919060ff19166001836002811115611f5a57611f5a61247e565b02179055507fd2d7d26509a0f467151b1957c8c832c751923756862314d6002c201f254b64f6816040516110789190612494565b600081831015611f9e5781611ee3565b5090919050565b600082611fb2838261258b565b9150811115611d465760405162461bcd60e51b815260206004820152601560248201527464732d6d6174682d7375622d756e646572666c6f7760581b604482015260640161077e565b6000826120088382612540565b9150811015611d465760405162461bcd60e51b815260206004820152601460248201527364732d6d6174682d6164642d6f766572666c6f7760601b604482015260640161077e565b6000670de0b6b3a764000061206584846120ce565b611ee39190612516565b600081831115611f9e5781611ee3565b60008161206584670de0b6b3a76400006120ce565b60008060045460ff1660028111156120ae576120ae61247e565b14905090565b6000633b9aca006120656120c885836125bb565b84612135565b60008115806120f2575082826120e481836125bb565b92506120f09083612516565b145b611d465760405162461bcd60e51b815260206004820152601460248201527364732d6d6174682d6d756c2d6f766572666c6f7760601b604482015260640161077e565b60006121426002836125da565b60000361215b576b033b2e3c9fd0803ce800000061215d565b825b905061216a600283612516565b91505b8115611d465761217d83846121ae565b925061218a6002836125da565b1561219c5761219981846121ae565b90505b6121a7600283612516565b915061216d565b60006b033b2e3c9fd0803ce800000061206584846120ce565b6001600160a01b03811681146117d157600080fd5b80356121e7816121c7565b919050565b6000602082840312156121fe57600080fd5b8135611ee3816121c7565b634e487b7160e01b600052604160045260246000fd5b6040805190810167ffffffffffffffff8111828210171561224257612242612209565b60405290565b600082601f83011261225957600080fd5b61226161221f565b80604084018581111561227357600080fd5b845b8181101561228d578035845260209384019301612275565b509095945050505050565b600082601f8301126122a957600080fd5b8135602067ffffffffffffffff808311156122c6576122c6612209565b8260051b604051601f19603f830116810181811084821117156122eb576122eb612209565b60405293845285810183019383810192508785111561230957600080fd5b83870191505b848210156123285781358352918301919083019061230f565b979650505050505050565b80151581146117d157600080fd5b80356121e781612333565b60008060008060008060008060008060006101c08c8e03121561236e57600080fd5b8c601f8d011261237d57600080fd5b61238561221f565b808e60408f01111561239657600080fd5b8d5b60408f018110156123bd576123ad81356121c7565b8035835260209283019201612398565b509b506123cf90508d60408e01612248565b995060808c0135985060a08c013597506123ec8d60c08e01612248565b96506101008c013567ffffffffffffffff81111561240957600080fd5b6124158e828f01612298565b9650506101208c013594506101408c013593506124356101608d01612341565b92506124446101808d016121dc565b91506124536101a08d016121dc565b90509295989b509295989b9093969950565b60006020828403121561247757600080fd5b5035919050565b634e487b7160e01b600052602160045260246000fd5b60208101600383106124b657634e487b7160e01b600052602160045260246000fd5b91905290565b602080825260149082015273191ccb585d5d1a0b5d5b985d5d1a1bdc9a5e995960621b604082015260600190565b634e487b7160e01b600052601260045260246000fd5b634e487b7160e01b600052601160045260246000fd5b600082612525576125256124ea565b500490565b634e487b7160e01b600052603260045260246000fd5b6000821982111561255357612553612500565b500190565b60006020828403121561256a57600080fd5b8151611ee381612333565b634e487b7160e01b600052600160045260246000fd5b60008282101561259d5761259d612500565b500390565b6000602082840312156125b457600080fd5b5051919050565b60008160001904831182151516156125d5576125d5612500565b500290565b6000826125e9576125e96124ea565b50069056fea2646970667358221220f295db15ce92cb22103eb823756c64fa5eddc9e75112592521e023183a5759e964736f6c634300080d0033ce241d7ca1f669fee44b6fc00b8eba2df3bb514eed0f6f668f8f89096e81ed94",
  "immutableReferences": {},
  "source": "/*\n  This file is part of The Colony Network.\n\n  The Colony Network is free software: you can redistribute it and/or modify\n  it under the terms of the GNU General Public License as published by\n  the Free Software Foundation, either version 3 of the License, or\n  (at your option) any later version.\n\n  The Colony Network is distributed in the hope that it will be useful,\n  but WITHOUT ANY WARRANTY; without even the implied warranty of\n  MERCHANTABILITY or FITNESS FOR A PARTICULAR PURPOSE.  See the\n  GNU General Public License for more details.\n\n  You should have received a copy of the GNU General Public License\n  along with The Colony Network. If not, see <http://www.gnu.org/licenses/>.\n*/\n\npragma solidity 0.8.13;\n\nimport \"./../lib/dappsys/auth.sol\";\nimport \"./../lib/dappsys/erc20.sol\";\nimport \"./../lib/dappsys/math.sol\";\nimport \"./Whitelist.sol\";\n\n// ignore-file-swc-108\n\n\ncontract CoinMachine is DSAuth, DSMath {\n  receive() external payable {}\n\n  // Constants\n\n  uint256 constant UINT256_MAX = 2 ** 256 - 1;\n  uint256 constant UINT128_MAX = 2 ** 128 - 1;\n\n  // Events\n\n  event CoinMachineInitialised();\n  event TokensBought(address buyer, uint256 numTokens, uint256 totalCost);\n  event PeriodUpdated(uint256 activePeriod, uint256 currentPeriod);\n  event PriceEvolutionSet(bool evolvePrice);\n  event BeneficiarySet(address beneficiary);\n  event WhitelistSet(address whitelist);\n  event CoinMachineStateSet(CoinMachineState state);\n\n  // Datatypes\n\n   enum CoinMachineState { Active, Paused, Stopped }\n\n  // Storage\n\n  address payable public factory; // The coin machine factory address\n  uint256 public feeFraction; // The fraction defining the sale fee\n  CoinMachineState public state; // The state of the coin machine\n\n  address public token; // The token we are selling\n  address public purchaseToken; // The token in which we receive payments, 0x0 for eth\n  address payable public beneficiary; // Address to receive sale proceeds\n\n  uint256 public startTime; // Timestamp to begin the sale\n  uint256 public endTime; // Timestamp to end the sale\n\n  uint256 public periodLength; // Duration of a sale period in seconds (e.g. 3600 = 1 hour)\n  uint256 public alpha; // WAD-denominated float between 0 and 1 that controls how quickly the EMA adjusts\n\n  uint256 public targetPerPeriod; // Target number of tokens to sell in a period\n  uint256 public maxPerPeriod; // Maximum number of tokens sellable in a period\n\n  uint256 public activePeriod; // The active sale period\n  uint256 public activePrice; // The active sale price (a WAD ratio of averageIntake / targetPerPeriod)\n\n  uint256 public activeSold; // Tokens sold in the active period\n  uint256 public activeIntake; // Payment received in the active period\n\n  uint256 public emaIntake; // Averaged payment intake\n  bool public evolvePrice; // If we should evolve the price or not\n\n  address public whitelist; // Address of an optional whitelist\n\n  uint256 public minPurchaseFraction; // Minimum percent of supply a user can buy (in WADs)\n  uint256 public userLimitFraction; // Limit an address can buy of the total supply (in WADs)\n  uint256 public soldTotal; // Total tokens sold by the coin machine\n  mapping(address => uint256) public soldUser; // Tokens sold to a particular user\n\n  uint256 public totalIntake; // Total amount of purchaseToken we have received\n  uint256 public intakeCap; // Maximum amount of purchaseToken we wish to recieve\n\n  bool public stoppable; // Whether the sale can be paused/stopped\n\n  // Constructor\n\n  constructor(address _owner, uint256 _feeFraction) {\n    factory = payable(msg.sender);\n    feeFraction = _feeFraction;\n    startTime = UINT256_MAX;\n    setOwner(_owner);\n  }\n\n  // Modifiers\n\n  modifier active() {\n    require(isActive(), \"coin-machine-not-active\");\n    _;\n  }\n\n  // Owner\n\n  /// @notice Must be called before any sales can be made\n  /// @param _tokens The tokens we are selling and buying. Use 0x0 to buy Ether\n  /// @param _times The times to start and end the sale\n  /// @param _periodLength How long in seconds each period of the sale should last\n  /// @param _windowSize Characteristic number of periods that should be used for the moving average. In the long-term, 86% of the weighting will be in this window size. The higher the number, the slower the price will be to adjust\n  /// @param _targets The target and maximum number of tokens to sell per period\n  /// @param _limits The maximum and minimum amount of tokens a user can purchase (as percent of total sold)\n  /// @param _startingPrice The sale price to start at, expressed in units of _purchaseToken per token being sold, as a WAD\n  /// @param _intakeCap The maximum amount of purchaseToken we wish to receive\n  /// @param _stoppable Whether or not the sale can be paused or stopped prior to completion\n  function initialise(\n    address[2] memory _tokens,\n    uint256[2] memory _times,\n    uint256 _periodLength,\n    uint256 _windowSize,\n    uint256[2] memory _targets,\n    uint256[] memory _limits,\n    uint256 _startingPrice,\n    uint256 _intakeCap,\n    bool _stoppable,\n    address _beneficiary,\n    address _whitelist\n  )\n    public\n    auth\n  {\n    require(block.timestamp < startTime, \"coin-machine-sale-begun\");\n\n    require(_tokens[0] != address(0x0), \"coin-machine-invalid-token\");\n    require(_periodLength > 0, \"coin-machine-period-too-small\");\n    require(_windowSize > 0, \"coin-machine-window-too-small\");\n    require(_windowSize <= 512, \"coin-machine-window-too-large\");\n    require(_targets[0] > 0, \"coin-machine-target-too-small\");\n    require(_targets[0] <= _targets[1], \"coin-machine-max-too-small\");\n    require(_limits[0] <= WAD, \"coin-machine-limit-too-large\");\n    require(_limits[0] > 0, \"coin-machine-limit-too-small\");\n    require(_limits[1] <= WAD, \"coin-machine-limit-too-large\");\n    require(_intakeCap <= UINT128_MAX, \"coin-machine-cap-too-big\");\n\n    token = _tokens[0];\n    purchaseToken = _tokens[1];\n    beneficiary = payable(owner);\n\n    startTime = (_times[0] == 0) ? block.timestamp : _times[0];\n    endTime = (_times[1] == 0) ? UINT256_MAX : _times[1];\n    require(startTime < endTime, \"coin-machine-bad-end-time\");\n\n    periodLength = _periodLength;\n    alpha = wdiv(2, _windowSize + 1); // Two ints enter, 1 WAD leaves\n    // In the long-term, 86% of the weighting will be in this window size. This is a 'standard' conversion\n    // used between SMAs and EMAs, as the center of mass of the weightings is the same if this is used.\n\n    targetPerPeriod = _targets[0];\n    maxPerPeriod = _targets[1];\n\n    userLimitFraction = _limits[0];\n    minPurchaseFraction = _limits[1];\n\n    activePrice = _startingPrice;\n    activePeriod = getCurrentPeriod();\n\n    emaIntake = wmul(targetPerPeriod, _startingPrice);\n\n    intakeCap = _intakeCap;\n    stoppable = _stoppable;\n\n    setBeneficiary(_beneficiary);\n    whitelist = _whitelist;\n\n    setPriceEvolution(getTokenBalance() > 0 && isActive());\n\n    emit CoinMachineInitialised();\n  }\n\n  /// @notice Set the beneficiary address\n  /// @param _beneficiary The beneficiary to receive sale proceeds\n  function setBeneficiary(address _beneficiary) public auth {\n    beneficiary = payable(_beneficiary);\n\n    emit BeneficiarySet(_beneficiary);\n  }\n\n  /// @notice Pause the coin machine if active\n  function pause() public auth {\n    require(stoppable, \"coin-machine-not-stoppable\");\n    require(state == CoinMachineState.Active, \"coin-machine-not-active\");\n    setPriceEvolution(false);\n    setCoinMachineState(CoinMachineState.Paused);\n  }\n\n  /// @notice Unpause the coin machine if paused\n  function unpause() public auth {\n    require(state == CoinMachineState.Paused, \"coin-machine-not-paused\");\n    setCoinMachineState(CoinMachineState.Active);\n  }\n\n  /// @notice Stop the coin machine (cannot be undone)\n  function stop() public auth {\n    require(stoppable, \"coin-machine-not-stoppable\");\n    require(state != CoinMachineState.Stopped, \"coin-machine-already-stopped\");\n    require(\n      state == CoinMachineState.Active ||state == CoinMachineState.Paused,\n      \"coin-machine-not-active-or-paused\"\n    );\n\n    setPriceEvolution(false);\n    setCoinMachineState(CoinMachineState.Stopped);\n  }\n\n  // Public\n\n  /// @notice Purchase tokens from Coin Machine.\n  /// @param _numTokens The number of tokens to purchase\n  function buyTokens(uint256 _numTokens) public payable active {\n    require(startTime <= block.timestamp, \"coin-machine-sale-not-begun\");\n    require(block.timestamp < endTime, \"coin-machine-sale-over\");\n\n    updatePeriod();\n\n    require(\n      whitelist == address(0x0) || Whitelist(whitelist).isApproved(msg.sender),\n      \"coin-machine-unauthorised\"\n    );\n\n    uint256 maxPurchase = getMaxPurchase(msg.sender);\n    uint256 numTokens = min(maxPurchase, _numTokens);\n\n    if (numTokens <= 0) {\n      if (msg.value > 0) { payable(msg.sender).transfer(msg.value); } // Refund any balance\n      return;\n    }\n\n    uint256 totalCost = wmul(numTokens, activePrice);\n    totalIntake = add(totalIntake, totalCost);\n    activeIntake = add(activeIntake, totalCost);\n    activeSold = add(activeSold, numTokens);\n\n    uint256 fee = wmul(totalCost, feeFraction);\n\n    assert(totalIntake <= intakeCap);\n    assert(activeSold <= maxPerPeriod);\n\n    // Do userLimitFraction bookkeeping (only if needed)\n    if (userLimitFraction < WAD || minPurchaseFraction > 0) {\n      uint256 minPurchase = getMinPurchase();\n      soldTotal = add(soldTotal, numTokens);\n      soldUser[msg.sender] = add(soldUser[msg.sender], numTokens);\n      require(soldUser[msg.sender] >= minPurchase, \"coin-machine-purchase-too-small\");\n    }\n\n    // Check if we've sold out\n    if (numTokens >= getTokenBalance()) { setPriceEvolution(false); }\n\n    if (purchaseToken == address(0x0)) {\n      require(msg.value >= totalCost, \"coin-machine-insufficient-funds\");\n      if (msg.value > totalCost) { payable(msg.sender).transfer(msg.value - totalCost); } // Refund any balance\n      factory.transfer(fee);\n      beneficiary.transfer(sub(totalCost, fee));\n    } else {\n      require(ERC20(purchaseToken).transferFrom(msg.sender, factory, fee), \"coin-machine-purchase-failed\");\n      require(ERC20(purchaseToken).transferFrom(msg.sender, beneficiary, sub(totalCost, fee)), \"coin-machine-purchase-failed\");\n    }\n\n    require(ERC20(token).transfer(msg.sender, numTokens), \"coin-machine-transfer-failed\");\n\n    emit TokensBought(msg.sender, numTokens, totalCost);\n  }\n\n  /// @notice Bring the token accounting current\n  function updatePeriod() public {\n    uint256 currentPeriod = getCurrentPeriod();\n    uint256 initialActivePeriod = activePeriod;\n\n    // If we're already up-to-date, do nothing\n    if (initialActivePeriod >= currentPeriod) {\n      return;\n    }\n\n    // If we're out of tokens or deprecated, don't update\n    if (!evolvePrice) {\n      activePeriod = currentPeriod;\n\n      // Are we still sold out?\n      setPriceEvolution(getTokenBalance() > 0 && isActive());\n    }\n\n    // We need to update the price if the active period is not the current one.\n    if (activePeriod < currentPeriod) {\n      emaIntake = wmul((WAD - alpha), emaIntake) + wmul(alpha, activeIntake); // wmul(wad, int) => int\n\n      // Handle any additional missed periods\n      uint256 periodGap = currentPeriod - activePeriod - 1;\n      if (periodGap != 0) {\n        emaIntake = wmul(wpow((WAD - alpha), periodGap), emaIntake);\n      }\n\n      activePeriod = currentPeriod;\n\n      // Update the price\n      activePrice = wdiv(emaIntake, targetPerPeriod);\n    }\n\n    activeIntake = 0;\n    activeSold = 0;\n\n    emit PeriodUpdated(initialActivePeriod, currentPeriod);\n  }\n\n  function withdraw() public {\n    require(endTime < block.timestamp || state == CoinMachineState.Stopped, \"coin-machine-sale-not-over\");\n    ERC20(token).transfer(beneficiary, getTokenBalance());\n  }\n\n  // View\n\n  /// @notice Get the remaining balance of tokens\n  function getTokenBalance() public view returns (uint256) {\n    return ERC20(token).balanceOf(address(this));\n  }\n\n  /// @notice Get the current price per token\n  function getCurrentPrice() public view returns (uint256) {\n    uint256 currentPeriod = getCurrentPeriod();\n\n    if (activePeriod >= currentPeriod || !evolvePrice) {\n      return activePrice;\n\n    // Otherwise, infer the new price\n    } else {\n      uint256 newIntake = emaIntake;\n\n      // Accommodate the activePeriod\n      newIntake = wmul((WAD - alpha), newIntake) + wmul(alpha, activeIntake);\n\n      // Accommodate periods between the activePeriod and the currentPeriod\n      uint256 periodGap = currentPeriod - activePeriod - 1;\n      if (periodGap != 0) {\n        newIntake = wmul(wpow((WAD - alpha), periodGap), newIntake);\n      }\n\n      return wdiv(newIntake, targetPerPeriod);\n    }\n  }\n\n  /// @notice Get the number of remaining tokens for sale this period\n  function getSellableTokens() public view returns (uint256) {\n    return min(\n      sub(maxPerPeriod, ((activePeriod >= getCurrentPeriod()) ? activeSold : 0)),\n      wdiv(sub(intakeCap, totalIntake), activePrice) // Get number of tokens we can sell before we hit the cap\n    );\n  }\n\n  /// @notice Get the minimum amount of tokens a user can purchase\n  function getMinPurchase() public view returns (uint256) {\n    return wmul(minPurchaseFraction, add(soldTotal, getTokenBalance()));\n  }\n\n  /// @notice Get the maximum amount of tokens a user can purchase in a period\n  function getMaxPurchase(address _user) public view returns (uint256) {\n    uint256 tokenBalance = getTokenBalance();\n    uint256 sellableTokens = getSellableTokens();\n    uint256 userLimit = getUserLimit(_user);\n    return min(userLimit, min(tokenBalance, sellableTokens));\n  }\n\n  /// @notice Get the maximum amount of tokens a user can purchase in total\n  function getUserLimit(address _user) public view returns (uint256) {\n    return\n      (userLimitFraction == WAD || whitelist == address(0x0)) ?\n      UINT256_MAX :\n      sub(wmul(add(getTokenBalance(), soldTotal), userLimitFraction), soldUser[_user])\n    ;\n  }\n\n  function getCurrentPeriod() public view returns (uint256) {\n    return sub(max(block.timestamp, startTime), startTime) / periodLength;\n  }\n\n  // Internal\n\n  function setCoinMachineState(CoinMachineState _state) internal {\n    state = _state;\n\n    emit CoinMachineStateSet(_state);\n  }\n\n  function isActive() internal view returns (bool) {\n    return state == CoinMachineState.Active;\n  }\n\n  function setPriceEvolution(bool status) internal {\n    if (status != evolvePrice) {\n      evolvePrice = status;\n\n      emit PriceEvolutionSet(status);\n    }\n  }\n\n  function wpow(uint256 x, uint256 n) internal pure returns (uint256) {\n    // Must convert WAD (10 ** 18) to RAY (10 ** 27) and back\n    return rpow(x * (10 ** 9), n) / (10 ** 9);\n  }\n}\n",
  "sourcePath": "/Users/alicjakujawa/coinMachine/contracts/contracts/CoinMachine.sol",
  "compiler": {
    "name": "solc",
    "version": "0.8.13+commit.abaa5c0e.Emscripten.clang"
  },
  "schemaVersion": "3.4.10",
  "updatedAt": "2022-11-09T11:21:43.376Z",
  "devdoc": {
    "kind": "dev",
    "methods": {
      "buyTokens(uint256)": {
        "params": {
          "_numTokens": "The number of tokens to purchase"
        }
      },
      "initialise(address[2],uint256[2],uint256,uint256,uint256[2],uint256[],uint256,uint256,bool,address,address)": {
        "params": {
          "_intakeCap": "The maximum amount of purchaseToken we wish to receive",
          "_limits": "The maximum and minimum amount of tokens a user can purchase (as percent of total sold)",
          "_periodLength": "How long in seconds each period of the sale should last",
          "_startingPrice": "The sale price to start at, expressed in units of _purchaseToken per token being sold, as a WAD",
          "_stoppable": "Whether or not the sale can be paused or stopped prior to completion",
          "_targets": "The target and maximum number of tokens to sell per period",
          "_times": "The times to start and end the sale",
          "_tokens": "The tokens we are selling and buying. Use 0x0 to buy Ether",
          "_windowSize": "Characteristic number of periods that should be used for the moving average. In the long-term, 86% of the weighting will be in this window size. The higher the number, the slower the price will be to adjust"
        }
      },
      "setBeneficiary(address)": {
        "params": {
          "_beneficiary": "The beneficiary to receive sale proceeds"
        }
      }
    },
    "version": 1
  },
  "userdoc": {
    "kind": "user",
    "methods": {
      "buyTokens(uint256)": {
        "notice": "Purchase tokens from Coin Machine."
      },
      "getCurrentPrice()": {
        "notice": "Get the current price per token"
      },
      "getMaxPurchase(address)": {
        "notice": "Get the maximum amount of tokens a user can purchase in a period"
      },
      "getMinPurchase()": {
        "notice": "Get the minimum amount of tokens a user can purchase"
      },
      "getSellableTokens()": {
        "notice": "Get the number of remaining tokens for sale this period"
      },
      "getTokenBalance()": {
        "notice": "Get the remaining balance of tokens"
      },
      "getUserLimit(address)": {
        "notice": "Get the maximum amount of tokens a user can purchase in total"
      },
      "initialise(address[2],uint256[2],uint256,uint256,uint256[2],uint256[],uint256,uint256,bool,address,address)": {
        "notice": "Must be called before any sales can be made"
      },
      "pause()": {
        "notice": "Pause the coin machine if active"
      },
      "setBeneficiary(address)": {
        "notice": "Set the beneficiary address"
      },
      "stop()": {
        "notice": "Stop the coin machine (cannot be undone)"
      },
      "unpause()": {
        "notice": "Unpause the coin machine if paused"
      },
      "updatePeriod()": {
        "notice": "Bring the token accounting current"
      }
    },
    "version": 1
  }
}