{
  "contractName": "CoinMachine",
  "abi": [
    {
      "inputs": [
        {
          "internalType": "address",
          "name": "_owner",
          "type": "address"
        },
        {
          "internalType": "uint256",
          "name": "_feeFraction",
          "type": "uint256"
        }
      ],
      "stateMutability": "nonpayable",
      "type": "constructor"
    },
    {
      "anonymous": false,
      "inputs": [
        {
          "indexed": false,
          "internalType": "address",
          "name": "beneficiary",
          "type": "address"
        }
      ],
      "name": "BeneficiarySet",
      "type": "event"
    },
    {
      "anonymous": false,
      "inputs": [],
      "name": "CoinMachineInitialised",
      "type": "event"
    },
    {
      "anonymous": false,
      "inputs": [
        {
          "indexed": false,
          "internalType": "enum CoinMachine.CoinMachineState",
          "name": "state",
          "type": "uint8"
        }
      ],
      "name": "CoinMachineStateSet",
      "type": "event"
    },
    {
      "anonymous": false,
      "inputs": [
        {
          "indexed": true,
          "internalType": "address",
          "name": "previousOwner",
          "type": "address"
        },
        {
          "indexed": true,
          "internalType": "address",
          "name": "newOwner",
          "type": "address"
        }
      ],
      "name": "OwnershipTransferred",
      "type": "event"
    },
    {
      "anonymous": false,
      "inputs": [
        {
          "indexed": false,
          "internalType": "uint256",
          "name": "activePeriod",
          "type": "uint256"
        },
        {
          "indexed": false,
          "internalType": "uint256",
          "name": "currentPeriod",
          "type": "uint256"
        }
      ],
      "name": "PeriodUpdated",
      "type": "event"
    },
    {
      "anonymous": false,
      "inputs": [
        {
          "indexed": false,
          "internalType": "bool",
          "name": "evolvePrice",
          "type": "bool"
        }
      ],
      "name": "PriceEvolutionSet",
      "type": "event"
    },
    {
      "anonymous": false,
      "inputs": [
        {
          "indexed": false,
          "internalType": "address",
          "name": "buyer",
          "type": "address"
        },
        {
          "indexed": false,
          "internalType": "uint256",
          "name": "numTokens",
          "type": "uint256"
        },
        {
          "indexed": false,
          "internalType": "uint256",
          "name": "totalCost",
          "type": "uint256"
        }
      ],
      "name": "TokensBought",
      "type": "event"
    },
    {
      "inputs": [],
      "name": "activeIntake",
      "outputs": [
        {
          "internalType": "uint256",
          "name": "",
          "type": "uint256"
        }
      ],
      "stateMutability": "view",
      "type": "function"
    },
    {
      "inputs": [],
      "name": "activePeriod",
      "outputs": [
        {
          "internalType": "uint256",
          "name": "",
          "type": "uint256"
        }
      ],
      "stateMutability": "view",
      "type": "function"
    },
    {
      "inputs": [],
      "name": "activePrice",
      "outputs": [
        {
          "internalType": "uint256",
          "name": "",
          "type": "uint256"
        }
      ],
      "stateMutability": "view",
      "type": "function"
    },
    {
      "inputs": [],
      "name": "activeSold",
      "outputs": [
        {
          "internalType": "uint256",
          "name": "",
          "type": "uint256"
        }
      ],
      "stateMutability": "view",
      "type": "function"
    },
    {
      "inputs": [],
      "name": "alpha",
      "outputs": [
        {
          "internalType": "uint256",
          "name": "",
          "type": "uint256"
        }
      ],
      "stateMutability": "view",
      "type": "function"
    },
    {
      "inputs": [],
      "name": "beneficiary",
      "outputs": [
        {
          "internalType": "address payable",
          "name": "",
          "type": "address"
        }
      ],
      "stateMutability": "view",
      "type": "function"
    },
    {
      "inputs": [],
      "name": "emaIntake",
      "outputs": [
        {
          "internalType": "uint256",
          "name": "",
          "type": "uint256"
        }
      ],
      "stateMutability": "view",
      "type": "function"
    },
    {
      "inputs": [],
      "name": "endTime",
      "outputs": [
        {
          "internalType": "uint256",
          "name": "",
          "type": "uint256"
        }
      ],
      "stateMutability": "view",
      "type": "function"
    },
    {
      "inputs": [],
      "name": "evolvePrice",
      "outputs": [
        {
          "internalType": "bool",
          "name": "",
          "type": "bool"
        }
      ],
      "stateMutability": "view",
      "type": "function"
    },
    {
      "inputs": [],
      "name": "factory",
      "outputs": [
        {
          "internalType": "address payable",
          "name": "",
          "type": "address"
        }
      ],
      "stateMutability": "view",
      "type": "function"
    },
    {
      "inputs": [],
      "name": "feeFraction",
      "outputs": [
        {
          "internalType": "uint256",
          "name": "",
          "type": "uint256"
        }
      ],
      "stateMutability": "view",
      "type": "function"
    },
    {
      "inputs": [],
      "name": "intakeCap",
      "outputs": [
        {
          "internalType": "uint256",
          "name": "",
          "type": "uint256"
        }
      ],
      "stateMutability": "view",
      "type": "function"
    },
    {
      "inputs": [],
      "name": "maxPerPeriod",
      "outputs": [
        {
          "internalType": "uint256",
          "name": "",
          "type": "uint256"
        }
      ],
      "stateMutability": "view",
      "type": "function"
    },
    {
      "inputs": [],
      "name": "minPurchaseFraction",
      "outputs": [
        {
          "internalType": "uint256",
          "name": "",
          "type": "uint256"
        }
      ],
      "stateMutability": "view",
      "type": "function"
    },
    {
      "inputs": [],
      "name": "owner",
      "outputs": [
        {
          "internalType": "address",
          "name": "",
          "type": "address"
        }
      ],
      "stateMutability": "view",
      "type": "function"
    },
    {
      "inputs": [],
      "name": "periodLength",
      "outputs": [
        {
          "internalType": "uint256",
          "name": "",
          "type": "uint256"
        }
      ],
      "stateMutability": "view",
      "type": "function"
    },
    {
      "inputs": [],
      "name": "purchaseToken",
      "outputs": [
        {
          "internalType": "address",
          "name": "",
          "type": "address"
        }
      ],
      "stateMutability": "view",
      "type": "function"
    },
    {
      "inputs": [],
      "name": "renounceOwnership",
      "outputs": [],
      "stateMutability": "nonpayable",
      "type": "function"
    },
    {
      "inputs": [
        {
          "internalType": "address",
          "name": "",
          "type": "address"
        }
      ],
      "name": "soldUser",
      "outputs": [
        {
          "internalType": "uint256",
          "name": "",
          "type": "uint256"
        }
      ],
      "stateMutability": "view",
      "type": "function"
    },
    {
      "inputs": [],
      "name": "startTime",
      "outputs": [
        {
          "internalType": "uint256",
          "name": "",
          "type": "uint256"
        }
      ],
      "stateMutability": "view",
      "type": "function"
    },
    {
      "inputs": [],
      "name": "state",
      "outputs": [
        {
          "internalType": "enum CoinMachine.CoinMachineState",
          "name": "",
          "type": "uint8"
        }
      ],
      "stateMutability": "view",
      "type": "function"
    },
    {
      "inputs": [],
      "name": "stoppable",
      "outputs": [
        {
          "internalType": "bool",
          "name": "",
          "type": "bool"
        }
      ],
      "stateMutability": "view",
      "type": "function"
    },
    {
      "inputs": [],
      "name": "targetPerPeriod",
      "outputs": [
        {
          "internalType": "uint256",
          "name": "",
          "type": "uint256"
        }
      ],
      "stateMutability": "view",
      "type": "function"
    },
    {
      "inputs": [],
      "name": "token",
      "outputs": [
        {
          "internalType": "address",
          "name": "",
          "type": "address"
        }
      ],
      "stateMutability": "view",
      "type": "function"
    },
    {
      "inputs": [
        {
          "internalType": "address",
          "name": "newOwner",
          "type": "address"
        }
      ],
      "name": "transferOwnership",
      "outputs": [],
      "stateMutability": "nonpayable",
      "type": "function"
    },
    {
      "inputs": [],
      "name": "userLimitFraction",
      "outputs": [
        {
          "internalType": "uint256",
          "name": "",
          "type": "uint256"
        }
      ],
      "stateMutability": "view",
      "type": "function"
    },
    {
      "inputs": [],
      "name": "whitelist",
      "outputs": [
        {
          "internalType": "address",
          "name": "",
          "type": "address"
        }
      ],
      "stateMutability": "view",
      "type": "function"
    },
    {
      "stateMutability": "payable",
      "type": "receive"
    },
    {
      "inputs": [
        {
          "internalType": "address[2]",
          "name": "_tokens",
          "type": "address[2]"
        },
        {
          "internalType": "uint256[2]",
          "name": "_times",
          "type": "uint256[2]"
        },
        {
          "internalType": "uint256",
          "name": "_periodLength",
          "type": "uint256"
        },
        {
          "internalType": "uint256",
          "name": "_windowSize",
          "type": "uint256"
        },
        {
          "internalType": "uint256[2]",
          "name": "_targets",
          "type": "uint256[2]"
        },
        {
          "internalType": "uint256[]",
          "name": "_limits",
          "type": "uint256[]"
        },
        {
          "internalType": "uint256",
          "name": "_startingPrice",
          "type": "uint256"
        },
        {
          "internalType": "uint256",
          "name": "_intakeCap",
          "type": "uint256"
        },
        {
          "internalType": "bool",
          "name": "_stoppable",
          "type": "bool"
        },
        {
          "internalType": "address payable",
          "name": "_beneficiary",
          "type": "address"
        },
        {
          "internalType": "address",
          "name": "_whitelist",
          "type": "address"
        }
      ],
      "name": "initialise",
      "outputs": [],
      "stateMutability": "nonpayable",
      "type": "function"
    },
    {
      "inputs": [],
      "name": "pause",
      "outputs": [],
      "stateMutability": "nonpayable",
      "type": "function"
    },
    {
      "inputs": [],
      "name": "unpause",
      "outputs": [],
      "stateMutability": "nonpayable",
      "type": "function"
    },
    {
      "inputs": [],
      "name": "stop",
      "outputs": [],
      "stateMutability": "nonpayable",
      "type": "function"
    },
    {
      "inputs": [
        {
          "internalType": "address payable",
          "name": "_beneficiary",
          "type": "address"
        }
      ],
      "name": "setBeneficiary",
      "outputs": [],
      "stateMutability": "nonpayable",
      "type": "function"
    },
    {
      "inputs": [
        {
          "internalType": "uint256",
          "name": "_numTokens",
          "type": "uint256"
        }
      ],
      "name": "buyTokens",
      "outputs": [],
      "stateMutability": "payable",
      "type": "function"
    },
    {
      "inputs": [],
      "name": "withdraw",
      "outputs": [],
      "stateMutability": "nonpayable",
      "type": "function"
    },
    {
      "inputs": [],
      "name": "updatePeriod",
      "outputs": [],
      "stateMutability": "nonpayable",
      "type": "function"
    },
    {
      "inputs": [],
      "name": "getCurrentPrice",
      "outputs": [
        {
          "internalType": "uint256",
          "name": "",
          "type": "uint256"
        }
      ],
      "stateMutability": "view",
      "type": "function"
    },
    {
      "inputs": [],
      "name": "getTokenBalance",
      "outputs": [
        {
          "internalType": "uint256",
          "name": "",
          "type": "uint256"
        }
      ],
      "stateMutability": "view",
      "type": "function"
    },
    {
      "inputs": [],
      "name": "getSellableTokens",
      "outputs": [
        {
          "internalType": "uint256",
          "name": "",
          "type": "uint256"
        }
      ],
      "stateMutability": "view",
      "type": "function"
    },
    {
      "inputs": [],
      "name": "getMinPurchase",
      "outputs": [
        {
          "internalType": "uint256",
          "name": "",
          "type": "uint256"
        }
      ],
      "stateMutability": "view",
      "type": "function"
    },
    {
      "inputs": [
        {
          "internalType": "address",
          "name": "_user",
          "type": "address"
        }
      ],
      "name": "getMaxPurchase",
      "outputs": [
        {
          "internalType": "uint256",
          "name": "",
          "type": "uint256"
        }
      ],
      "stateMutability": "view",
      "type": "function"
    },
    {
      "inputs": [
        {
          "internalType": "address",
          "name": "_user",
          "type": "address"
        }
      ],
      "name": "getUserLimit",
      "outputs": [
        {
          "internalType": "uint256",
          "name": "",
          "type": "uint256"
        }
      ],
      "stateMutability": "view",
      "type": "function"
    },
    {
      "inputs": [],
      "name": "getTotalIntake",
      "outputs": [
        {
          "internalType": "uint256",
          "name": "",
          "type": "uint256"
        }
      ],
      "stateMutability": "view",
      "type": "function"
    },
    {
      "inputs": [],
      "name": "getSoldTotal",
      "outputs": [
        {
          "internalType": "uint256",
          "name": "",
          "type": "uint256"
        }
      ],
      "stateMutability": "view",
      "type": "function"
    },
    {
      "inputs": [],
      "name": "getCurrentPeriod",
      "outputs": [
        {
          "internalType": "uint256",
          "name": "",
          "type": "uint256"
        }
      ],
      "stateMutability": "view",
      "type": "function"
    }
  ],
  "bytecode": "0x60806040523480156200001157600080fd5b5060405162002689380380620026898339810160408190526200003491620001a0565b6200003f336200006f565b600180546001600160a01b0319163317905560028190556000196006556200006782620000bf565b5050620001dc565b600080546001600160a01b038381166001600160a01b0319831681178455604051919092169283917f8be0079c531659141344cd1fd0a4f28419497f9722a3daafe3b4186f6b6457e09190a35050565b620000c962000142565b6001600160a01b038116620001345760405162461bcd60e51b815260206004820152602660248201527f4f776e61626c653a206e6577206f776e657220697320746865207a65726f206160448201526564647265737360d01b60648201526084015b60405180910390fd5b6200013f816200006f565b50565b6000546001600160a01b031633146200019e5760405162461bcd60e51b815260206004820181905260248201527f4f776e61626c653a2063616c6c6572206973206e6f7420746865206f776e657260448201526064016200012b565b565b60008060408385031215620001b457600080fd5b82516001600160a01b0381168114620001cc57600080fd5b6020939093015192949293505050565b61249d80620001ec6000396000f3fe60806040526004361061026b5760003560e01c80638102263111610144578063be0a64a2116100b6578063db1d0fd51161007a578063db1d0fd51461066c578063e2f9082314610682578063e9587e8614610698578063eb91d37e146106b8578063f2fde38b146106cd578063fc0c546a146106ed57600080fd5b8063be0a64a2146105e3578063c19d93fb146105f9578063c45a015514610620578063d2ca211514610640578063d53316b21461065657600080fd5b806393e59dc11161010857806393e59dc114610544578063a83627de14610569578063a95c4d621461057e578063b497d5011461059e578063b5b2f1ef146105b4578063bb4872de146105c957600080fd5b806381022631146104bc57806382b2e257146104d25780638456cb59146104e75780638da5cb5b146104fc57806391cadaf61461051a57600080fd5b80632869b128116101dd5780633ccfd60b116101a15780633ccfd60b1461043b5780633f4ba83a1461045057806352a30384146104655780635bf8eddd1461047b578063715018a61461049157806378e97925146104a657600080fd5b80632869b128146103975780632b96d909146103c45780633197cbb6146103da5780633610724e146103f057806338af3eed1461040357600080fd5b80630f3d88031161022f5780630f3d8803146102f8578063114f67691461030d578063148f93141461032d5780631c31f7101461034d57806323d631eb1461036d57806324604da01461038257600080fd5b806307da68f514610277578063086146d21461028e5780630a441f7b146102b65780630aed1428146102cc5780630c707339146102e257600080fd5b3661027257005b600080fd5b34801561028357600080fd5b5061028c610712565b005b34801561029a57600080fd5b506102a361087e565b6040519081526020015b60405180910390f35b3480156102c257600080fd5b506102a3600c5481565b3480156102d857600080fd5b506102a3600b5481565b3480156102ee57600080fd5b506102a360105481565b34801561030457600080fd5b506102a36108ab565b34801561031957600080fd5b506102a36103283660046120a4565b6108d2565b34801561033957600080fd5b5061028c610348366004612204565b610914565b34801561035957600080fd5b5061028c6103683660046120a4565b610f48565b34801561037957600080fd5b506102a3610ffb565b34801561038e57600080fd5b506102a361100d565b3480156103a357600080fd5b506102a36103b23660046120a4565b60156020526000908152604090205481565b3480156103d057600080fd5b506102a3600e5481565b3480156103e657600080fd5b506102a360075481565b61028c6103fe36600461231d565b61101f565b34801561040f57600080fd5b50600554610423906001600160a01b031681565b6040516001600160a01b0390911681526020016102ad565b34801561044757600080fd5b5061028c61176d565b34801561045c57600080fd5b5061028c6118c0565b34801561047157600080fd5b506102a3600d5481565b34801561048757600080fd5b506102a360025481565b34801561049d57600080fd5b5061028c611940565b3480156104b257600080fd5b506102a360065481565b3480156104c857600080fd5b506102a3600f5481565b3480156104de57600080fd5b506102a3611952565b3480156104f357600080fd5b5061028c6119c4565b34801561050857600080fd5b506000546001600160a01b0316610423565b34801561052657600080fd5b506011546105349060ff1681565b60405190151581526020016102ad565b34801561055057600080fd5b506011546104239061010090046001600160a01b031681565b34801561057557600080fd5b5061028c611a92565b34801561058a57600080fd5b50600454610423906001600160a01b031681565b3480156105aa57600080fd5b506102a360125481565b3480156105c057600080fd5b506102a3611c03565b3480156105d557600080fd5b506018546105349060ff1681565b3480156105ef57600080fd5b506102a3600a5481565b34801561060557600080fd5b506003546106139060ff1681565b6040516102ad919061234c565b34801561062c57600080fd5b50600154610423906001600160a01b031681565b34801561064c57600080fd5b506102a360085481565b34801561066257600080fd5b506102a360175481565b34801561067857600080fd5b506102a360095481565b34801561068e57600080fd5b506102a360135481565b3480156106a457600080fd5b506102a36106b33660046120a4565b611c51565b3480156106c457600080fd5b506102a3611cd4565b3480156106d957600080fd5b5061028c6106e83660046120a4565b611d97565b3480156106f957600080fd5b506003546104239061010090046001600160a01b031681565b61071a611e0d565b60185460ff166107715760405162461bcd60e51b815260206004820152601a60248201527f636f696e2d6d616368696e652d6e6f742d73746f707061626c6500000000000060448201526064015b60405180910390fd5b600260035460ff16600281111561078a5761078a612336565b036107d75760405162461bcd60e51b815260206004820152601c60248201527f636f696e2d6d616368696e652d616c72656164792d73746f70706564000000006044820152606401610768565b600060035460ff1660028111156107f0576107f0612336565b14806108125750600160035460ff16600281111561081057610810612336565b145b6108685760405162461bcd60e51b815260206004820152602160248201527f636f696e2d6d616368696e652d6e6f742d6163746976652d6f722d70617573656044820152601960fa1b6064820152608401610768565b6108726000611e67565b61087c6002611eb8565b565b600060085460065461089242600654611f0b565b61089c919061238a565b6108a691906123b3565b905090565b60006108a66012546108bb611952565b6108c3610ffb565b6108cd91906123c7565b611f24565b6000806108dd611952565b905060006108e9611c03565b905060006108f685611c51565b905061090b816109068585611f43565b611f43565b95945050505050565b61091c611e0d565b600654421061096d5760405162461bcd60e51b815260206004820152601760248201527f636f696e2d6d616368696e652d73616c652d626567756e0000000000000000006044820152606401610768565b8a516001600160a01b03166109c45760405162461bcd60e51b815260206004820152601a60248201527f636f696e2d6d616368696e652d696e76616c69642d746f6b656e0000000000006044820152606401610768565b60008911610a145760405162461bcd60e51b815260206004820152601d60248201527f636f696e2d6d616368696e652d706572696f642d746f6f2d736d616c6c0000006044820152606401610768565b60008811610a645760405162461bcd60e51b815260206004820152601d60248201527f636f696e2d6d616368696e652d77696e646f772d746f6f2d736d616c6c0000006044820152606401610768565b610200881115610ab65760405162461bcd60e51b815260206004820152601d60248201527f636f696e2d6d616368696e652d77696e646f772d746f6f2d6c617267650000006044820152606401610768565b8651610b045760405162461bcd60e51b815260206004820152601d60248201527f636f696e2d6d616368696e652d7461726765742d746f6f2d736d616c6c0000006044820152606401610768565b602087015187511115610b595760405162461bcd60e51b815260206004820152601a60248201527f636f696e2d6d616368696e652d6d61782d746f6f2d736d616c6c0000000000006044820152606401610768565b670de0b6b3a764000086600081518110610b7557610b756123da565b60200260200101511115610bcb5760405162461bcd60e51b815260206004820152601c60248201527f636f696e2d6d616368696e652d6c696d69742d746f6f2d6c61726765000000006044820152606401610768565b600086600081518110610be057610be06123da565b602002602001015111610c355760405162461bcd60e51b815260206004820152601c60248201527f636f696e2d6d616368696e652d6c696d69742d746f6f2d736d616c6c000000006044820152606401610768565b85600181518110610c4857610c486123da565b602002602001015186600081518110610c6357610c636123da565b60200260200101511015610cb95760405162461bcd60e51b815260206004820181905260248201527f636f696e2d6d616368696e652d6c696d6974732d696e636f6e73697374656e746044820152606401610768565b6fffffffffffffffffffffffffffffffff841115610d195760405162461bcd60e51b815260206004820152601860248201527f636f696e2d6d616368696e652d6361702d746f6f2d62696700000000000000006044820152606401610768565b8a5160038054610100600160a81b0319166101006001600160a01b039384160217905560208c015160048054919092166001600160a01b0319909116179055895115610d66578951610d68565b425b60065560208a015115610d7f5760208a0151610d8f565b600654610d8f9062ed4e006123c7565b600755600654421115610de45760405162461bcd60e51b815260206004820152601b60248201527f636f696e2d6d616368696e652d6261642d73746172742d74696d6500000000006044820152606401610768565b60075460065410610e375760405162461bcd60e51b815260206004820152601960248201527f636f696e2d6d616368696e652d6261642d656e642d74696d65000000000000006044820152606401610768565b6008899055610e516002610e4c8a60016123c7565b611f53565b6009558651600a556020870151600b5585518690600090610e7457610e746123da565b602002602001015160138190555085600181518110610e9557610e956123da565b602002602001015160128190555084600d81905550610eb6600a5486611f24565b60105560178490556018805460ff1916841515179055610ed582610f48565b60118054610100600160a81b0319166101006001600160a01b03841602179055610eff6000611eb8565b610f126000610f0c611952565b11611e67565b6040517f8659acc9ee6146ef7e0dcc9851284bd43577098ffbe0119792784129fa0d2eed90600090a15050505050505050505050565b610f50611e0d565b6001600160a01b038116610fa65760405162461bcd60e51b815260206004820152601c60248201527f636f696e2d6d616368696e652d6261642d62656e6566696369617279000000006044820152606401610768565b600580546001600160a01b0319166001600160a01b0383169081179091556040519081527f04d55a8be181fb8d75b76f2d48aa0b2ee40f47e53d6e61763eeeec46feea8a24906020015b60405180910390a150565b6000600e546014546108a691906123c7565b6000600f546016546108a691906123c7565b4260065411156110715760405162461bcd60e51b815260206004820152601b60248201527f636f696e2d6d616368696e652d73616c652d6e6f742d626567756e00000000006044820152606401610768565b60075442106110bb5760405162461bcd60e51b815260206004820152601660248201527531b7b4b716b6b0b1b434b73296b9b0b63296b7bb32b960511b6044820152606401610768565b6110c3611f68565b6111095760405162461bcd60e51b8152602060048201526017602482015276636f696e2d6d616368696e652d6e6f742d61637469766560481b6044820152606401610768565b611111611a92565b60115461010090046001600160a01b03161580611199575060115460405163673448dd60e01b81523360048201526101009091046001600160a01b03169063673448dd90602401602060405180830381865afa158015611175573d6000803e3d6000fd5b505050506040513d601f19601f8201168201806040525081019061119991906123f0565b6111e55760405162461bcd60e51b815260206004820152601960248201527f636f696e2d6d616368696e652d756e617574686f7269736564000000000000006044820152606401610768565b60006111f0336108d2565b905060006111fe8284611f43565b90506000811161124157341561123c5760405133903480156108fc02916000818181858888f1935050505015801561123a573d6000803e3d6000fd5b505b505050565b600061124f82600d54611f24565b905080600f600082825461126391906123c7565b9091555050601354670de0b6b3a7640000118061128257506000601254115b1561131b5760006112916108ab565b336000908152601560205260408120805492935085929091906112b59084906123c7565b9091555050336000908152601560205260409020548111156113195760405162461bcd60e51b815260206004820152601f60248201527f636f696e2d6d616368696e652d70757263686173652d746f6f2d736d616c6c006044820152606401610768565b505b81600e600082825461132d91906123c7565b909155505060175461133d61100d565b111561134b5761134b61240d565b600b54600e54111561135f5761135f61240d565b611367611952565b8210611377576113776000611e67565b600061138582600254611f24565b6004549091506001600160a01b03166114aa57813410156113e85760405162461bcd60e51b815260206004820152601f60248201527f636f696e2d6d616368696e652d696e73756666696369656e742d66756e6473006044820152606401610768565b8134111561142857336108fc6113fe843461238a565b6040518115909202916000818181858888f19350505050158015611426573d6000803e3d6000fd5b505b6001546040516001600160a01b039091169082156108fc029083906000818181858888f19350505050158015611462573d6000803e3d6000fd5b506005546001600160a01b03166108fc61147c838561238a565b6040518115909202916000818181858888f193505050501580156114a4573d6000803e3d6000fd5b50611660565b600480546001546040516323b872dd60e01b815233938101939093526001600160a01b0390811660248401526044830184905216906323b872dd906064016020604051808303816000875af1158015611507573d6000803e3d6000fd5b505050506040513d601f19601f8201168201806040525081019061152b91906123f0565b6115775760405162461bcd60e51b815260206004820152601c60248201527f636f696e2d6d616368696e652d70757263686173652d6661696c6564000000006044820152606401610768565b6004546005546001600160a01b03918216916323b872dd9133911661159c858761238a565b6040516001600160e01b031960e086901b1681526001600160a01b03938416600482015292909116602483015260448201526064016020604051808303816000875af11580156115f0573d6000803e3d6000fd5b505050506040513d601f19601f8201168201806040525081019061161491906123f0565b6116605760405162461bcd60e51b815260206004820152601c60248201527f636f696e2d6d616368696e652d70757263686173652d6661696c6564000000006044820152606401610768565b60035460405163a9059cbb60e01b8152336004820152602481018590526101009091046001600160a01b03169063a9059cbb906044016020604051808303816000875af11580156116b5573d6000803e3d6000fd5b505050506040513d601f19601f820116820180604052508101906116d991906123f0565b6117255760405162461bcd60e51b815260206004820152601c60248201527f636f696e2d6d616368696e652d7472616e736665722d6661696c6564000000006044820152606401610768565b60408051338152602081018590529081018390527f8442948036198f1146d3a63c3db355d7e0295c2cc5676c755990445da4fdc1c99060600160405180910390a15050505050565b4260075410806117935750600260035460ff16600281111561179157611791612336565b145b6117df5760405162461bcd60e51b815260206004820152601a60248201527f636f696e2d6d616368696e652d73616c652d6e6f742d6f7665720000000000006044820152606401610768565b6003546005546001600160a01b0361010090920482169163a9059cbb9116611805611952565b6040516001600160e01b031960e085901b1681526001600160a01b03909216600483015260248201526044016020604051808303816000875af1158015611850573d6000803e3d6000fd5b505050506040513d601f19601f8201168201806040525081019061187491906123f0565b61087c5760405162461bcd60e51b815260206004820152601c60248201527f636f696e2d6d616368696e652d77697468647261772d6661696c6564000000006044820152606401610768565b6118c8611e0d565b600160035460ff1660028111156118e1576118e1612336565b1461192e5760405162461bcd60e51b815260206004820152601760248201527f636f696e2d6d616368696e652d6e6f742d7061757365640000000000000000006044820152606401610768565b6119386000611eb8565b61087c611a92565b611948611e0d565b61087c6000611f88565b6003546040516370a0823160e01b815230600482015260009161010090046001600160a01b0316906370a0823190602401602060405180830381865afa1580156119a0573d6000803e3d6000fd5b505050506040513d601f19601f820116820180604052508101906108a69190612423565b6119cc611e0d565b60185460ff16611a1e5760405162461bcd60e51b815260206004820152601a60248201527f636f696e2d6d616368696e652d6e6f742d73746f707061626c650000000000006044820152606401610768565b600060035460ff166002811115611a3757611a37612336565b14611a7e5760405162461bcd60e51b8152602060048201526017602482015276636f696e2d6d616368696e652d6e6f742d61637469766560481b6044820152606401610768565b611a886000611e67565b61087c6001611eb8565b6000611a9c61087e565b905080600c541115611ab057611ab061240d565b80600c541015611c0057600c5460115460ff16611aee57611ae96000611ad4611952565b118015611ae45750611ae4611f68565b611e67565b611b83565b611afc600954600f54611f24565b611b1d600954670de0b6b3a7640000611b15919061238a565b601054611f24565b611b2791906123c7565b60105560006001611b38838561238a565b611b42919061238a565b90508015611b7057611b6c611b15600954670de0b6b3a7640000611b66919061238a565b83611fd8565b6010555b611b7e601054600a54611f53565b600d55505b600f5460166000828254611b9791906123c7565b9091555050600e5460148054600090611bb19084906123c7565b9091555050600c8290556000600f819055600e5560408051828152602081018490527f5b873fc01d45058fe77f3883a91020f46d5a7385baac6ceab19748d1d0ae464a910160405180910390a1505b50565b60006108a6611c1061087e565b600c541015611c20576000611c24565b600e545b600b54611c31919061238a565b610906611c3c61100d565b601754611c49919061238a565b610e4c611cd4565b6000670de0b6b3a76400006013541480611c79575060115461010090046001600160a01b0316155b611cca576001600160a01b038216600090815260156020526040902054611cbb611ca1610ffb565b611ca9611952565b611cb391906123c7565b601354611f24565b611cc5919061238a565b611cce565b6000195b92915050565b600080611cdf61087e565b905080600c54101580611cf5575060115460ff16155b15611d02575050600d5490565b601054600954600f54611d159190611f24565b611d34600954670de0b6b3a7640000611d2e919061238a565b83611f24565b611d3e91906123c7565b905060006001600c5484611d52919061238a565b611d5c919061238a565b90508015611d8357611d80611d2e600954670de0b6b3a7640000611b66919061238a565b91505b611d8f82600a54611f53565b935050505090565b611d9f611e0d565b6001600160a01b038116611e045760405162461bcd60e51b815260206004820152602660248201527f4f776e61626c653a206e6577206f776e657220697320746865207a65726f206160448201526564647265737360d01b6064820152608401610768565b611c0081611f88565b6000546001600160a01b0316331461087c5760405162461bcd60e51b815260206004820181905260248201527f4f776e61626c653a2063616c6c6572206973206e6f7420746865206f776e65726044820152606401610768565b60115460ff16151581151514611c00576011805460ff19168215159081179091556040519081527f5b4e200daa1a93764a810c35f18f2fcfb14b5e95df6ae7ac1ffdc8eec425babc90602001610ff0565b6003805482919060ff19166001836002811115611ed757611ed7612336565b02179055507fd2d7d26509a0f467151b1957c8c832c751923756862314d6002c201f254b64f681604051610ff0919061234c565b600081831015611f1b5781611f1d565b825b9392505050565b6000670de0b6b3a7640000611f39838561243c565b611f1d91906123b3565b600081831115611f1b5781611f1d565b600081611f39670de0b6b3a76400008561243c565b60008060035460ff166002811115611f8257611f82612336565b14905090565b600080546001600160a01b038381166001600160a01b0319831681178455604051919092169283917f8be0079c531659141344cd1fd0a4f28419497f9722a3daafe3b4186f6b6457e09190a35050565b6000633b9aca00611f39611fec858361243c565b846000611ffa600283612453565b600003612013576b033b2e3c9fd0803ce8000000612015565b825b90506120226002836123b3565b91505b8115611cce576120358384612066565b9250612042600283612453565b15612054576120518184612066565b90505b61205f6002836123b3565b9150612025565b60006b033b2e3c9fd0803ce8000000611f39838561243c565b6001600160a01b0381168114611c0057600080fd5b803561209f8161207f565b919050565b6000602082840312156120b657600080fd5b8135611f1d8161207f565b634e487b7160e01b600052604160045260246000fd5b6040805190810167ffffffffffffffff811182821017156120fa576120fa6120c1565b60405290565b600082601f83011261211157600080fd5b6121196120d7565b80604084018581111561212b57600080fd5b845b8181101561214557803584526020938401930161212d565b509095945050505050565b600082601f83011261216157600080fd5b8135602067ffffffffffffffff8083111561217e5761217e6120c1565b8260051b604051601f19603f830116810181811084821117156121a3576121a36120c1565b6040529384528581018301938381019250878511156121c157600080fd5b83870191505b848210156121e0578135835291830191908301906121c7565b979650505050505050565b8015158114611c0057600080fd5b803561209f816121eb565b60008060008060008060008060008060006101c08c8e03121561222657600080fd5b8c601f8d011261223557600080fd5b61223d6120d7565b808e60408f01111561224e57600080fd5b8d5b60408f0181101561227557612265813561207f565b8035835260209283019201612250565b509b5061228790508d60408e01612100565b995060808c0135985060a08c013597506122a48d60c08e01612100565b96506101008c013567ffffffffffffffff8111156122c157600080fd5b6122cd8e828f01612150565b9650506101208c013594506101408c013593506122ed6101608d016121f9565b92506122fc6101808d01612094565b915061230b6101a08d01612094565b90509295989b509295989b9093969950565b60006020828403121561232f57600080fd5b5035919050565b634e487b7160e01b600052602160045260246000fd5b602081016003831061236e57634e487b7160e01b600052602160045260246000fd5b91905290565b634e487b7160e01b600052601160045260246000fd5b81810381811115611cce57611cce612374565b634e487b7160e01b600052601260045260246000fd5b6000826123c2576123c261239d565b500490565b80820180821115611cce57611cce612374565b634e487b7160e01b600052603260045260246000fd5b60006020828403121561240257600080fd5b8151611f1d816121eb565b634e487b7160e01b600052600160045260246000fd5b60006020828403121561243557600080fd5b5051919050565b8082028115828204841417611cce57611cce612374565b6000826124625761246261239d565b50069056fea26469706673582212200d4f1e1dc1fe9ebecf50f69a50634e20936f5c93090972c59cd78d218daf281764736f6c63430008110033",
  "immutableReferences": {},
  "source": "// SPDX-License-Identifier: GPL-3.0-only\n/*\n  This file is part of The Colony Network.\n\n  The Colony Network is free software: you can redistribute it and/or modify\n  it under the terms of the GNU General Public License as published by\n  the Free Software Foundation, either version 3 of the License, or\n  (at your option) any later version.\n\n  The Colony Network is distributed in the hope that it will be useful,\n  but WITHOUT ANY WARRANTY; without even the implied warranty of\n  MERCHANTABILITY or FITNESS FOR A PARTICULAR PURPOSE.  See the\n  GNU General Public License for more details.\n\n  You should have received a copy of the GNU General Public License\n  along with The Colony Network. If not, see <http://www.gnu.org/licenses/>.\n*/\n\npragma solidity 0.8.17;\n\nimport \"./Math.sol\";\nimport \"./Whitelist.sol\";\nimport \"@openzeppelin/contracts/access/Ownable.sol\";\nimport \"@openzeppelin/contracts/token/ERC20/ERC20.sol\";\n\n\n// ignore-file-swc-108\n\n\ncontract CoinMachine is Ownable, Math {\n  receive() external payable {}\n\n  // Events\n\n  event CoinMachineInitialised();\n  event TokensBought(address buyer, uint256 numTokens, uint256 totalCost);\n  event PeriodUpdated(uint256 activePeriod, uint256 currentPeriod);\n  event PriceEvolutionSet(bool evolvePrice);\n  event BeneficiarySet(address beneficiary);\n  event CoinMachineStateSet(CoinMachineState state);\n\n  // Datatypes\n\n   enum CoinMachineState { Active, Paused, Stopped }\n\n  // Storage\n\n  address payable public factory; // The coin machine factory address\n  uint256 public feeFraction; // The fraction defining the sale fee\n  CoinMachineState public state; // The state of the coin machine\n\n  address public token; // The token we are selling\n  address public purchaseToken; // The token in which we receive payments, 0x0 for eth\n  address payable public beneficiary; // Address to receive sale proceeds\n\n  uint256 public startTime; // Timestamp to begin the sale\n  uint256 public endTime; // Timestamp to end the sale\n\n  uint256 public periodLength; // Duration of a sale period in seconds (e.g. 3600 = 1 hour)\n  uint256 public alpha; // WAD-denominated float between 0 and 1 that controls how quickly the EMA adjusts\n\n  uint256 public targetPerPeriod; // Target number of tokens to sell in a period\n  uint256 public maxPerPeriod; // Maximum number of tokens sellable in a period\n\n  uint256 public activePeriod; // The active sale period\n  uint256 public activePrice; // The active sale price (a WAD ratio of averageIntake / targetPerPeriod)\n\n  uint256 public activeSold; // Tokens sold in the active period\n  uint256 public activeIntake; // Payment received in the active period\n\n  uint256 public emaIntake; // Averaged payment intake\n  bool public evolvePrice; // If we should evolve the price or not\n\n  address public whitelist; // Address of an optional whitelist\n\n  uint256 public minPurchaseFraction; // Minimum percent of supply a user can buy (in WADs)\n  uint256 public userLimitFraction; // Limit an address can buy of the total supply (in WADs)\n  uint256 soldTotalPastPeriods; // Total tokens sold by the coin machine, excluding current period\n  mapping(address => uint256) public soldUser; // Tokens sold to a particular user\n\n  uint256 totalIntakePastPeriods; // Total amount of purchaseToken we have received, excluding current period\n  uint256 public intakeCap; // Maximum amount of purchaseToken we wish to recieve\n\n  bool public stoppable; // Whether the sale can be paused/stopped\n\n  // Constructor\n\n  constructor(address _owner, uint256 _feeFraction) {\n    factory = payable(msg.sender);\n    feeFraction = _feeFraction;\n    startTime = type(uint256).max;\n    transferOwnership(_owner);\n  }\n\n  // Owner\n\n  /// @notice Must be called before any sales can be made\n  /// @param _tokens The tokens we are selling and buying. Use 0x0 to buy Ether\n  /// @param _times The times to start and end the sale\n  /// @param _periodLength How long in seconds each period of the sale should last\n  /// @param _windowSize Characteristic number of periods that should be used for the moving average. In the long-term, 86% of the weighting will be in this window size. The higher the number, the slower the price will be to adjust\n  /// @param _targets The target and maximum number of tokens to sell per period\n  /// @param _limits The maximum and minimum amount of tokens a user can purchase (as percent of total sold)\n  /// @param _startingPrice The sale price to start at, expressed in units of _purchaseToken per token being sold, as a WAD\n  /// @param _intakeCap The maximum amount of purchaseToken we wish to receive\n  /// @param _stoppable Whether or not the sale can be paused or stopped prior to completion\n  /// @param _beneficiary Address (payable) to send sale proceeds\n  /// @param _whitelist Address of an optional whitelist\n  function initialise(\n    address[2] memory _tokens,\n    uint256[2] memory _times,\n    uint256 _periodLength,\n    uint256 _windowSize,\n    uint256[2] memory _targets,\n    uint256[] memory _limits,\n    uint256 _startingPrice,\n    uint256 _intakeCap,\n    bool _stoppable,\n    address payable _beneficiary,\n    address _whitelist\n  )\n    external\n    onlyOwner\n  {\n    require(block.timestamp < startTime, \"coin-machine-sale-begun\");\n\n    require(_tokens[0] != address(0x0), \"coin-machine-invalid-token\");\n    require(_periodLength > 0, \"coin-machine-period-too-small\");\n    require(_windowSize > 0, \"coin-machine-window-too-small\");\n    require(_windowSize <= 512, \"coin-machine-window-too-large\");\n    require(_targets[0] > 0, \"coin-machine-target-too-small\");\n    require(_targets[0] <= _targets[1], \"coin-machine-max-too-small\");\n    require(_limits[0] <= WAD, \"coin-machine-limit-too-large\");\n    require(_limits[0] > 0, \"coin-machine-limit-too-small\");\n    require(_limits[0] >= _limits[1], \"coin-machine-limits-inconsistent\");\n    require(_intakeCap <= type(uint128).max, \"coin-machine-cap-too-big\");\n\n    token = _tokens[0];\n    purchaseToken = _tokens[1];\n\n    startTime = (_times[0] == 0) ? block.timestamp : _times[0];\n    endTime = (_times[1] == 0) ? startTime + 180 days : _times[1];\n    require(block.timestamp <= startTime, \"coin-machine-bad-start-time\");\n    require(startTime < endTime, \"coin-machine-bad-end-time\");\n\n    periodLength = _periodLength;\n    alpha = wdiv(2, _windowSize + 1); // Two ints enter, 1 WAD leaves\n    // In the long-term, 86% of the weighting will be in this window size. This is a 'standard' conversion\n    // used between SMAs and EMAs, as the center of mass of the weightings is the same if this is used.\n\n    targetPerPeriod = _targets[0];\n    maxPerPeriod = _targets[1];\n\n    userLimitFraction = _limits[0];\n    minPurchaseFraction = _limits[1];\n\n    activePrice = _startingPrice;\n    emaIntake = wmul(targetPerPeriod, _startingPrice);\n\n    intakeCap = _intakeCap;\n    stoppable = _stoppable;\n\n    setBeneficiary(_beneficiary);\n    whitelist = _whitelist; // 0x0 if no whitelist is being used\n\n    setCoinMachineState(CoinMachineState.Active);\n    setPriceEvolution(getTokenBalance() > 0);\n\n    emit CoinMachineInitialised();\n  }\n\n  /// @notice Pause the coin machine if active\n  function pause() external onlyOwner {\n    require(stoppable, \"coin-machine-not-stoppable\");\n    require(state == CoinMachineState.Active, \"coin-machine-not-active\");\n    setPriceEvolution(false);\n    setCoinMachineState(CoinMachineState.Paused);\n  }\n\n  /// @notice Unpause the coin machine if paused\n  function unpause() external onlyOwner {\n    require(state == CoinMachineState.Paused, \"coin-machine-not-paused\");\n    setCoinMachineState(CoinMachineState.Active);\n    updatePeriod();\n  }\n\n  /// @notice Stop the coin machine (cannot be undone)\n  function stop() external onlyOwner {\n    require(stoppable, \"coin-machine-not-stoppable\");\n    require(state != CoinMachineState.Stopped, \"coin-machine-already-stopped\");\n    require(\n      state == CoinMachineState.Active ||state == CoinMachineState.Paused,\n      \"coin-machine-not-active-or-paused\"\n    );\n\n    setPriceEvolution(false);\n    setCoinMachineState(CoinMachineState.Stopped);\n  }\n\n  /// @notice Set the beneficiary address\n  /// @param _beneficiary The beneficiary to receive sale proceeds\n  function setBeneficiary(address payable _beneficiary) public onlyOwner {\n    require(_beneficiary != address(0x0), \"coin-machine-bad-beneficiary\");\n    beneficiary = _beneficiary;\n\n    emit BeneficiarySet(_beneficiary);\n  }\n\n  // Public\n\n  /// @notice Purchase tokens from Coin Machine.\n  /// @param _numTokens The number of tokens to purchase\n  function buyTokens(uint256 _numTokens) external payable {\n    require(startTime <= block.timestamp, \"coin-machine-sale-not-begun\");\n    require(block.timestamp < endTime, \"coin-machine-sale-over\");\n    require(isActive(), \"coin-machine-not-active\");\n\n    updatePeriod();\n\n    require(\n      whitelist == address(0x0) || Whitelist(whitelist).isApproved(msg.sender),\n      \"coin-machine-unauthorised\"\n    );\n\n    uint256 maxPurchase = getMaxPurchase(msg.sender);\n    uint256 numTokens = min(maxPurchase, _numTokens);\n\n    if (numTokens <= 0) {\n      if (msg.value > 0) { payable(msg.sender).transfer(msg.value); } // Refund any balance\n      return;\n    }\n\n    uint256 totalCost = wmul(numTokens, activePrice);\n    activeIntake += totalCost;\n\n    // Do userLimitFraction bookkeeping (only if needed)\n    if (userLimitFraction < WAD || minPurchaseFraction > 0) {\n      uint256 minPurchase = getMinPurchase();\n      soldUser[msg.sender] += numTokens;\n      require(soldUser[msg.sender] >= minPurchase, \"coin-machine-purchase-too-small\");\n    }\n\n    activeSold += numTokens;\n    assert(getTotalIntake() <= intakeCap);\n    assert(activeSold <= maxPerPeriod);\n\n    // Check if we've sold out\n    if (numTokens >= getTokenBalance()) { setPriceEvolution(false); }\n\n    uint256 fee = wmul(totalCost, feeFraction);\n\n    if (purchaseToken == address(0x0)) {\n      require(msg.value >= totalCost, \"coin-machine-insufficient-funds\");\n      if (msg.value > totalCost) { payable(msg.sender).transfer(msg.value - totalCost); } // Refund any balance\n      factory.transfer(fee);\n      beneficiary.transfer(totalCost - fee);\n    } else {\n      require(ERC20(purchaseToken).transferFrom(msg.sender, factory, fee), \"coin-machine-purchase-failed\");\n      require(ERC20(purchaseToken).transferFrom(msg.sender, beneficiary, totalCost - fee), \"coin-machine-purchase-failed\");\n    }\n\n    require(ERC20(token).transfer(msg.sender, numTokens), \"coin-machine-transfer-failed\");\n\n    // slither-disable-next-line reentrancy-unlimited-gas\n    emit TokensBought(msg.sender, numTokens, totalCost);\n  }\n\n  function withdraw() external {\n    require(endTime < block.timestamp || state == CoinMachineState.Stopped, \"coin-machine-sale-not-over\");\n    require(ERC20(token).transfer(beneficiary, getTokenBalance()), \"coin-machine-withdraw-failed\");\n  }\n\n  /// @notice Bring the token accounting current\n  function updatePeriod() public {\n    uint256 currentPeriod = getCurrentPeriod();\n\n    assert(activePeriod <= currentPeriod);\n\n    if (activePeriod < currentPeriod) {\n      uint256 initialActivePeriod = activePeriod;\n\n      // If we're out of tokens or deprecated, don't update the price\n      if (!evolvePrice) {\n        setPriceEvolution(getTokenBalance() > 0 && isActive());\n      } else {\n        emaIntake = wmul((WAD - alpha), emaIntake) + wmul(alpha, activeIntake); // wmul(wad, int) => int\n\n        // Handle any additional missed periods\n        uint256 periodGap = currentPeriod - initialActivePeriod - 1;\n        if (periodGap != 0) {\n          emaIntake = wmul(wpow((WAD - alpha), periodGap), emaIntake);\n        }\n\n        // Update the price\n        activePrice = wdiv(emaIntake, targetPerPeriod);\n      }\n\n      // Update the global counters\n      totalIntakePastPeriods += activeIntake;\n      soldTotalPastPeriods += activeSold;\n\n      // Set the new active period params\n      activePeriod = currentPeriod;\n      activeIntake = 0;\n      activeSold = 0;\n\n      emit PeriodUpdated(initialActivePeriod, currentPeriod);\n    }\n  }\n\n  // View\n\n  /// @notice Get the current price per token\n  function getCurrentPrice() public view returns (uint256) {\n    uint256 currentPeriod = getCurrentPeriod();\n\n    if (activePeriod >= currentPeriod || !evolvePrice) {\n      return activePrice;\n\n    // Otherwise, infer the new price\n    } else {\n      uint256 newIntake = emaIntake;\n\n      // Accommodate the activePeriod\n      newIntake = wmul((WAD - alpha), newIntake) + wmul(alpha, activeIntake);\n\n      // Accommodate periods between the activePeriod and the currentPeriod\n      uint256 periodGap = currentPeriod - activePeriod - 1;\n      if (periodGap != 0) {\n        newIntake = wmul(wpow((WAD - alpha), periodGap), newIntake);\n      }\n\n      return wdiv(newIntake, targetPerPeriod);\n    }\n  }\n\n  /// @notice Get the remaining balance of tokens\n  function getTokenBalance() public view returns (uint256) {\n    return ERC20(token).balanceOf(address(this));\n  }\n\n  /// @notice Get the number of remaining tokens for sale this period\n  function getSellableTokens() public view returns (uint256) {\n    return min(\n      maxPerPeriod - ((activePeriod >= getCurrentPeriod()) ? activeSold : 0),\n      wdiv(intakeCap - getTotalIntake(), getCurrentPrice()) // Get number of tokens we can sell before we hit the cap\n    );\n  }\n\n  /// @notice Get the minimum amount of tokens a user can purchase\n  function getMinPurchase() public view returns (uint256) {\n    return wmul(minPurchaseFraction, getSoldTotal() + getTokenBalance());\n  }\n\n  /// @notice Get the maximum amount of tokens a user can purchase in a period\n  function getMaxPurchase(address _user) public view returns (uint256) {\n    uint256 tokenBalance = getTokenBalance();\n    uint256 sellableTokens = getSellableTokens();\n    uint256 userLimit = getUserLimit(_user);\n    return min(userLimit, min(tokenBalance, sellableTokens));\n  }\n\n  /// @notice Get the maximum amount of tokens a user can purchase in total\n  function getUserLimit(address _user) public view returns (uint256) {\n    return\n      (userLimitFraction == WAD || whitelist == address(0x0)) ?\n      type(uint256).max :\n      wmul(getTokenBalance() + getSoldTotal(), userLimitFraction) - soldUser[_user]\n    ;\n  }\n\n  /// @notice Get the total amount of purchaseToken received so far\n  function getTotalIntake() public view returns (uint256) {\n    return totalIntakePastPeriods + activeIntake;\n  }\n\n  /// @notice Get the total amount of token sold so far\n  function getSoldTotal() public view returns (uint256) {\n    return soldTotalPastPeriods + activeSold;\n  }\n\n  /// @notice Get the current period based on block.timestamp\n  function getCurrentPeriod() public view returns (uint256) {\n    return (max(block.timestamp, startTime) - startTime) / periodLength;\n  }\n\n  // Internal\n\n  function setCoinMachineState(CoinMachineState _state) internal {\n    state = _state;\n\n    emit CoinMachineStateSet(_state);\n  }\n\n  function isActive() internal view returns (bool) {\n    return state == CoinMachineState.Active;\n  }\n\n  function setPriceEvolution(bool _status) internal {\n    if (_status != evolvePrice) {\n      evolvePrice = _status;\n\n      emit PriceEvolutionSet(_status);\n    }\n  }\n}\n",
  "sourcePath": "/Users/alicjakujawa/coinMachine/contracts/contracts/CoinMachine.sol",
  "compiler": {
    "name": "solc",
    "version": "0.8.17+commit.8df45f5f.Emscripten.clang"
  },
  "schemaVersion": "3.4.7",
  "updatedAt": "2022-11-30T11:27:06.958Z",
  "devdoc": {
    "kind": "dev",
    "methods": {
      "buyTokens(uint256)": {
        "params": {
          "_numTokens": "The number of tokens to purchase"
        }
      },
      "initialise(address[2],uint256[2],uint256,uint256,uint256[2],uint256[],uint256,uint256,bool,address,address)": {
        "params": {
          "_beneficiary": "Address (payable) to send sale proceeds",
          "_intakeCap": "The maximum amount of purchaseToken we wish to receive",
          "_limits": "The maximum and minimum amount of tokens a user can purchase (as percent of total sold)",
          "_periodLength": "How long in seconds each period of the sale should last",
          "_startingPrice": "The sale price to start at, expressed in units of _purchaseToken per token being sold, as a WAD",
          "_stoppable": "Whether or not the sale can be paused or stopped prior to completion",
          "_targets": "The target and maximum number of tokens to sell per period",
          "_times": "The times to start and end the sale",
          "_tokens": "The tokens we are selling and buying. Use 0x0 to buy Ether",
          "_whitelist": "Address of an optional whitelist",
          "_windowSize": "Characteristic number of periods that should be used for the moving average. In the long-term, 86% of the weighting will be in this window size. The higher the number, the slower the price will be to adjust"
        }
      },
      "owner()": {
        "details": "Returns the address of the current owner."
      },
      "renounceOwnership()": {
        "details": "Leaves the contract without owner. It will not be possible to call `onlyOwner` functions anymore. Can only be called by the current owner. NOTE: Renouncing ownership will leave the contract without an owner, thereby removing any functionality that is only available to the owner."
      },
      "setBeneficiary(address)": {
        "params": {
          "_beneficiary": "The beneficiary to receive sale proceeds"
        }
      },
      "transferOwnership(address)": {
        "details": "Transfers ownership of the contract to a new account (`newOwner`). Can only be called by the current owner."
      }
    },
    "version": 1
  },
  "userdoc": {
    "kind": "user",
    "methods": {
      "buyTokens(uint256)": {
        "notice": "Purchase tokens from Coin Machine."
      },
      "getCurrentPeriod()": {
        "notice": "Get the current period based on block.timestamp"
      },
      "getCurrentPrice()": {
        "notice": "Get the current price per token"
      },
      "getMaxPurchase(address)": {
        "notice": "Get the maximum amount of tokens a user can purchase in a period"
      },
      "getMinPurchase()": {
        "notice": "Get the minimum amount of tokens a user can purchase"
      },
      "getSellableTokens()": {
        "notice": "Get the number of remaining tokens for sale this period"
      },
      "getSoldTotal()": {
        "notice": "Get the total amount of token sold so far"
      },
      "getTokenBalance()": {
        "notice": "Get the remaining balance of tokens"
      },
      "getTotalIntake()": {
        "notice": "Get the total amount of purchaseToken received so far"
      },
      "getUserLimit(address)": {
        "notice": "Get the maximum amount of tokens a user can purchase in total"
      },
      "initialise(address[2],uint256[2],uint256,uint256,uint256[2],uint256[],uint256,uint256,bool,address,address)": {
        "notice": "Must be called before any sales can be made"
      },
      "pause()": {
        "notice": "Pause the coin machine if active"
      },
      "setBeneficiary(address)": {
        "notice": "Set the beneficiary address"
      },
      "stop()": {
        "notice": "Stop the coin machine (cannot be undone)"
      },
      "unpause()": {
        "notice": "Unpause the coin machine if paused"
      },
      "updatePeriod()": {
        "notice": "Bring the token accounting current"
      }
    },
    "version": 1
  }
}