{
  "contractName": "CoinMachineFactory",
  "abi": [
    {
      "anonymous": false,
      "inputs": [
        {
          "indexed": false,
          "internalType": "bytes32",
          "name": "agreementHash",
          "type": "bytes32"
        }
      ],
      "name": "AgreementHashSet",
      "type": "event"
    },
    {
      "anonymous": false,
      "inputs": [
        {
          "indexed": true,
          "internalType": "address",
          "name": "owner",
          "type": "address"
        },
        {
          "indexed": false,
          "internalType": "bytes32",
          "name": "agreementHash",
          "type": "bytes32"
        },
        {
          "indexed": false,
          "internalType": "address",
          "name": "coinMachine",
          "type": "address"
        }
      ],
      "name": "CoinMachineDeployed",
      "type": "event"
    },
    {
      "anonymous": false,
      "inputs": [
        {
          "indexed": false,
          "internalType": "uint256",
          "name": "feeFraction",
          "type": "uint256"
        }
      ],
      "name": "FeeFractionSet",
      "type": "event"
    },
    {
      "anonymous": false,
      "inputs": [
        {
          "indexed": true,
          "internalType": "address",
          "name": "authority",
          "type": "address"
        }
      ],
      "name": "LogSetAuthority",
      "type": "event"
    },
    {
      "anonymous": false,
      "inputs": [
        {
          "indexed": true,
          "internalType": "address",
          "name": "owner",
          "type": "address"
        }
      ],
      "name": "LogSetOwner",
      "type": "event"
    },
    {
      "anonymous": false,
      "inputs": [
        {
          "indexed": true,
          "internalType": "address",
          "name": "owner",
          "type": "address"
        },
        {
          "indexed": false,
          "internalType": "address",
          "name": "whitelist",
          "type": "address"
        }
      ],
      "name": "WhitelistDeployed",
      "type": "event"
    },
    {
      "stateMutability": "payable",
      "type": "fallback",
      "payable": true
    },
    {
      "inputs": [],
      "name": "authority",
      "outputs": [
        {
          "internalType": "contract DSAuthority",
          "name": "",
          "type": "address"
        }
      ],
      "stateMutability": "view",
      "type": "function",
      "constant": true
    },
    {
      "inputs": [],
      "name": "owner",
      "outputs": [
        {
          "internalType": "address",
          "name": "",
          "type": "address"
        }
      ],
      "stateMutability": "view",
      "type": "function",
      "constant": true
    },
    {
      "inputs": [],
      "name": "resolver",
      "outputs": [
        {
          "internalType": "contract Resolver",
          "name": "",
          "type": "address"
        }
      ],
      "stateMutability": "view",
      "type": "function",
      "constant": true
    },
    {
      "inputs": [
        {
          "internalType": "contract DSAuthority",
          "name": "authority_",
          "type": "address"
        }
      ],
      "name": "setAuthority",
      "outputs": [],
      "stateMutability": "nonpayable",
      "type": "function"
    },
    {
      "inputs": [
        {
          "internalType": "address",
          "name": "owner_",
          "type": "address"
        }
      ],
      "name": "setOwner",
      "outputs": [],
      "stateMutability": "nonpayable",
      "type": "function"
    },
    {
      "inputs": [
        {
          "internalType": "address",
          "name": "_resolver",
          "type": "address"
        }
      ],
      "name": "setResolver",
      "outputs": [],
      "stateMutability": "nonpayable",
      "type": "function"
    },
    {
      "inputs": [
        {
          "internalType": "bytes32",
          "name": "_agreementHash",
          "type": "bytes32"
        }
      ],
      "name": "deployCoinMachine",
      "outputs": [],
      "stateMutability": "nonpayable",
      "type": "function"
    },
    {
      "inputs": [],
      "name": "deployWhitelist",
      "outputs": [],
      "stateMutability": "nonpayable",
      "type": "function"
    },
    {
      "inputs": [],
      "name": "getAgreementHash",
      "outputs": [
        {
          "internalType": "bytes32",
          "name": "",
          "type": "bytes32"
        }
      ],
      "stateMutability": "view",
      "type": "function",
      "constant": true
    },
    {
      "inputs": [],
      "name": "getFeeFraction",
      "outputs": [
        {
          "internalType": "uint256",
          "name": "",
          "type": "uint256"
        }
      ],
      "stateMutability": "view",
      "type": "function",
      "constant": true
    },
    {
      "inputs": [
        {
          "internalType": "bytes32",
          "name": "_agreementHash",
          "type": "bytes32"
        }
      ],
      "name": "setAgreementHash",
      "outputs": [],
      "stateMutability": "nonpayable",
      "type": "function"
    },
    {
      "inputs": [
        {
          "internalType": "uint256",
          "name": "_feeFraction",
          "type": "uint256"
        }
      ],
      "name": "setFeeFraction",
      "outputs": [],
      "stateMutability": "nonpayable",
      "type": "function"
    },
    {
      "inputs": [
        {
          "internalType": "address",
          "name": "_token",
          "type": "address"
        }
      ],
      "name": "withdraw",
      "outputs": [],
      "stateMutability": "nonpayable",
      "type": "function"
    }
  ],
  "bytecode": "0x608060405234801561001057600080fd5b50600180546001600160a01b031916339081179091556040517fce241d7ca1f669fee44b6fc00b8eba2df3bb514eed0f6f668f8f89096e81ed9490600090a26142fd8061005e6000396000f3fe608060405260043610620000d45760003560e01c80634e543b26116200008b5780637a9e5e4b11620000615780637a9e5e4b14620002f05780638da5cb5b146200031557806396208e5d1462000337578063bf7e214f146200035c57620000d4565b80634e543b26146200028f57806351cff8d914620002b4578063696da92114620002d957620000d4565b806301e1d36114620001a857806304f3bcec14620001c057806313af403514620001ff57806320ddf6c4146200022457806325ea8ab814620002495780634661bdc1146200026a575b600080356001600160e01b0319169003620000eb57005b6002546040516337b4746960e11b8152600080356001600160e01b0319166004830152916001600160a01b031690636f68e8d290602401602060405180830381865afa15801562000140573d6000803e3d6000fd5b505050506040513d601f19601f8201168201806040525081019062000166919062000a09565b9050803b806200017557600080fd5b5036600060405137600060405136604051845af43d60006040513e8060018114620001a0573d604051fd5b3d604051f35b005b348015620001b557600080fd5b50620001a66200037e565b348015620001cd57600080fd5b50600254620001e2906001600160a01b031681565b6040516001600160a01b0390911681526020015b60405180910390f35b3480156200020c57600080fd5b50620001a66200021e36600462000a30565b620003f0565b3480156200023157600080fd5b50620001a66200024336600462000a50565b6200047a565b3480156200025657600080fd5b506004545b604051908152602001620001f6565b3480156200027757600080fd5b50620001a66200028936600462000a50565b62000547565b3480156200029c57600080fd5b50620001a6620002ae36600462000a30565b62000636565b348015620002c157600080fd5b50620001a6620002d336600462000a30565b6200068f565b348015620002e657600080fd5b506003546200025b565b348015620002fd57600080fd5b50620001a66200030f36600462000a30565b62000802565b3480156200032257600080fd5b50600154620001e2906001600160a01b031681565b3480156200034457600080fd5b50620001a66200035636600462000a50565b62000881565b3480156200036957600080fd5b50600054620001e2906001600160a01b031681565b60006040516200038e90620009d4565b604051809103906000f080158015620003ab573d6000803e3d6000fd5b506040516001600160a01b038216815290915033907f89e160c603b67f87acccbdf7bbba001af95153b8685cef7558276d07f1d547499060200160405180910390a250565b62000408336000356001600160e01b031916620008ee565b620004305760405162461bcd60e51b8152600401620004279062000a6a565b60405180910390fd5b600180546001600160a01b0319166001600160a01b0383169081179091556040517fce241d7ca1f669fee44b6fc00b8eba2df3bb514eed0f6f668f8f89096e81ed9490600090a250565b62000492336000356001600160e01b031916620008ee565b620004b15760405162461bcd60e51b8152600401620004279062000a6a565b670de0b6b3a76400008111156200050b5760405162461bcd60e51b815260206004820152601860248201527f666163746f72792d696e76616c69642d6672616374696f6e0000000000000000604482015260640162000427565b60048190556040518181527f842d79c6cbd40c7e0a733544e66121cf0197ff6c5990d5d2db7d8fd274c8eecb906020015b60405180910390a150565b8060035414620005a55760405162461bcd60e51b815260206004820152602260248201527f636f696e2d6d616368696e652d666163746f72792d6261642d7369676e617475604482015261726560f01b606482015260840162000427565b600033600454604051620005b990620009e2565b6001600160a01b0390921682526020820152604001604051809103906000f080158015620005eb573d6000803e3d6000fd5b50604080518481526001600160a01b038316602082015291925033917fa86047e186cb70ffc8978159a67423a695acd855307dce8584e1efe07f16c57f910160405180910390a25050565b6200064e336000356001600160e01b031916620008ee565b6200066d5760405162461bcd60e51b8152600401620004279062000a6a565b600280546001600160a01b0319166001600160a01b0392909216919091179055565b620006a7336000356001600160e01b031916620008ee565b620006c65760405162461bcd60e51b8152600401620004279062000a6a565b6040516370a0823160e01b81523060048201526000906001600160a01b038316906370a0823190602401602060405180830381865afa1580156200070e573d6000803e3d6000fd5b505050506040513d601f19601f8201168201806040525081019062000734919062000a98565b60015460405163a9059cbb60e01b81526001600160a01b0391821660048201526024810183905291925083169063a9059cbb906044016020604051808303816000875af11580156200078a573d6000803e3d6000fd5b505050506040513d601f19601f82011682018060405250810190620007b0919062000ab2565b620007fe5760405162461bcd60e51b815260206004820152601760248201527f666163746f72792d7472616e736665722d6661696c6564000000000000000000604482015260640162000427565b5050565b6200081a336000356001600160e01b031916620008ee565b620008395760405162461bcd60e51b8152600401620004279062000a6a565b600080546001600160a01b0319166001600160a01b038316908117825560405190917f1abebea81bfa2637f28358c371278fb15ede7ea8dd28d2e03b112ff6d936ada491a250565b62000899336000356001600160e01b031916620008ee565b620008b85760405162461bcd60e51b8152600401620004279062000a6a565b60038190556040518181527fc5d54bb3985a3e542a5f468d8cfbca942ce13901ecd79a60f60d004215eb6e09906020016200053c565b6000306001600160a01b038416036200090a57506001620009ce565b6001546001600160a01b03908116908416036200092a57506001620009ce565b6000546001600160a01b03166200094457506000620009ce565b60005460405163b700961360e01b81526001600160a01b0385811660048301523060248301526001600160e01b0319851660448301529091169063b700961390606401602060405180830381865afa158015620009a5573d6000803e3d6000fd5b505050506040513d601f19601f82011682018060405250810190620009cb919062000ab2565b90505b92915050565b610f1d8062000ad783390190565b6128d480620019f483390190565b6001600160a01b038116811462000a0657600080fd5b50565b60006020828403121562000a1c57600080fd5b815162000a2981620009f0565b9392505050565b60006020828403121562000a4357600080fd5b813562000a2981620009f0565b60006020828403121562000a6357600080fd5b5035919050565b602080825260149082015273191ccb585d5d1a0b5d5b985d5d1a1bdc9a5e995960621b604082015260600190565b60006020828403121562000aab57600080fd5b5051919050565b60006020828403121562000ac557600080fd5b8151801515811462000a2957600080fdfe608060405234801561001057600080fd5b50600180546001600160a01b031916339081179091556040517fce241d7ca1f669fee44b6fc00b8eba2df3bb514eed0f6f668f8f89096e81ed9490600090a2610ebf8061005e6000396000f3fe608060405234801561001057600080fd5b50600436106100b45760003560e01c80637a9e5e4b116100715780637a9e5e4b146101625780638da5cb5b14610175578063a11c1d51146101a0578063a3087860146101b3578063bf7e214f146101c6578063da076a87146101d957600080fd5b80630ab55d0b146100b957806313af4035146100d75780631ad044cb146100ec5780631bbfb00914610110578063277fc0e914610123578063673448dd1461014f575b600080fd5b6100c1610205565b6040516100ce9190610a7c565b60405180910390f35b6100ea6100e5366004610aae565b610293565b005b60015461010090600160a01b900460ff1681565b60405190151581526020016100ce565b6100ea61011e366004610b2b565b61033b565b610100610131366004610aae565b6001600160a01b031660009081526004602052604090205460ff1690565b61010061015d366004610aae565b6104a6565b6100ea610170366004610aae565b61055e565b600154610188906001600160a01b031681565b6040516001600160a01b0390911681526020016100ce565b6100ea6101ae366004610c5f565b6105ff565b6100ea6101c1366004610c9c565b610777565b600054610188906001600160a01b031681565b6101006101e7366004610aae565b6001600160a01b031660009081526003602052604090205460ff1690565b6002805461021290610cec565b80601f016020809104026020016040519081016040528092919081815260200182805461023e90610cec565b801561028b5780601f106102605761010080835404028352916020019161028b565b820191906000526020600020905b81548152906001019060200180831161026e57829003601f168201915b505050505081565b6102a9336000356001600160e01b0319166108aa565b6102f15760405162461bcd60e51b8152602060048201526014602482015273191ccb585d5d1a0b5d5b985d5d1a1bdc9a5e995960621b60448201526064015b60405180910390fd5b600180546001600160a01b0319166001600160a01b0383169081179091556040517fce241d7ca1f669fee44b6fc00b8eba2df3bb514eed0f6f668f8f89096e81ed9490600090a250565b600154600160a01b900460ff1680610361575060006002805461035d90610cec565b9050115b61037d5760405162461bcd60e51b81526004016102e890610d26565b600154600160a01b900460ff166103cf5760405162461bcd60e51b815260206004820152601660248201527577686974656c6973742d6e6f2d617070726f76616c7360501b60448201526064016102e8565b60005b82518110156104a15781600360008584815181106103f2576103f2610d5d565b60200260200101516001600160a01b03166001600160a01b0316815260200190815260200160002060006101000a81548160ff02191690831515021790555082818151811061044357610443610d5d565b60200260200101516001600160a01b03167f60dc44a8ff6f8c563265a9654c756ef7d51cb49658531b2c735ef754c74e8a3483604051610487911515815260200190565b60405180910390a28061049981610d73565b9150506103d2565b505050565b600154600090600160a01b900460ff16806104cf57506000600280546104cb90610cec565b9050115b6104eb5760405162461bcd60e51b81526004016102e890610d26565b600154600160a01b900460ff16158061051c57506001600160a01b03821660009081526003602052604090205460ff165b801561055657506002805461053090610cec565b1590508061055657506001600160a01b03821660009081526004602052604090205460ff165b90505b919050565b610574336000356001600160e01b0319166108aa565b6105b75760405162461bcd60e51b8152602060048201526014602482015273191ccb585d5d1a0b5d5b985d5d1a1bdc9a5e995960621b60448201526064016102e8565b600080546001600160a01b0319166001600160a01b038316908117825560405190917f1abebea81bfa2637f28358c371278fb15ede7ea8dd28d2e03b112ff6d936ada491a250565b600154600160a01b900460ff1680610625575060006002805461062190610cec565b9050115b6106415760405162461bcd60e51b81526004016102e890610d26565b60006002805461065090610cec565b9050116106985760405162461bcd60e51b81526020600482015260166024820152751dda1a5d195b1a5cdd0b5b9bcb5859dc99595b595b9d60521b60448201526064016102e8565b806040516020016106a99190610d9a565b6040516020818303038152906040528051906020012060026040516020016106d19190610db6565b60405160208183030381529060405280519060200120146107345760405162461bcd60e51b815260206004820152601760248201527f77686974656c6973742d6261642d7369676e617475726500000000000000000060448201526064016102e8565b33600081815260046020526040808220805460ff19166001179055517f5cca47fc45be2c2c68100afd7cd2431116c0c535c159e4f6c7e63934cf9f7aad9190a250565b600154600160a01b900460ff1615801561079d57506002805461079990610cec565b1590505b6107e95760405162461bcd60e51b815260206004820152601d60248201527f77686974656c6973742d616c72656164792d696e697469616c6973656400000060448201526064016102e8565b81806107f6575060008151115b6108425760405162461bcd60e51b815260206004820152601c60248201527f77686974656c6973742d6261642d696e697469616c69736174696f6e0000000060448201526064016102e8565b6001805460ff60a01b1916600160a01b84151502179055805161086c906002906020840190610987565b507f408642aecc5365a31834392dc28a804b59d142d525d5c2fadbca335e00324da7828260405161089e929190610e51565b60405180910390a15050565b6000306001600160a01b038416036108c457506001610981565b6001546001600160a01b03908116908416036108e257506001610981565b6000546001600160a01b03166108fa57506000610981565b60005460405163b700961360e01b81526001600160a01b0385811660048301523060248301526001600160e01b0319851660448301529091169063b700961390606401602060405180830381865afa15801561095a573d6000803e3d6000fd5b505050506040513d601f19601f8201168201806040525081019061097e9190610e6c565b90505b92915050565b82805461099390610cec565b90600052602060002090601f0160209004810192826109b557600085556109fb565b82601f106109ce57805160ff19168380011785556109fb565b828001600101855582156109fb579182015b828111156109fb5782518255916020019190600101906109e0565b50610a07929150610a0b565b5090565b5b80821115610a075760008155600101610a0c565b60005b83811015610a3b578181015183820152602001610a23565b83811115610a4a576000848401525b50505050565b60008151808452610a68816020860160208601610a20565b601f01601f19169290920160200192915050565b602081526000610a8f6020830184610a50565b9392505050565b6001600160a01b0381168114610aab57600080fd5b50565b600060208284031215610ac057600080fd5b8135610a8f81610a96565b634e487b7160e01b600052604160045260246000fd5b604051601f8201601f1916810167ffffffffffffffff81118282101715610b0a57610b0a610acb565b604052919050565b8015158114610aab57600080fd5b803561055981610b12565b60008060408385031215610b3e57600080fd5b823567ffffffffffffffff80821115610b5657600080fd5b818501915085601f830112610b6a57600080fd5b8135602082821115610b7e57610b7e610acb565b8160051b9250610b8f818401610ae1565b8281529284018101928181019089851115610ba957600080fd5b948201945b84861015610bd35785359350610bc384610a96565b8382529482019490820190610bae565b9650610be29050878201610b20565b9450505050509250929050565b600082601f830112610c0057600080fd5b813567ffffffffffffffff811115610c1a57610c1a610acb565b610c2d601f8201601f1916602001610ae1565b818152846020838601011115610c4257600080fd5b816020850160208301376000918101602001919091529392505050565b600060208284031215610c7157600080fd5b813567ffffffffffffffff811115610c8857600080fd5b610c9484828501610bef565b949350505050565b60008060408385031215610caf57600080fd5b8235610cba81610b12565b9150602083013567ffffffffffffffff811115610cd657600080fd5b610ce285828601610bef565b9150509250929050565b600181811c90821680610d0057607f821691505b602082108103610d2057634e487b7160e01b600052602260045260246000fd5b50919050565b60208082526019908201527f77686974656c6973742d6e6f742d696e697469616c6973656400000000000000604082015260600190565b634e487b7160e01b600052603260045260246000fd5b600060018201610d9357634e487b7160e01b600052601160045260246000fd5b5060010190565b60008251610dac818460208701610a20565b9190910192915050565b600080835481600182811c915080831680610dd257607f831692505b60208084108203610df157634e487b7160e01b86526022600452602486fd5b818015610e055760018114610e1657610e43565b60ff19861689528489019650610e43565b60008a81526020902060005b86811015610e3b5781548b820152908501908301610e22565b505084890196505b509498975050505050505050565b8215158152604060208201526000610c946040830184610a50565b600060208284031215610e7e57600080fd5b8151610a8f81610b1256fea2646970667358221220710fc41cca449635963f7bb9ef9ba84bc1a01c4a2d4e3138400c4db395777e0664736f6c634300080d003360806040523480156200001157600080fd5b50604051620028d4380380620028d4833981016040819052620000349162000219565b600180546001600160a01b03191633908117909155604051600080516020620028b483398151915290600090a2600280546001600160a01b031916331790556003819055600019600755620000898262000091565b505062000280565b620000a9336001600160e01b03196000351662000133565b620000fa5760405162461bcd60e51b815260206004820152601460248201527f64732d617574682d756e617574686f72697a6564000000000000000000000000604482015260640160405180910390fd5b600180546001600160a01b0319166001600160a01b038316908117909155604051600080516020620028b483398151915290600090a250565b6000306001600160a01b038416036200014f5750600162000213565b6001546001600160a01b03908116908416036200016f5750600162000213565b6000546001600160a01b0316620001895750600062000213565b60005460405163b700961360e01b81526001600160a01b0385811660048301523060248301526001600160e01b0319851660448301529091169063b700961390606401602060405180830381865afa158015620001ea573d6000803e3d6000fd5b505050506040513d601f19601f8201168201806040525081019062000210919062000255565b90505b92915050565b600080604083850312156200022d57600080fd5b82516001600160a01b03811681146200024557600080fd5b6020939093015192949293505050565b6000602082840312156200026857600080fd5b815180151581146200027957600080fd5b9392505050565b61262480620002906000396000f3fe6080604052600436106102765760003560e01c8063810226311161014f578063bb4872de116100c1578063d53316b21161007a578063d53316b2146106b0578063db1d0fd5146106c6578063e2f90823146106dc578063e9587e86146106f2578063eb91d37e14610712578063fc0c546a1461072757600080fd5b8063bb4872de14610603578063be0a64a21461061d578063bf7e214f14610633578063c19d93fb14610653578063c45a01551461067a578063d2ca21151461069a57600080fd5b806393e59dc11161011357806393e59dc114610568578063a83627de1461058d578063a95c4d62146105a2578063b497d501146105c2578063b5b2f1ef146105d8578063baa9da15146105ed57600080fd5b806381022631146104de57806382b2e257146104f45780638456cb59146105095780638da5cb5b1461051e57806391cadaf61461053e57600080fd5b80632b96d909116101e85780633f4ba83a116101ac5780633f4ba83a1461045157806348bbbd9c1461046657806352a303841461047c5780635bf8eddd1461049257806378e97925146104a85780637a9e5e4b146104be57600080fd5b80632b96d909146103c55780633197cbb6146103db5780633610724e146103f157806338af3eed146104045780633ccfd60b1461043c57600080fd5b80630f3d88031161023a5780630f3d880314610303578063114f67691461031857806313af403514610338578063148f9314146103585780631c31f710146103785780632869b1281461039857600080fd5b806307da68f514610282578063086146d2146102995780630a441f7b146102c15780630aed1428146102d75780630c707339146102ed57600080fd5b3661027d57005b600080fd5b34801561028e57600080fd5b5061029761074c565b005b3480156102a557600080fd5b506102ae6108e6565b6040519081526020015b60405180910390f35b3480156102cd57600080fd5b506102ae600d5481565b3480156102e357600080fd5b506102ae600c5481565b3480156102f957600080fd5b506102ae60115481565b34801561030f57600080fd5b506102ae610911565b34801561032457600080fd5b506102ae6103333660046121ec565b610931565b34801561034457600080fd5b506102976103533660046121ec565b610973565b34801561036457600080fd5b5061029761037336600461234c565b6109ef565b34801561038457600080fd5b506102976103933660046121ec565b610ffc565b3480156103a457600080fd5b506102ae6103b33660046121ec565b60166020526000908152604090205481565b3480156103d157600080fd5b506102ae600f5481565b3480156103e757600080fd5b506102ae60085481565b6102976103ff366004612465565b611083565b34801561041057600080fd5b50600654610424906001600160a01b031681565b6040516001600160a01b0390911681526020016102b8565b34801561044857600080fd5b506102976117d4565b34801561045d57600080fd5b506102976118db565b34801561047257600080fd5b506102ae60175481565b34801561048857600080fd5b506102ae600e5481565b34801561049e57600080fd5b506102ae60035481565b3480156104b457600080fd5b506102ae60075481565b3480156104ca57600080fd5b506102976104d93660046121ec565b61197d565b3480156104ea57600080fd5b506102ae60105481565b34801561050057600080fd5b506102ae6119f7565b34801561051557600080fd5b50610297611a6d565b34801561052a57600080fd5b50600154610424906001600160a01b031681565b34801561054a57600080fd5b506012546105589060ff1681565b60405190151581526020016102b8565b34801561057457600080fd5b506012546104249061010090046001600160a01b031681565b34801561059957600080fd5b50610297611b65565b3480156105ae57600080fd5b50600554610424906001600160a01b031681565b3480156105ce57600080fd5b506102ae60135481565b3480156105e457600080fd5b506102ae611c8e565b3480156105f957600080fd5b506102ae60155481565b34801561060f57600080fd5b506019546105589060ff1681565b34801561062957600080fd5b506102ae600b5481565b34801561063f57600080fd5b50600054610424906001600160a01b031681565b34801561065f57600080fd5b5060045461066d9060ff1681565b6040516102b89190612494565b34801561068657600080fd5b50600254610424906001600160a01b031681565b3480156106a657600080fd5b506102ae60095481565b3480156106bc57600080fd5b506102ae60185481565b3480156106d257600080fd5b506102ae600a5481565b3480156106e857600080fd5b506102ae60145481565b3480156106fe57600080fd5b506102ae61070d3660046121ec565b611cd2565b34801561071e57600080fd5b506102ae611d4c565b34801561073357600080fd5b506004546104249061010090046001600160a01b031681565b610762336000356001600160e01b031916611e0f565b6107875760405162461bcd60e51b815260040161077e906124bc565b60405180910390fd5b60195460ff166107d95760405162461bcd60e51b815260206004820152601a60248201527f636f696e2d6d616368696e652d6e6f742d73746f707061626c65000000000000604482015260640161077e565b600260045460ff1660028111156107f2576107f261247e565b0361083f5760405162461bcd60e51b815260206004820152601c60248201527f636f696e2d6d616368696e652d616c72656164792d73746f7070656400000000604482015260640161077e565b600060045460ff1660028111156108585761085861247e565b148061087a5750600160045460ff1660028111156108785761087861247e565b145b6108d05760405162461bcd60e51b815260206004820152602160248201527f636f696e2d6d616368696e652d6e6f742d6163746976652d6f722d70617573656044820152601960fa1b606482015260840161077e565b6108da6000611eea565b6108e46002611f3b565b565b60006009546109026108fa42600754611f8e565b600754611fa5565b61090c9190612516565b905090565b600061090c60135461092c6015546109276119f7565b611ffb565b612050565b60008061093c6119f7565b90506000610948611c8e565b9050600061095585611cd2565b905061096a81610965858561206f565b61206f565b95945050505050565b610989336000356001600160e01b031916611e0f565b6109a55760405162461bcd60e51b815260040161077e906124bc565b600180546001600160a01b0319166001600160a01b0383169081179091556040517fce241d7ca1f669fee44b6fc00b8eba2df3bb514eed0f6f668f8f89096e81ed9490600090a250565b610a05336000356001600160e01b031916611e0f565b610a215760405162461bcd60e51b815260040161077e906124bc565b6007544210610a725760405162461bcd60e51b815260206004820152601760248201527f636f696e2d6d616368696e652d73616c652d626567756e000000000000000000604482015260640161077e565b8a516001600160a01b0316610ac95760405162461bcd60e51b815260206004820152601a60248201527f636f696e2d6d616368696e652d696e76616c69642d746f6b656e000000000000604482015260640161077e565b60008911610b195760405162461bcd60e51b815260206004820152601d60248201527f636f696e2d6d616368696e652d706572696f642d746f6f2d736d616c6c000000604482015260640161077e565b60008811610b695760405162461bcd60e51b815260206004820152601d60248201527f636f696e2d6d616368696e652d77696e646f772d746f6f2d736d616c6c000000604482015260640161077e565b610200881115610bbb5760405162461bcd60e51b815260206004820152601d60248201527f636f696e2d6d616368696e652d77696e646f772d746f6f2d6c61726765000000604482015260640161077e565b8651610c095760405162461bcd60e51b815260206004820152601d60248201527f636f696e2d6d616368696e652d7461726765742d746f6f2d736d616c6c000000604482015260640161077e565b602087015187511115610c5e5760405162461bcd60e51b815260206004820152601a60248201527f636f696e2d6d616368696e652d6d61782d746f6f2d736d616c6c000000000000604482015260640161077e565b670de0b6b3a764000086600081518110610c7a57610c7a61252a565b60200260200101511115610cd05760405162461bcd60e51b815260206004820152601c60248201527f636f696e2d6d616368696e652d6c696d69742d746f6f2d6c6172676500000000604482015260640161077e565b600086600081518110610ce557610ce561252a565b602002602001015111610d3a5760405162461bcd60e51b815260206004820152601c60248201527f636f696e2d6d616368696e652d6c696d69742d746f6f2d736d616c6c00000000604482015260640161077e565b670de0b6b3a764000086600181518110610d5657610d5661252a565b60200260200101511115610dac5760405162461bcd60e51b815260206004820152601c60248201527f636f696e2d6d616368696e652d6c696d69742d746f6f2d6c6172676500000000604482015260640161077e565b6fffffffffffffffffffffffffffffffff841115610e0c5760405162461bcd60e51b815260206004820152601860248201527f636f696e2d6d616368696e652d6361702d746f6f2d6269670000000000000000604482015260640161077e565b8a5160048054610100600160a81b0319166101006001600160a01b039384160217905560208c0151600580549183166001600160a01b0319928316179055600154600680549092169216919091179055895115610e6a578951610e6c565b425b60075560208a015115610e835760208a0151610e87565b6000195b600881905560075410610edc5760405162461bcd60e51b815260206004820152601960248201527f636f696e2d6d616368696e652d6261642d656e642d74696d6500000000000000604482015260640161077e565b6009899055610ef66002610ef18a6001612540565b61207f565b600a558651600b556020870151600c5585518690600090610f1957610f1961252a565b602002602001015160148190555085600181518110610f3a57610f3a61252a565b6020908102919091010151601355600e859055610f556108e6565b600d55600b54610f659086612050565b60115560188490556019805460ff1916841515179055610f8482610ffc565b60128054610100600160a81b0319166101006001600160a01b03841602179055610fc66000610fb16119f7565b118015610fc15750610fc1612094565b611eea565b6040517f8659acc9ee6146ef7e0dcc9851284bd43577098ffbe0119792784129fa0d2eed90600090a15050505050505050505050565b611012336000356001600160e01b031916611e0f565b61102e5760405162461bcd60e51b815260040161077e906124bc565b600680546001600160a01b0319166001600160a01b0383169081179091556040519081527f04d55a8be181fb8d75b76f2d48aa0b2ee40f47e53d6e61763eeeec46feea8a24906020015b60405180910390a150565b61108b612094565b6110d15760405162461bcd60e51b8152602060048201526017602482015276636f696e2d6d616368696e652d6e6f742d61637469766560481b604482015260640161077e565b4260075411156111235760405162461bcd60e51b815260206004820152601b60248201527f636f696e2d6d616368696e652d73616c652d6e6f742d626567756e0000000000604482015260640161077e565b600854421061116d5760405162461bcd60e51b815260206004820152601660248201527531b7b4b716b6b0b1b434b73296b9b0b63296b7bb32b960511b604482015260640161077e565b611175611b65565b60125461010090046001600160a01b031615806111fd575060125460405163673448dd60e01b81523360048201526101009091046001600160a01b03169063673448dd90602401602060405180830381865afa1580156111d9573d6000803e3d6000fd5b505050506040513d601f19601f820116820180604052508101906111fd9190612558565b6112495760405162461bcd60e51b815260206004820152601960248201527f636f696e2d6d616368696e652d756e617574686f726973656400000000000000604482015260640161077e565b600061125433610931565b90506000611262828461206f565b9050600081116112a55734156112a05760405133903480156108fc02916000818181858888f1935050505015801561129e573d6000803e3d6000fd5b505b505050565b60006112b382600e54612050565b90506112c160175482611ffb565b6017556010546112d19082611ffb565b601055600f546112e19083611ffb565b600f8190555060006112f582600354612050565b9050601854601754111561130b5761130b612575565b600c54600f54111561131f5761131f612575565b670de0b6b3a7640000601454108061133957506000601354115b156113d6576000611348610911565b905061135660155485611ffb565b601555336000908152601660205260409020546113739085611ffb565b3360009081526016602052604090208190558111156113d45760405162461bcd60e51b815260206004820152601f60248201527f636f696e2d6d616368696e652d70757263686173652d746f6f2d736d616c6c00604482015260640161077e565b505b6113de6119f7565b83106113ee576113ee6000611eea565b6005546001600160a01b0316611510578134101561144e5760405162461bcd60e51b815260206004820152601f60248201527f636f696e2d6d616368696e652d696e73756666696369656e742d66756e647300604482015260640161077e565b8134111561148e57336108fc611464843461258b565b6040518115909202916000818181858888f1935050505015801561148c573d6000803e3d6000fd5b505b6002546040516001600160a01b039091169082156108fc029083906000818181858888f193505050501580156114c8573d6000803e3d6000fd5b506006546001600160a01b03166108fc6114e28484611fa5565b6040518115909202916000818181858888f1935050505015801561150a573d6000803e3d6000fd5b506116c4565b6005546002546040516323b872dd60e01b81523360048201526001600160a01b039182166024820152604481018490529116906323b872dd906064016020604051808303816000875af115801561156b573d6000803e3d6000fd5b505050506040513d601f19601f8201168201806040525081019061158f9190612558565b6115db5760405162461bcd60e51b815260206004820152601c60248201527f636f696e2d6d616368696e652d70757263686173652d6661696c656400000000604482015260640161077e565b6005546006546001600160a01b03918216916323b872dd913391166116008686611fa5565b6040516001600160e01b031960e086901b1681526001600160a01b03938416600482015292909116602483015260448201526064016020604051808303816000875af1158015611654573d6000803e3d6000fd5b505050506040513d601f19601f820116820180604052508101906116789190612558565b6116c45760405162461bcd60e51b815260206004820152601c60248201527f636f696e2d6d616368696e652d70757263686173652d6661696c656400000000604482015260640161077e565b6004805460405163a9059cbb60e01b815233928101929092526024820185905261010090046001600160a01b03169063a9059cbb906044016020604051808303816000875af115801561171b573d6000803e3d6000fd5b505050506040513d601f19601f8201168201806040525081019061173f9190612558565b61178b5760405162461bcd60e51b815260206004820152601c60248201527f636f696e2d6d616368696e652d7472616e736665722d6661696c656400000000604482015260640161077e565b60408051338152602081018590529081018390527f8442948036198f1146d3a63c3db355d7e0295c2cc5676c755990445da4fdc1c99060600160405180910390a1505050505b50565b4260085410806117fa5750600260045460ff1660028111156117f8576117f861247e565b145b6118465760405162461bcd60e51b815260206004820152601a60248201527f636f696e2d6d616368696e652d73616c652d6e6f742d6f766572000000000000604482015260640161077e565b6004546006546001600160a01b0361010090920482169163a9059cbb911661186c6119f7565b6040516001600160e01b031960e085901b1681526001600160a01b03909216600483015260248201526044016020604051808303816000875af11580156118b7573d6000803e3d6000fd5b505050506040513d601f19601f820116820180604052508101906117d19190612558565b6118f1336000356001600160e01b031916611e0f565b61190d5760405162461bcd60e51b815260040161077e906124bc565b600160045460ff1660028111156119265761192661247e565b146119735760405162461bcd60e51b815260206004820152601760248201527f636f696e2d6d616368696e652d6e6f742d706175736564000000000000000000604482015260640161077e565b6108e46000611f3b565b611993336000356001600160e01b031916611e0f565b6119af5760405162461bcd60e51b815260040161077e906124bc565b600080546001600160a01b0319166001600160a01b038316908117825560405190917f1abebea81bfa2637f28358c371278fb15ede7ea8dd28d2e03b112ff6d936ada491a250565b600480546040516370a0823160e01b815230928101929092526000916101009091046001600160a01b0316906370a0823190602401602060405180830381865afa158015611a49573d6000803e3d6000fd5b505050506040513d601f19601f8201168201806040525081019061090c91906125a2565b611a83336000356001600160e01b031916611e0f565b611a9f5760405162461bcd60e51b815260040161077e906124bc565b60195460ff16611af15760405162461bcd60e51b815260206004820152601a60248201527f636f696e2d6d616368696e652d6e6f742d73746f707061626c65000000000000604482015260640161077e565b600060045460ff166002811115611b0a57611b0a61247e565b14611b515760405162461bcd60e51b8152602060048201526017602482015276636f696e2d6d616368696e652d6e6f742d61637469766560481b604482015260640161077e565b611b5b6000611eea565b6108e46001611f3b565b6000611b6f6108e6565b600d54909150818110611b80575050565b60125460ff16611b9c57600d829055611b9c6000610fb16119f7565b81600d541015611c4757611bb4600a54601054612050565b611bd5600a54670de0b6b3a7640000611bcd919061258b565b601154612050565b611bdf9190612540565b601155600d54600090600190611bf5908561258b565b611bff919061258b565b90508015611c2d57611c29611bcd600a54670de0b6b3a7640000611c23919061258b565b836120b4565b6011555b82600d81905550611c42601154600b5461207f565b600e55505b60006010819055600f5560408051828152602081018490527f5b873fc01d45058fe77f3883a91020f46d5a7385baac6ceab19748d1d0ae464a910160405180910390a15050565b600061090c611cb9600c54611ca16108e6565b600d541015611cb1576000611fa5565b600f54611fa5565b610965611cca601854601754611fa5565b600e5461207f565b6000670de0b6b3a76400006014541480611cfa575060125461010090046001600160a01b0316155b611d4257611d3d611d1f611d17611d0f6119f7565b601554611ffb565b601454612050565b6001600160a01b038416600090815260166020526040902054611fa5565b611d46565b6000195b92915050565b600080611d576108e6565b905080600d54101580611d6d575060125460ff16155b15611d7a575050600e5490565b601154600a54601054611d8d9190612050565b611dac600a54670de0b6b3a7640000611da6919061258b565b83612050565b611db69190612540565b905060006001600d5484611dca919061258b565b611dd4919061258b565b90508015611dfb57611df8611da6600a54670de0b6b3a7640000611c23919061258b565b91505b611e0782600b5461207f565b935050505090565b6000306001600160a01b03841603611e2957506001611d46565b6001546001600160a01b0390811690841603611e4757506001611d46565b6000546001600160a01b0316611e5f57506000611d46565b60005460405163b700961360e01b81526001600160a01b0385811660048301523060248301526001600160e01b0319851660448301529091169063b700961390606401602060405180830381865afa158015611ebf573d6000803e3d6000fd5b505050506040513d601f19601f82011682018060405250810190611ee39190612558565b9392505050565b60125460ff161515811515146117d1576012805460ff19168215159081179091556040519081527f5b4e200daa1a93764a810c35f18f2fcfb14b5e95df6ae7ac1ffdc8eec425babc90602001611078565b6004805482919060ff19166001836002811115611f5a57611f5a61247e565b02179055507fd2d7d26509a0f467151b1957c8c832c751923756862314d6002c201f254b64f6816040516110789190612494565b600081831015611f9e5781611ee3565b5090919050565b600082611fb2838261258b565b9150811115611d465760405162461bcd60e51b815260206004820152601560248201527464732d6d6174682d7375622d756e646572666c6f7760581b604482015260640161077e565b6000826120088382612540565b9150811015611d465760405162461bcd60e51b815260206004820152601460248201527364732d6d6174682d6164642d6f766572666c6f7760601b604482015260640161077e565b6000670de0b6b3a764000061206584846120ce565b611ee39190612516565b600081831115611f9e5781611ee3565b60008161206584670de0b6b3a76400006120ce565b60008060045460ff1660028111156120ae576120ae61247e565b14905090565b6000633b9aca006120656120c885836125bb565b84612135565b60008115806120f2575082826120e481836125bb565b92506120f09083612516565b145b611d465760405162461bcd60e51b815260206004820152601460248201527364732d6d6174682d6d756c2d6f766572666c6f7760601b604482015260640161077e565b60006121426002836125da565b60000361215b576b033b2e3c9fd0803ce800000061215d565b825b905061216a600283612516565b91505b8115611d465761217d83846121ae565b925061218a6002836125da565b1561219c5761219981846121ae565b90505b6121a7600283612516565b915061216d565b60006b033b2e3c9fd0803ce800000061206584846120ce565b6001600160a01b03811681146117d157600080fd5b80356121e7816121c7565b919050565b6000602082840312156121fe57600080fd5b8135611ee3816121c7565b634e487b7160e01b600052604160045260246000fd5b6040805190810167ffffffffffffffff8111828210171561224257612242612209565b60405290565b600082601f83011261225957600080fd5b61226161221f565b80604084018581111561227357600080fd5b845b8181101561228d578035845260209384019301612275565b509095945050505050565b600082601f8301126122a957600080fd5b8135602067ffffffffffffffff808311156122c6576122c6612209565b8260051b604051601f19603f830116810181811084821117156122eb576122eb612209565b60405293845285810183019383810192508785111561230957600080fd5b83870191505b848210156123285781358352918301919083019061230f565b979650505050505050565b80151581146117d157600080fd5b80356121e781612333565b60008060008060008060008060008060006101c08c8e03121561236e57600080fd5b8c601f8d011261237d57600080fd5b61238561221f565b808e60408f01111561239657600080fd5b8d5b60408f018110156123bd576123ad81356121c7565b8035835260209283019201612398565b509b506123cf90508d60408e01612248565b995060808c0135985060a08c013597506123ec8d60c08e01612248565b96506101008c013567ffffffffffffffff81111561240957600080fd5b6124158e828f01612298565b9650506101208c013594506101408c013593506124356101608d01612341565b92506124446101808d016121dc565b91506124536101a08d016121dc565b90509295989b509295989b9093969950565b60006020828403121561247757600080fd5b5035919050565b634e487b7160e01b600052602160045260246000fd5b60208101600383106124b657634e487b7160e01b600052602160045260246000fd5b91905290565b602080825260149082015273191ccb585d5d1a0b5d5b985d5d1a1bdc9a5e995960621b604082015260600190565b634e487b7160e01b600052601260045260246000fd5b634e487b7160e01b600052601160045260246000fd5b600082612525576125256124ea565b500490565b634e487b7160e01b600052603260045260246000fd5b6000821982111561255357612553612500565b500190565b60006020828403121561256a57600080fd5b8151611ee381612333565b634e487b7160e01b600052600160045260246000fd5b60008282101561259d5761259d612500565b500390565b6000602082840312156125b457600080fd5b5051919050565b60008160001904831182151516156125d5576125d5612500565b500290565b6000826125e9576125e96124ea565b50069056fea2646970667358221220f295db15ce92cb22103eb823756c64fa5eddc9e75112592521e023183a5759e964736f6c634300080d0033ce241d7ca1f669fee44b6fc00b8eba2df3bb514eed0f6f668f8f89096e81ed94a264697066735822122090cd62b4d603b2c8a1cab63ec6dc40c259e47aca796893798c17282d1388f94864736f6c634300080d0033",
  "immutableReferences": {},
  "source": "/*\n  This file is part of The Colony Network.\n\n  The Colony Network is free software: you can redistribute it and/or modify\n  it under the terms of the GNU General Public License as published by\n  the Free Software Foundation, either version 3 of the License, or\n  (at your option) any later version.\n\n  The Colony Network is distributed in the hope that it will be useful,\n  but WITHOUT ANY WARRANTY; without even the implied warranty of\n  MERCHANTABILITY or FITNESS FOR A PARTICULAR PURPOSE.  See the\n  GNU General Public License for more details.\n\n  You should have received a copy of the GNU General Public License\n  along with The Colony Network. If not, see <http://www.gnu.org/licenses/>.\n*/\n\npragma solidity 0.8.13;\n\nimport \"../CoinMachine.sol\";\nimport \"../Whitelist.sol\";\nimport \"./CoinMachineFactoryStorage.sol\";\n\n\ncontract CoinMachineFactory is CoinMachineFactoryStorage {\n\n  // Public\n\n  function deployCoinMachine(bytes32 _agreementHash) public {\n    require(agreementHash == _agreementHash, \"coin-machine-factory-bad-signature\");\n\n    CoinMachine coinMachine = new CoinMachine(msg.sender, feeFraction);\n\n    emit CoinMachineDeployed(msg.sender, _agreementHash, address(coinMachine));\n  }\n\n  function deployWhitelist() public {\n    Whitelist whitelist = new Whitelist();\n\n    emit WhitelistDeployed(msg.sender, address(whitelist));\n  }\n\n  // View\n\n  function getAgreementHash() public view returns (bytes32) {\n    return agreementHash;\n  }\n\n  function getFeeFraction() public view returns (uint256) {\n    return feeFraction;\n  }\n\n  // Owner\n\n  function setAgreementHash(bytes32 _agreementHash) public auth {\n    agreementHash = _agreementHash;\n\n    emit AgreementHashSet(_agreementHash);\n  }\n\n  function setFeeFraction(uint256 _feeFraction) public auth {\n    require(_feeFraction <= WAD, \"factory-invalid-fraction\");\n    feeFraction = _feeFraction;\n\n    emit FeeFractionSet(_feeFraction);\n  }\n\n  function withdraw(address _token) public auth {\n    uint256 balance = ERC20(_token).balanceOf(address(this));\n    require(ERC20(_token).transfer(owner, balance), \"factory-transfer-failed\");\n  }\n}\n",
  "sourcePath": "/Users/alicjakujawa/coinMachine/contracts/contracts/factory/CoinMachineFactory.sol",
  "compiler": {
    "name": "solc",
    "version": "0.8.13+commit.abaa5c0e.Emscripten.clang"
  },
  "schemaVersion": "3.4.10",
  "updatedAt": "2022-11-15T09:15:55.289Z",
  "networkType": "ethereum",
  "devdoc": {
    "kind": "dev",
    "methods": {},
    "version": 1
  },
  "userdoc": {
    "kind": "user",
    "methods": {},
    "version": 1
  }
}