{
  "contractName": "CoinMachineFactory",
  "abi": [
    {
      "anonymous": false,
      "inputs": [
        {
          "indexed": false,
          "internalType": "bytes32",
          "name": "agreementHash",
          "type": "bytes32"
        }
      ],
      "name": "AgreementHashSet",
      "type": "event"
    },
    {
      "anonymous": false,
      "inputs": [
        {
          "indexed": true,
          "internalType": "address",
          "name": "owner",
          "type": "address"
        },
        {
          "indexed": false,
          "internalType": "bytes32",
          "name": "agreementHash",
          "type": "bytes32"
        },
        {
          "indexed": false,
          "internalType": "address",
          "name": "coinMachine",
          "type": "address"
        }
      ],
      "name": "CoinMachineDeployed",
      "type": "event"
    },
    {
      "anonymous": false,
      "inputs": [
        {
          "indexed": false,
          "internalType": "uint256",
          "name": "feeFraction",
          "type": "uint256"
        }
      ],
      "name": "FeeFractionSet",
      "type": "event"
    },
    {
      "anonymous": false,
      "inputs": [
        {
          "indexed": true,
          "internalType": "address",
          "name": "previousOwner",
          "type": "address"
        },
        {
          "indexed": true,
          "internalType": "address",
          "name": "newOwner",
          "type": "address"
        }
      ],
      "name": "OwnershipTransferred",
      "type": "event"
    },
    {
      "anonymous": false,
      "inputs": [
        {
          "indexed": true,
          "internalType": "address",
          "name": "owner",
          "type": "address"
        },
        {
          "indexed": false,
          "internalType": "address",
          "name": "whitelist",
          "type": "address"
        }
      ],
      "name": "WhitelistDeployed",
      "type": "event"
    },
    {
      "stateMutability": "payable",
      "type": "fallback",
      "payable": true
    },
    {
      "inputs": [],
      "name": "owner",
      "outputs": [
        {
          "internalType": "address",
          "name": "",
          "type": "address"
        }
      ],
      "stateMutability": "view",
      "type": "function",
      "constant": true
    },
    {
      "inputs": [],
      "name": "renounceOwnership",
      "outputs": [],
      "stateMutability": "nonpayable",
      "type": "function"
    },
    {
      "inputs": [],
      "name": "resolver",
      "outputs": [
        {
          "internalType": "contract Resolver",
          "name": "",
          "type": "address"
        }
      ],
      "stateMutability": "view",
      "type": "function",
      "constant": true
    },
    {
      "inputs": [
        {
          "internalType": "address",
          "name": "_resolver",
          "type": "address"
        }
      ],
      "name": "setResolver",
      "outputs": [],
      "stateMutability": "nonpayable",
      "type": "function"
    },
    {
      "inputs": [
        {
          "internalType": "address",
          "name": "newOwner",
          "type": "address"
        }
      ],
      "name": "transferOwnership",
      "outputs": [],
      "stateMutability": "nonpayable",
      "type": "function"
    },
    {
      "stateMutability": "payable",
      "type": "receive",
      "payable": true
    },
    {
      "inputs": [
        {
          "internalType": "bytes32",
          "name": "_agreementHash",
          "type": "bytes32"
        }
      ],
      "name": "deployCoinMachine",
      "outputs": [],
      "stateMutability": "nonpayable",
      "type": "function"
    },
    {
      "inputs": [
        {
          "internalType": "bool",
          "name": "_useApprovals",
          "type": "bool"
        },
        {
          "internalType": "string",
          "name": "_agreementHash",
          "type": "string"
        }
      ],
      "name": "deployWhitelist",
      "outputs": [],
      "stateMutability": "nonpayable",
      "type": "function"
    },
    {
      "inputs": [],
      "name": "getAgreementHash",
      "outputs": [
        {
          "internalType": "bytes32",
          "name": "",
          "type": "bytes32"
        }
      ],
      "stateMutability": "view",
      "type": "function",
      "constant": true
    },
    {
      "inputs": [],
      "name": "getFeeFraction",
      "outputs": [
        {
          "internalType": "uint256",
          "name": "",
          "type": "uint256"
        }
      ],
      "stateMutability": "view",
      "type": "function",
      "constant": true
    },
    {
      "inputs": [
        {
          "internalType": "bytes32",
          "name": "_agreementHash",
          "type": "bytes32"
        }
      ],
      "name": "setAgreementHash",
      "outputs": [],
      "stateMutability": "nonpayable",
      "type": "function"
    },
    {
      "inputs": [
        {
          "internalType": "uint256",
          "name": "_feeFraction",
          "type": "uint256"
        }
      ],
      "name": "setFeeFraction",
      "outputs": [],
      "stateMutability": "nonpayable",
      "type": "function"
    },
    {
      "inputs": [
        {
          "internalType": "address",
          "name": "_token",
          "type": "address"
        }
      ],
      "name": "withdraw",
      "outputs": [],
      "stateMutability": "nonpayable",
      "type": "function"
    }
  ],
  "bytecode": "0x608060405234801561001057600080fd5b5061001a3361001f565b61006f565b600080546001600160a01b038381166001600160a01b0319831681178455604051919092169283917f8be0079c531659141344cd1fd0a4f28419497f9722a3daafe3b4186f6b6457e09190a35050565b6141b78061007e6000396000f3fe608060405260043610620000bb5760003560e01c806351cff8d9116200006d57806351cff8d9146200028b578063696da92114620002b0578063715018a614620002c75780638da5cb5b14620002df57806396208e5d14620002ff578063f2fde38b146200032457620000c3565b806304f3bcec146200019757806320ddf6c414620001d657806325ea8ab814620001fb5780632c4e594e146200021c5780634661bdc114620002415780634e543b26146200026657620000c3565b36620000c357005b600080356001600160e01b0319169003620000da57005b6001546040516337b4746960e11b8152600080356001600160e01b0319166004830152916001600160a01b031690636f68e8d290602401602060405180830381865afa1580156200012f573d6000803e3d6000fd5b505050506040513d601f19601f82011682018060405250810190620001559190620008a4565b9050803b806200016457600080fd5b5036600060405137600060405136604051845af43d60006040513e80600181146200018f573d604051fd5b3d604051f35b005b348015620001a457600080fd5b50600154620001b9906001600160a01b031681565b6040516001600160a01b0390911681526020015b60405180910390f35b348015620001e357600080fd5b5062000195620001f5366004620008cb565b62000349565b3480156200020857600080fd5b506003545b604051908152602001620001cd565b3480156200022957600080fd5b50620001956200023b3660046200090a565b620003ed565b3480156200024e57600080fd5b506200019562000260366004620008cb565b62000472565b3480156200027357600080fd5b506200019562000285366004620009da565b62000561565b3480156200029857600080fd5b5062000195620002aa366004620009da565b6200058d565b348015620002bd57600080fd5b506002546200020d565b348015620002d457600080fd5b5062000195620006ef565b348015620002ec57600080fd5b506000546001600160a01b0316620001b9565b3480156200030c57600080fd5b50620001956200031e366004620008cb565b62000707565b3480156200033157600080fd5b506200019562000343366004620009da565b62000747565b62000353620007c6565b670de0b6b3a7640000811115620003b15760405162461bcd60e51b815260206004820152601860248201527f666163746f72792d696e76616c69642d6672616374696f6e000000000000000060448201526064015b60405180910390fd5b60038190556040518181527f842d79c6cbd40c7e0a733544e66121cf0197ff6c5990d5d2db7d8fd274c8eecb906020015b60405180910390a150565b6000338383604051620004009062000872565b6200040e93929190620009fa565b604051809103906000f0801580156200042b573d6000803e3d6000fd5b506040516001600160a01b038216815290915033907f89e160c603b67f87acccbdf7bbba001af95153b8685cef7558276d07f1d547499060200160405180910390a2505050565b8060025414620004d05760405162461bcd60e51b815260206004820152602260248201527f636f696e2d6d616368696e652d666163746f72792d6261642d7369676e617475604482015261726560f01b6064820152608401620003a8565b600033600354604051620004e49062000880565b6001600160a01b0390921682526020820152604001604051809103906000f08015801562000516573d6000803e3d6000fd5b50604080518481526001600160a01b038316602082015291925033917fa86047e186cb70ffc8978159a67423a695acd855307dce8584e1efe07f16c57f910160405180910390a25050565b6200056b620007c6565b600180546001600160a01b0319166001600160a01b0392909216919091179055565b62000597620007c6565b6040516370a0823160e01b81523060048201526000906001600160a01b038316906370a0823190602401602060405180830381865afa158015620005df573d6000803e3d6000fd5b505050506040513d601f19601f8201168201806040525081019062000605919062000a63565b9050816001600160a01b031663a9059cbb620006296000546001600160a01b031690565b6040516001600160e01b031960e084901b1681526001600160a01b039091166004820152602481018490526044016020604051808303816000875af115801562000677573d6000803e3d6000fd5b505050506040513d601f19601f820116820180604052508101906200069d919062000a7d565b620006eb5760405162461bcd60e51b815260206004820152601760248201527f666163746f72792d7472616e736665722d6661696c65640000000000000000006044820152606401620003a8565b5050565b620006f9620007c6565b62000705600062000822565b565b62000711620007c6565b60028190556040518181527fc5d54bb3985a3e542a5f468d8cfbca942ce13901ecd79a60f60d004215eb6e0990602001620003e2565b62000751620007c6565b6001600160a01b038116620007b85760405162461bcd60e51b815260206004820152602660248201527f4f776e61626c653a206e6577206f776e657220697320746865207a65726f206160448201526564647265737360d01b6064820152608401620003a8565b620007c38162000822565b50565b6000546001600160a01b03163314620007055760405162461bcd60e51b815260206004820181905260248201527f4f776e61626c653a2063616c6c6572206973206e6f7420746865206f776e65726044820152606401620003a8565b600080546001600160a01b038381166001600160a01b0319831681178455604051919092169283917f8be0079c531659141344cd1fd0a4f28419497f9722a3daafe3b4186f6b6457e09190a35050565b61105b8062000a9e83390190565b6126898062001af983390190565b6001600160a01b0381168114620007c357600080fd5b600060208284031215620008b757600080fd5b8151620008c4816200088e565b9392505050565b600060208284031215620008de57600080fd5b5035919050565b8015158114620007c357600080fd5b634e487b7160e01b600052604160045260246000fd5b600080604083850312156200091e57600080fd5b82356200092b81620008e5565b9150602083013567ffffffffffffffff808211156200094957600080fd5b818501915085601f8301126200095e57600080fd5b813581811115620009735762000973620008f4565b604051601f8201601f19908116603f011681019083821181831017156200099e576200099e620008f4565b81604052828152886020848701011115620009b857600080fd5b8260208601602083013760006020848301015280955050505050509250929050565b600060208284031215620009ed57600080fd5b8135620008c4816200088e565b60018060a01b0384168152600060208415158184015260606040840152835180606085015260005b8181101562000a405785810183015185820160800152820162000a22565b506000608082860101526080601f19601f83011685010192505050949350505050565b60006020828403121562000a7657600080fd5b5051919050565b60006020828403121562000a9057600080fd5b8151620008c481620008e556fe60806040523480156200001157600080fd5b506040516200105b3803806200105b833981016040819052620000349162000211565b6200003f33620000ce565b81806200004d575060008151115b620000945760405162461bcd60e51b81526020600482015260126024820152711dda1a5d195b1a5cdd0b5898590b5a5b9a5d60721b60448201526064015b60405180910390fd5b6000805460ff60a01b1916600160a01b841515021790556001620000b98282620003af565b50620000c5836200011e565b5050506200047b565b600080546001600160a01b038381166001600160a01b0319831681178455604051919092169283917f8be0079c531659141344cd1fd0a4f28419497f9722a3daafe3b4186f6b6457e09190a35050565b620001286200019d565b6001600160a01b0381166200018f5760405162461bcd60e51b815260206004820152602660248201527f4f776e61626c653a206e6577206f776e657220697320746865207a65726f206160448201526564647265737360d01b60648201526084016200008b565b6200019a81620000ce565b50565b6000546001600160a01b03163314620001f95760405162461bcd60e51b815260206004820181905260248201527f4f776e61626c653a2063616c6c6572206973206e6f7420746865206f776e657260448201526064016200008b565b565b634e487b7160e01b600052604160045260246000fd5b6000806000606084860312156200022757600080fd5b83516001600160a01b03811681146200023f57600080fd5b8093505060208085015180151581146200025857600080fd5b60408601519093506001600160401b03808211156200027657600080fd5b818701915087601f8301126200028b57600080fd5b815181811115620002a057620002a0620001fb565b604051601f8201601f19908116603f01168101908382118183101715620002cb57620002cb620001fb565b816040528281528a86848701011115620002e457600080fd5b600093505b82841015620003085784840186015181850187015292850192620002e9565b60008684830101528096505050505050509250925092565b600181811c908216806200033557607f821691505b6020821081036200035657634e487b7160e01b600052602260045260246000fd5b50919050565b601f821115620003aa57600081815260208120601f850160051c81016020861015620003855750805b601f850160051c820191505b81811015620003a65782815560010162000391565b5050505b505050565b81516001600160401b03811115620003cb57620003cb620001fb565b620003e381620003dc845462000320565b846200035c565b602080601f8311600181146200041b5760008415620004025750858301515b600019600386901b1c1916600185901b178555620003a6565b600085815260208120601f198616915b828110156200044c578886015182559484019460019091019084016200042b565b50858210156200046b5787850151600019600388901b60f8161c191681555b5050505050600190811b01905550565b610bd0806200048b6000396000f3fe608060405234801561001057600080fd5b50600436106100b45760003560e01c8063673448dd11610071578063673448dd14610169578063715018a61461017c5780638da5cb5b14610184578063a11c1d511461019f578063c792f36d146101b2578063f2fde38b146101d557600080fd5b80630ab55d0b146100b95780631ad044cb146100d75780631bbfb009146100fb5780632ec7ff9514610110578063429b62e5146101235780635d0341ba14610146575b600080fd5b6100c16101e8565b6040516100ce919061084c565b60405180910390f35b6000546100eb90600160a01b900460ff1681565b60405190151581526020016100ce565b61010e6101093660046108f2565b610276565b005b61010e61011e3660046108f2565b61041d565b6100eb6101313660046109b1565b60026020526000908152604090205460ff1681565b6100eb6101543660046109b1565b60036020526000908152604090205460ff1681565b6100eb6101773660046109b1565b610549565b61010e6105bb565b6000546040516001600160a01b0390911681526020016100ce565b61010e6101ad3660046109d3565b6105cf565b6100eb6101c03660046109b1565b60046020526000908152604090205460ff1681565b61010e6101e33660046109b1565b610705565b600180546101f590610a68565b80601f016020809104026020016040519081016040528092919081815260200182805461022190610a68565b801561026e5780601f106102435761010080835404028352916020019161026e565b820191906000526020600020905b81548152906001019060200180831161025157829003601f168201915b505050505081565b600054600160a01b900460ff166102cd5760405162461bcd60e51b815260206004820152601660248201527577686974656c6973742d6e6f2d617070726f76616c7360501b60448201526064015b60405180910390fd5b3360009081526002602052604090205460ff16806103045750336102f96000546001600160a01b031690565b6001600160a01b0316145b6103465760405162461bcd60e51b81526020600482015260136024820152723bb434ba32b634b9ba16b737ba16b0b236b4b760691b60448201526064016102c4565b60005b825181101561041857816003600085848151811061036957610369610aa2565b60200260200101516001600160a01b03166001600160a01b0316815260200190815260200160002060006101000a81548160ff0219169083151502179055508281815181106103ba576103ba610aa2565b60200260200101516001600160a01b03167f60dc44a8ff6f8c563265a9654c756ef7d51cb49658531b2c735ef754c74e8a34836040516103fe911515815260200190565b60405180910390a28061041081610ab8565b915050610349565b505050565b61042561077e565b600054600160a01b900460ff166104775760405162461bcd60e51b815260206004820152601660248201527577686974656c6973742d6e6f2d617070726f76616c7360501b60448201526064016102c4565b60005b825181101561041857816002600085848151811061049a5761049a610aa2565b60200260200101516001600160a01b03166001600160a01b0316815260200190815260200160002060006101000a81548160ff0219169083151502179055508281815181106104eb576104eb610aa2565b60200260200101516001600160a01b03167fcebd8d7799da909f67afa66d365d9c6effd59adb80d622132305767f2b0ee6288360405161052f911515815260200190565b60405180910390a28061054181610ab8565b91505061047a565b60008054600160a01b900460ff16158061057b57506001600160a01b03821660009081526003602052604090205460ff165b80156105b557506001805461058f90610a68565b159050806105b557506001600160a01b03821660009081526004602052604090205460ff165b92915050565b6105c361077e565b6105cd60006107d8565b565b6000600180546105de90610a68565b9050116106265760405162461bcd60e51b81526020600482015260166024820152751dda1a5d195b1a5cdd0b5b9bcb5859dc99595b595b9d60521b60448201526064016102c4565b806040516020016106379190610adf565b60405160208183030381529060405280519060200120600160405160200161065f9190610afb565b60405160208183030381529060405280519060200120146106c25760405162461bcd60e51b815260206004820152601760248201527f77686974656c6973742d6261642d7369676e617475726500000000000000000060448201526064016102c4565b33600081815260046020526040808220805460ff19166001179055517f5cca47fc45be2c2c68100afd7cd2431116c0c535c159e4f6c7e63934cf9f7aad9190a250565b61070d61077e565b6001600160a01b0381166107725760405162461bcd60e51b815260206004820152602660248201527f4f776e61626c653a206e6577206f776e657220697320746865207a65726f206160448201526564647265737360d01b60648201526084016102c4565b61077b816107d8565b50565b6000546001600160a01b031633146105cd5760405162461bcd60e51b815260206004820181905260248201527f4f776e61626c653a2063616c6c6572206973206e6f7420746865206f776e657260448201526064016102c4565b600080546001600160a01b038381166001600160a01b0319831681178455604051919092169283917f8be0079c531659141344cd1fd0a4f28419497f9722a3daafe3b4186f6b6457e09190a35050565b60005b8381101561084357818101518382015260200161082b565b50506000910152565b602081526000825180602084015261086b816040850160208701610828565b601f01601f19169190910160400192915050565b634e487b7160e01b600052604160045260246000fd5b604051601f8201601f1916810167ffffffffffffffff811182821017156108be576108be61087f565b604052919050565b80356001600160a01b03811681146108dd57600080fd5b919050565b803580151581146108dd57600080fd5b6000806040838503121561090557600080fd5b823567ffffffffffffffff8082111561091d57600080fd5b818501915085601f83011261093157600080fd5b81356020828211156109455761094561087f565b8160051b9250610956818401610895565b828152928401810192818101908985111561097057600080fd5b948201945b8486101561099557610986866108c6565b82529482019490820190610975565b96506109a490508782016108e2565b9450505050509250929050565b6000602082840312156109c357600080fd5b6109cc826108c6565b9392505050565b600060208083850312156109e657600080fd5b823567ffffffffffffffff808211156109fe57600080fd5b818501915085601f830112610a1257600080fd5b813581811115610a2457610a2461087f565b610a36601f8201601f19168501610895565b91508082528684828501011115610a4c57600080fd5b8084840185840137600090820190930192909252509392505050565b600181811c90821680610a7c57607f821691505b602082108103610a9c57634e487b7160e01b600052602260045260246000fd5b50919050565b634e487b7160e01b600052603260045260246000fd5b600060018201610ad857634e487b7160e01b600052601160045260246000fd5b5060010190565b60008251610af1818460208701610828565b9190910192915050565b600080835481600182811c915080831680610b1757607f831692505b60208084108203610b3657634e487b7160e01b86526022600452602486fd5b818015610b4a5760018114610b5f57610b8c565b60ff1986168952841515850289019650610b8c565b60008a81526020902060005b86811015610b845781548b820152908501908301610b6b565b505084890196505b50949897505050505050505056fea2646970667358221220bfdc841e4808482db3b366c88a3ee889265e5979b3c3102f559685af43ddd78164736f6c6343000811003360806040523480156200001157600080fd5b5060405162002689380380620026898339810160408190526200003491620001a0565b6200003f336200006f565b600180546001600160a01b0319163317905560028190556000196006556200006782620000bf565b5050620001dc565b600080546001600160a01b038381166001600160a01b0319831681178455604051919092169283917f8be0079c531659141344cd1fd0a4f28419497f9722a3daafe3b4186f6b6457e09190a35050565b620000c962000142565b6001600160a01b038116620001345760405162461bcd60e51b815260206004820152602660248201527f4f776e61626c653a206e6577206f776e657220697320746865207a65726f206160448201526564647265737360d01b60648201526084015b60405180910390fd5b6200013f816200006f565b50565b6000546001600160a01b031633146200019e5760405162461bcd60e51b815260206004820181905260248201527f4f776e61626c653a2063616c6c6572206973206e6f7420746865206f776e657260448201526064016200012b565b565b60008060408385031215620001b457600080fd5b82516001600160a01b0381168114620001cc57600080fd5b6020939093015192949293505050565b61249d80620001ec6000396000f3fe60806040526004361061026b5760003560e01c80638102263111610144578063be0a64a2116100b6578063db1d0fd51161007a578063db1d0fd51461066c578063e2f9082314610682578063e9587e8614610698578063eb91d37e146106b8578063f2fde38b146106cd578063fc0c546a146106ed57600080fd5b8063be0a64a2146105e3578063c19d93fb146105f9578063c45a015514610620578063d2ca211514610640578063d53316b21461065657600080fd5b806393e59dc11161010857806393e59dc114610544578063a83627de14610569578063a95c4d621461057e578063b497d5011461059e578063b5b2f1ef146105b4578063bb4872de146105c957600080fd5b806381022631146104bc57806382b2e257146104d25780638456cb59146104e75780638da5cb5b146104fc57806391cadaf61461051a57600080fd5b80632869b128116101dd5780633ccfd60b116101a15780633ccfd60b1461043b5780633f4ba83a1461045057806352a30384146104655780635bf8eddd1461047b578063715018a61461049157806378e97925146104a657600080fd5b80632869b128146103975780632b96d909146103c45780633197cbb6146103da5780633610724e146103f057806338af3eed1461040357600080fd5b80630f3d88031161022f5780630f3d8803146102f8578063114f67691461030d578063148f93141461032d5780631c31f7101461034d57806323d631eb1461036d57806324604da01461038257600080fd5b806307da68f514610277578063086146d21461028e5780630a441f7b146102b65780630aed1428146102cc5780630c707339146102e257600080fd5b3661027257005b600080fd5b34801561028357600080fd5b5061028c610712565b005b34801561029a57600080fd5b506102a361087e565b6040519081526020015b60405180910390f35b3480156102c257600080fd5b506102a3600c5481565b3480156102d857600080fd5b506102a3600b5481565b3480156102ee57600080fd5b506102a360105481565b34801561030457600080fd5b506102a36108ab565b34801561031957600080fd5b506102a36103283660046120a4565b6108d2565b34801561033957600080fd5b5061028c610348366004612204565b610914565b34801561035957600080fd5b5061028c6103683660046120a4565b610f48565b34801561037957600080fd5b506102a3610ffb565b34801561038e57600080fd5b506102a361100d565b3480156103a357600080fd5b506102a36103b23660046120a4565b60156020526000908152604090205481565b3480156103d057600080fd5b506102a3600e5481565b3480156103e657600080fd5b506102a360075481565b61028c6103fe36600461231d565b61101f565b34801561040f57600080fd5b50600554610423906001600160a01b031681565b6040516001600160a01b0390911681526020016102ad565b34801561044757600080fd5b5061028c61176d565b34801561045c57600080fd5b5061028c6118c0565b34801561047157600080fd5b506102a3600d5481565b34801561048757600080fd5b506102a360025481565b34801561049d57600080fd5b5061028c611940565b3480156104b257600080fd5b506102a360065481565b3480156104c857600080fd5b506102a3600f5481565b3480156104de57600080fd5b506102a3611952565b3480156104f357600080fd5b5061028c6119c4565b34801561050857600080fd5b506000546001600160a01b0316610423565b34801561052657600080fd5b506011546105349060ff1681565b60405190151581526020016102ad565b34801561055057600080fd5b506011546104239061010090046001600160a01b031681565b34801561057557600080fd5b5061028c611a92565b34801561058a57600080fd5b50600454610423906001600160a01b031681565b3480156105aa57600080fd5b506102a360125481565b3480156105c057600080fd5b506102a3611c03565b3480156105d557600080fd5b506018546105349060ff1681565b3480156105ef57600080fd5b506102a3600a5481565b34801561060557600080fd5b506003546106139060ff1681565b6040516102ad919061234c565b34801561062c57600080fd5b50600154610423906001600160a01b031681565b34801561064c57600080fd5b506102a360085481565b34801561066257600080fd5b506102a360175481565b34801561067857600080fd5b506102a360095481565b34801561068e57600080fd5b506102a360135481565b3480156106a457600080fd5b506102a36106b33660046120a4565b611c51565b3480156106c457600080fd5b506102a3611cd4565b3480156106d957600080fd5b5061028c6106e83660046120a4565b611d97565b3480156106f957600080fd5b506003546104239061010090046001600160a01b031681565b61071a611e0d565b60185460ff166107715760405162461bcd60e51b815260206004820152601a60248201527f636f696e2d6d616368696e652d6e6f742d73746f707061626c6500000000000060448201526064015b60405180910390fd5b600260035460ff16600281111561078a5761078a612336565b036107d75760405162461bcd60e51b815260206004820152601c60248201527f636f696e2d6d616368696e652d616c72656164792d73746f70706564000000006044820152606401610768565b600060035460ff1660028111156107f0576107f0612336565b14806108125750600160035460ff16600281111561081057610810612336565b145b6108685760405162461bcd60e51b815260206004820152602160248201527f636f696e2d6d616368696e652d6e6f742d6163746976652d6f722d70617573656044820152601960fa1b6064820152608401610768565b6108726000611e67565b61087c6002611eb8565b565b600060085460065461089242600654611f0b565b61089c919061238a565b6108a691906123b3565b905090565b60006108a66012546108bb611952565b6108c3610ffb565b6108cd91906123c7565b611f24565b6000806108dd611952565b905060006108e9611c03565b905060006108f685611c51565b905061090b816109068585611f43565b611f43565b95945050505050565b61091c611e0d565b600654421061096d5760405162461bcd60e51b815260206004820152601760248201527f636f696e2d6d616368696e652d73616c652d626567756e0000000000000000006044820152606401610768565b8a516001600160a01b03166109c45760405162461bcd60e51b815260206004820152601a60248201527f636f696e2d6d616368696e652d696e76616c69642d746f6b656e0000000000006044820152606401610768565b60008911610a145760405162461bcd60e51b815260206004820152601d60248201527f636f696e2d6d616368696e652d706572696f642d746f6f2d736d616c6c0000006044820152606401610768565b60008811610a645760405162461bcd60e51b815260206004820152601d60248201527f636f696e2d6d616368696e652d77696e646f772d746f6f2d736d616c6c0000006044820152606401610768565b610200881115610ab65760405162461bcd60e51b815260206004820152601d60248201527f636f696e2d6d616368696e652d77696e646f772d746f6f2d6c617267650000006044820152606401610768565b8651610b045760405162461bcd60e51b815260206004820152601d60248201527f636f696e2d6d616368696e652d7461726765742d746f6f2d736d616c6c0000006044820152606401610768565b602087015187511115610b595760405162461bcd60e51b815260206004820152601a60248201527f636f696e2d6d616368696e652d6d61782d746f6f2d736d616c6c0000000000006044820152606401610768565b670de0b6b3a764000086600081518110610b7557610b756123da565b60200260200101511115610bcb5760405162461bcd60e51b815260206004820152601c60248201527f636f696e2d6d616368696e652d6c696d69742d746f6f2d6c61726765000000006044820152606401610768565b600086600081518110610be057610be06123da565b602002602001015111610c355760405162461bcd60e51b815260206004820152601c60248201527f636f696e2d6d616368696e652d6c696d69742d746f6f2d736d616c6c000000006044820152606401610768565b85600181518110610c4857610c486123da565b602002602001015186600081518110610c6357610c636123da565b60200260200101511015610cb95760405162461bcd60e51b815260206004820181905260248201527f636f696e2d6d616368696e652d6c696d6974732d696e636f6e73697374656e746044820152606401610768565b6fffffffffffffffffffffffffffffffff841115610d195760405162461bcd60e51b815260206004820152601860248201527f636f696e2d6d616368696e652d6361702d746f6f2d62696700000000000000006044820152606401610768565b8a5160038054610100600160a81b0319166101006001600160a01b039384160217905560208c015160048054919092166001600160a01b0319909116179055895115610d66578951610d68565b425b60065560208a015115610d7f5760208a0151610d8f565b600654610d8f9062ed4e006123c7565b600755600654421115610de45760405162461bcd60e51b815260206004820152601b60248201527f636f696e2d6d616368696e652d6261642d73746172742d74696d6500000000006044820152606401610768565b60075460065410610e375760405162461bcd60e51b815260206004820152601960248201527f636f696e2d6d616368696e652d6261642d656e642d74696d65000000000000006044820152606401610768565b6008899055610e516002610e4c8a60016123c7565b611f53565b6009558651600a556020870151600b5585518690600090610e7457610e746123da565b602002602001015160138190555085600181518110610e9557610e956123da565b602002602001015160128190555084600d81905550610eb6600a5486611f24565b60105560178490556018805460ff1916841515179055610ed582610f48565b60118054610100600160a81b0319166101006001600160a01b03841602179055610eff6000611eb8565b610f126000610f0c611952565b11611e67565b6040517f8659acc9ee6146ef7e0dcc9851284bd43577098ffbe0119792784129fa0d2eed90600090a15050505050505050505050565b610f50611e0d565b6001600160a01b038116610fa65760405162461bcd60e51b815260206004820152601c60248201527f636f696e2d6d616368696e652d6261642d62656e6566696369617279000000006044820152606401610768565b600580546001600160a01b0319166001600160a01b0383169081179091556040519081527f04d55a8be181fb8d75b76f2d48aa0b2ee40f47e53d6e61763eeeec46feea8a24906020015b60405180910390a150565b6000600e546014546108a691906123c7565b6000600f546016546108a691906123c7565b4260065411156110715760405162461bcd60e51b815260206004820152601b60248201527f636f696e2d6d616368696e652d73616c652d6e6f742d626567756e00000000006044820152606401610768565b60075442106110bb5760405162461bcd60e51b815260206004820152601660248201527531b7b4b716b6b0b1b434b73296b9b0b63296b7bb32b960511b6044820152606401610768565b6110c3611f68565b6111095760405162461bcd60e51b8152602060048201526017602482015276636f696e2d6d616368696e652d6e6f742d61637469766560481b6044820152606401610768565b611111611a92565b60115461010090046001600160a01b03161580611199575060115460405163673448dd60e01b81523360048201526101009091046001600160a01b03169063673448dd90602401602060405180830381865afa158015611175573d6000803e3d6000fd5b505050506040513d601f19601f8201168201806040525081019061119991906123f0565b6111e55760405162461bcd60e51b815260206004820152601960248201527f636f696e2d6d616368696e652d756e617574686f7269736564000000000000006044820152606401610768565b60006111f0336108d2565b905060006111fe8284611f43565b90506000811161124157341561123c5760405133903480156108fc02916000818181858888f1935050505015801561123a573d6000803e3d6000fd5b505b505050565b600061124f82600d54611f24565b905080600f600082825461126391906123c7565b9091555050601354670de0b6b3a7640000118061128257506000601254115b1561131b5760006112916108ab565b336000908152601560205260408120805492935085929091906112b59084906123c7565b9091555050336000908152601560205260409020548111156113195760405162461bcd60e51b815260206004820152601f60248201527f636f696e2d6d616368696e652d70757263686173652d746f6f2d736d616c6c006044820152606401610768565b505b81600e600082825461132d91906123c7565b909155505060175461133d61100d565b111561134b5761134b61240d565b600b54600e54111561135f5761135f61240d565b611367611952565b8210611377576113776000611e67565b600061138582600254611f24565b6004549091506001600160a01b03166114aa57813410156113e85760405162461bcd60e51b815260206004820152601f60248201527f636f696e2d6d616368696e652d696e73756666696369656e742d66756e6473006044820152606401610768565b8134111561142857336108fc6113fe843461238a565b6040518115909202916000818181858888f19350505050158015611426573d6000803e3d6000fd5b505b6001546040516001600160a01b039091169082156108fc029083906000818181858888f19350505050158015611462573d6000803e3d6000fd5b506005546001600160a01b03166108fc61147c838561238a565b6040518115909202916000818181858888f193505050501580156114a4573d6000803e3d6000fd5b50611660565b600480546001546040516323b872dd60e01b815233938101939093526001600160a01b0390811660248401526044830184905216906323b872dd906064016020604051808303816000875af1158015611507573d6000803e3d6000fd5b505050506040513d601f19601f8201168201806040525081019061152b91906123f0565b6115775760405162461bcd60e51b815260206004820152601c60248201527f636f696e2d6d616368696e652d70757263686173652d6661696c6564000000006044820152606401610768565b6004546005546001600160a01b03918216916323b872dd9133911661159c858761238a565b6040516001600160e01b031960e086901b1681526001600160a01b03938416600482015292909116602483015260448201526064016020604051808303816000875af11580156115f0573d6000803e3d6000fd5b505050506040513d601f19601f8201168201806040525081019061161491906123f0565b6116605760405162461bcd60e51b815260206004820152601c60248201527f636f696e2d6d616368696e652d70757263686173652d6661696c6564000000006044820152606401610768565b60035460405163a9059cbb60e01b8152336004820152602481018590526101009091046001600160a01b03169063a9059cbb906044016020604051808303816000875af11580156116b5573d6000803e3d6000fd5b505050506040513d601f19601f820116820180604052508101906116d991906123f0565b6117255760405162461bcd60e51b815260206004820152601c60248201527f636f696e2d6d616368696e652d7472616e736665722d6661696c6564000000006044820152606401610768565b60408051338152602081018590529081018390527f8442948036198f1146d3a63c3db355d7e0295c2cc5676c755990445da4fdc1c99060600160405180910390a15050505050565b4260075410806117935750600260035460ff16600281111561179157611791612336565b145b6117df5760405162461bcd60e51b815260206004820152601a60248201527f636f696e2d6d616368696e652d73616c652d6e6f742d6f7665720000000000006044820152606401610768565b6003546005546001600160a01b0361010090920482169163a9059cbb9116611805611952565b6040516001600160e01b031960e085901b1681526001600160a01b03909216600483015260248201526044016020604051808303816000875af1158015611850573d6000803e3d6000fd5b505050506040513d601f19601f8201168201806040525081019061187491906123f0565b61087c5760405162461bcd60e51b815260206004820152601c60248201527f636f696e2d6d616368696e652d77697468647261772d6661696c6564000000006044820152606401610768565b6118c8611e0d565b600160035460ff1660028111156118e1576118e1612336565b1461192e5760405162461bcd60e51b815260206004820152601760248201527f636f696e2d6d616368696e652d6e6f742d7061757365640000000000000000006044820152606401610768565b6119386000611eb8565b61087c611a92565b611948611e0d565b61087c6000611f88565b6003546040516370a0823160e01b815230600482015260009161010090046001600160a01b0316906370a0823190602401602060405180830381865afa1580156119a0573d6000803e3d6000fd5b505050506040513d601f19601f820116820180604052508101906108a69190612423565b6119cc611e0d565b60185460ff16611a1e5760405162461bcd60e51b815260206004820152601a60248201527f636f696e2d6d616368696e652d6e6f742d73746f707061626c650000000000006044820152606401610768565b600060035460ff166002811115611a3757611a37612336565b14611a7e5760405162461bcd60e51b8152602060048201526017602482015276636f696e2d6d616368696e652d6e6f742d61637469766560481b6044820152606401610768565b611a886000611e67565b61087c6001611eb8565b6000611a9c61087e565b905080600c541115611ab057611ab061240d565b80600c541015611c0057600c5460115460ff16611aee57611ae96000611ad4611952565b118015611ae45750611ae4611f68565b611e67565b611b83565b611afc600954600f54611f24565b611b1d600954670de0b6b3a7640000611b15919061238a565b601054611f24565b611b2791906123c7565b60105560006001611b38838561238a565b611b42919061238a565b90508015611b7057611b6c611b15600954670de0b6b3a7640000611b66919061238a565b83611fd8565b6010555b611b7e601054600a54611f53565b600d55505b600f5460166000828254611b9791906123c7565b9091555050600e5460148054600090611bb19084906123c7565b9091555050600c8290556000600f819055600e5560408051828152602081018490527f5b873fc01d45058fe77f3883a91020f46d5a7385baac6ceab19748d1d0ae464a910160405180910390a1505b50565b60006108a6611c1061087e565b600c541015611c20576000611c24565b600e545b600b54611c31919061238a565b610906611c3c61100d565b601754611c49919061238a565b610e4c611cd4565b6000670de0b6b3a76400006013541480611c79575060115461010090046001600160a01b0316155b611cca576001600160a01b038216600090815260156020526040902054611cbb611ca1610ffb565b611ca9611952565b611cb391906123c7565b601354611f24565b611cc5919061238a565b611cce565b6000195b92915050565b600080611cdf61087e565b905080600c54101580611cf5575060115460ff16155b15611d02575050600d5490565b601054600954600f54611d159190611f24565b611d34600954670de0b6b3a7640000611d2e919061238a565b83611f24565b611d3e91906123c7565b905060006001600c5484611d52919061238a565b611d5c919061238a565b90508015611d8357611d80611d2e600954670de0b6b3a7640000611b66919061238a565b91505b611d8f82600a54611f53565b935050505090565b611d9f611e0d565b6001600160a01b038116611e045760405162461bcd60e51b815260206004820152602660248201527f4f776e61626c653a206e6577206f776e657220697320746865207a65726f206160448201526564647265737360d01b6064820152608401610768565b611c0081611f88565b6000546001600160a01b0316331461087c5760405162461bcd60e51b815260206004820181905260248201527f4f776e61626c653a2063616c6c6572206973206e6f7420746865206f776e65726044820152606401610768565b60115460ff16151581151514611c00576011805460ff19168215159081179091556040519081527f5b4e200daa1a93764a810c35f18f2fcfb14b5e95df6ae7ac1ffdc8eec425babc90602001610ff0565b6003805482919060ff19166001836002811115611ed757611ed7612336565b02179055507fd2d7d26509a0f467151b1957c8c832c751923756862314d6002c201f254b64f681604051610ff0919061234c565b600081831015611f1b5781611f1d565b825b9392505050565b6000670de0b6b3a7640000611f39838561243c565b611f1d91906123b3565b600081831115611f1b5781611f1d565b600081611f39670de0b6b3a76400008561243c565b60008060035460ff166002811115611f8257611f82612336565b14905090565b600080546001600160a01b038381166001600160a01b0319831681178455604051919092169283917f8be0079c531659141344cd1fd0a4f28419497f9722a3daafe3b4186f6b6457e09190a35050565b6000633b9aca00611f39611fec858361243c565b846000611ffa600283612453565b600003612013576b033b2e3c9fd0803ce8000000612015565b825b90506120226002836123b3565b91505b8115611cce576120358384612066565b9250612042600283612453565b15612054576120518184612066565b90505b61205f6002836123b3565b9150612025565b60006b033b2e3c9fd0803ce8000000611f39838561243c565b6001600160a01b0381168114611c0057600080fd5b803561209f8161207f565b919050565b6000602082840312156120b657600080fd5b8135611f1d8161207f565b634e487b7160e01b600052604160045260246000fd5b6040805190810167ffffffffffffffff811182821017156120fa576120fa6120c1565b60405290565b600082601f83011261211157600080fd5b6121196120d7565b80604084018581111561212b57600080fd5b845b8181101561214557803584526020938401930161212d565b509095945050505050565b600082601f83011261216157600080fd5b8135602067ffffffffffffffff8083111561217e5761217e6120c1565b8260051b604051601f19603f830116810181811084821117156121a3576121a36120c1565b6040529384528581018301938381019250878511156121c157600080fd5b83870191505b848210156121e0578135835291830191908301906121c7565b979650505050505050565b8015158114611c0057600080fd5b803561209f816121eb565b60008060008060008060008060008060006101c08c8e03121561222657600080fd5b8c601f8d011261223557600080fd5b61223d6120d7565b808e60408f01111561224e57600080fd5b8d5b60408f0181101561227557612265813561207f565b8035835260209283019201612250565b509b5061228790508d60408e01612100565b995060808c0135985060a08c013597506122a48d60c08e01612100565b96506101008c013567ffffffffffffffff8111156122c157600080fd5b6122cd8e828f01612150565b9650506101208c013594506101408c013593506122ed6101608d016121f9565b92506122fc6101808d01612094565b915061230b6101a08d01612094565b90509295989b509295989b9093969950565b60006020828403121561232f57600080fd5b5035919050565b634e487b7160e01b600052602160045260246000fd5b602081016003831061236e57634e487b7160e01b600052602160045260246000fd5b91905290565b634e487b7160e01b600052601160045260246000fd5b81810381811115611cce57611cce612374565b634e487b7160e01b600052601260045260246000fd5b6000826123c2576123c261239d565b500490565b80820180821115611cce57611cce612374565b634e487b7160e01b600052603260045260246000fd5b60006020828403121561240257600080fd5b8151611f1d816121eb565b634e487b7160e01b600052600160045260246000fd5b60006020828403121561243557600080fd5b5051919050565b8082028115828204841417611cce57611cce612374565b6000826124625761246261239d565b50069056fea26469706673582212200d4f1e1dc1fe9ebecf50f69a50634e20936f5c93090972c59cd78d218daf281764736f6c63430008110033a26469706673582212202d99ea616327ba03a733feedb688cdc2f49b4d2c0395d2bce95f28dcc2a19c1864736f6c63430008110033",
  "immutableReferences": {},
  "source": "// SPDX-License-Identifier: GPL-3.0-only\n\n/*\n  This file is part of The Colony Network.\n\n  The Colony Network is free software: you can redistribute it and/or modify\n  it under the terms of the GNU General Public License as published by\n  the Free Software Foundation, either version 3 of the License, or\n  (at your option) any later version.\n\n  The Colony Network is distributed in the hope that it will be useful,\n  but WITHOUT ANY WARRANTY; without even the implied warranty of\n  MERCHANTABILITY or FITNESS FOR A PARTICULAR PURPOSE.  See the\n  GNU General Public License for more details.\n\n  You should have received a copy of the GNU General Public License\n  along with The Colony Network. If not, see <http://www.gnu.org/licenses/>.\n*/\n\npragma solidity 0.8.17;\n\nimport \"../CoinMachine.sol\";\nimport \"../Whitelist.sol\";\nimport \"./CoinMachineFactoryStorage.sol\";\n\n\ncontract CoinMachineFactory is CoinMachineFactoryStorage {\n  receive() external payable {}\n\n  // Public\n\n  function deployCoinMachine(bytes32 _agreementHash) external {\n    require(agreementHash == _agreementHash, \"coin-machine-factory-bad-signature\");\n\n    CoinMachine coinMachine = new CoinMachine(msg.sender, feeFraction);\n\n    emit CoinMachineDeployed(msg.sender, _agreementHash, address(coinMachine));\n  }\n\n  function deployWhitelist(bool _useApprovals, string memory _agreementHash) external {\n    Whitelist whitelist = new Whitelist(msg.sender, _useApprovals, _agreementHash);\n\n    emit WhitelistDeployed(msg.sender, address(whitelist));\n  }\n\n  // View\n\n  function getAgreementHash() external view returns (bytes32) {\n    return agreementHash;\n  }\n\n  function getFeeFraction() external view returns (uint256) {\n    return feeFraction;\n  }\n\n  // Owner\n\n  function setAgreementHash(bytes32 _agreementHash) external onlyOwner {\n    agreementHash = _agreementHash;\n\n    emit AgreementHashSet(_agreementHash);\n  }\n\n  function setFeeFraction(uint256 _feeFraction) external onlyOwner {\n    require(_feeFraction <= WAD, \"factory-invalid-fraction\");\n    feeFraction = _feeFraction;\n\n    emit FeeFractionSet(_feeFraction);\n  }\n\n  function withdraw(address _token) external onlyOwner {\n    uint256 balance = ERC20(_token).balanceOf(address(this));\n    require(ERC20(_token).transfer(owner(), balance), \"factory-transfer-failed\");\n  }\n}\n",
  "sourcePath": "/Users/alicjakujawa/coinMachine/contracts/contracts/factory/CoinMachineFactory.sol",
  "compiler": {
    "name": "solc",
    "version": "0.8.17+commit.8df45f5f.Emscripten.clang"
  },
  "schemaVersion": "3.4.7",
  "updatedAt": "2022-11-30T11:27:15.811Z",
  "networkType": "ethereum",
  "devdoc": {
    "kind": "dev",
    "methods": {
      "owner()": {
        "details": "Returns the address of the current owner."
      },
      "renounceOwnership()": {
        "details": "Leaves the contract without owner. It will not be possible to call `onlyOwner` functions anymore. Can only be called by the current owner. NOTE: Renouncing ownership will leave the contract without an owner, thereby removing any functionality that is only available to the owner."
      },
      "transferOwnership(address)": {
        "details": "Transfers ownership of the contract to a new account (`newOwner`). Can only be called by the current owner."
      }
    },
    "version": 1
  },
  "userdoc": {
    "kind": "user",
    "methods": {},
    "version": 1
  }
}