{
  "contractName": "CoinMachine",
  "abi": [
    {
      "inputs": [
        {
          "internalType": "address",
          "name": "_owner",
          "type": "address"
        },
        {
          "internalType": "uint256",
          "name": "_feeFraction",
          "type": "uint256"
        },
        {
          "internalType": "address",
          "name": "_wrappedToken",
          "type": "address"
        }
      ],
      "stateMutability": "nonpayable",
      "type": "constructor"
    },
    {
      "anonymous": false,
      "inputs": [
        {
          "indexed": false,
          "internalType": "address",
          "name": "beneficiary",
          "type": "address"
        }
      ],
      "name": "BeneficiarySet",
      "type": "event"
    },
    {
      "anonymous": false,
      "inputs": [
        {
          "indexed": false,
          "internalType": "uint256",
          "name": "tokenBalance",
          "type": "uint256"
        },
        {
          "indexed": false,
          "internalType": "uint256",
          "name": "purchaseTokenBalance",
          "type": "uint256"
        },
        {
          "indexed": false,
          "internalType": "uint256",
          "name": "chainNativeTokenBalance",
          "type": "uint256"
        }
      ],
      "name": "CoinMachineDeleted",
      "type": "event"
    },
    {
      "anonymous": false,
      "inputs": [],
      "name": "CoinMachineInitialised",
      "type": "event"
    },
    {
      "anonymous": false,
      "inputs": [
        {
          "indexed": false,
          "internalType": "enum CoinMachine.CoinMachineState",
          "name": "state",
          "type": "uint8"
        }
      ],
      "name": "CoinMachineStateSet",
      "type": "event"
    },
    {
      "anonymous": false,
      "inputs": [
        {
          "indexed": false,
          "internalType": "uint256",
          "name": "id",
          "type": "uint256"
        }
      ],
      "name": "LimitOrderCancelled",
      "type": "event"
    },
    {
      "anonymous": false,
      "inputs": [
        {
          "indexed": false,
          "internalType": "uint256",
          "name": "id",
          "type": "uint256"
        },
        {
          "indexed": true,
          "internalType": "address",
          "name": "creator",
          "type": "address"
        },
        {
          "indexed": false,
          "internalType": "uint256",
          "name": "purchasePrice",
          "type": "uint256"
        },
        {
          "indexed": false,
          "internalType": "uint256",
          "name": "amountToSpend",
          "type": "uint256"
        },
        {
          "indexed": false,
          "internalType": "uint256",
          "name": "executorFee",
          "type": "uint256"
        }
      ],
      "name": "LimitOrderCreated",
      "type": "event"
    },
    {
      "anonymous": false,
      "inputs": [
        {
          "indexed": false,
          "internalType": "uint256",
          "name": "id",
          "type": "uint256"
        },
        {
          "indexed": false,
          "internalType": "uint256",
          "name": "amountToSpend",
          "type": "uint256"
        },
        {
          "indexed": false,
          "internalType": "uint256",
          "name": "executorFee",
          "type": "uint256"
        }
      ],
      "name": "LimitOrderExecuted",
      "type": "event"
    },
    {
      "anonymous": false,
      "inputs": [
        {
          "indexed": true,
          "internalType": "address",
          "name": "previousOwner",
          "type": "address"
        },
        {
          "indexed": true,
          "internalType": "address",
          "name": "newOwner",
          "type": "address"
        }
      ],
      "name": "OwnershipTransferred",
      "type": "event"
    },
    {
      "anonymous": false,
      "inputs": [
        {
          "indexed": false,
          "internalType": "uint256",
          "name": "activePeriod",
          "type": "uint256"
        },
        {
          "indexed": false,
          "internalType": "uint256",
          "name": "currentPeriod",
          "type": "uint256"
        }
      ],
      "name": "PeriodUpdated",
      "type": "event"
    },
    {
      "anonymous": false,
      "inputs": [
        {
          "indexed": false,
          "internalType": "bool",
          "name": "evolvePrice",
          "type": "bool"
        }
      ],
      "name": "PriceEvolutionSet",
      "type": "event"
    },
    {
      "anonymous": false,
      "inputs": [
        {
          "indexed": true,
          "internalType": "address",
          "name": "buyer",
          "type": "address"
        },
        {
          "indexed": false,
          "internalType": "uint256",
          "name": "numTokens",
          "type": "uint256"
        },
        {
          "indexed": false,
          "internalType": "uint256",
          "name": "totalCost",
          "type": "uint256"
        }
      ],
      "name": "TokensBought",
      "type": "event"
    },
    {
      "inputs": [],
      "name": "activeIntake",
      "outputs": [
        {
          "internalType": "uint256",
          "name": "",
          "type": "uint256"
        }
      ],
      "stateMutability": "view",
      "type": "function"
    },
    {
      "inputs": [],
      "name": "activePeriod",
      "outputs": [
        {
          "internalType": "uint256",
          "name": "",
          "type": "uint256"
        }
      ],
      "stateMutability": "view",
      "type": "function"
    },
    {
      "inputs": [],
      "name": "activePrice",
      "outputs": [
        {
          "internalType": "uint256",
          "name": "",
          "type": "uint256"
        }
      ],
      "stateMutability": "view",
      "type": "function"
    },
    {
      "inputs": [],
      "name": "activeSold",
      "outputs": [
        {
          "internalType": "uint256",
          "name": "",
          "type": "uint256"
        }
      ],
      "stateMutability": "view",
      "type": "function"
    },
    {
      "inputs": [],
      "name": "allowLimitOrders",
      "outputs": [
        {
          "internalType": "bool",
          "name": "",
          "type": "bool"
        }
      ],
      "stateMutability": "view",
      "type": "function"
    },
    {
      "inputs": [],
      "name": "alpha",
      "outputs": [
        {
          "internalType": "uint256",
          "name": "",
          "type": "uint256"
        }
      ],
      "stateMutability": "view",
      "type": "function"
    },
    {
      "inputs": [],
      "name": "beneficiary",
      "outputs": [
        {
          "internalType": "address payable",
          "name": "",
          "type": "address"
        }
      ],
      "stateMutability": "view",
      "type": "function"
    },
    {
      "inputs": [],
      "name": "continuousSale",
      "outputs": [
        {
          "internalType": "bool",
          "name": "",
          "type": "bool"
        }
      ],
      "stateMutability": "view",
      "type": "function"
    },
    {
      "inputs": [],
      "name": "emaIntake",
      "outputs": [
        {
          "internalType": "uint256",
          "name": "",
          "type": "uint256"
        }
      ],
      "stateMutability": "view",
      "type": "function"
    },
    {
      "inputs": [],
      "name": "endTime",
      "outputs": [
        {
          "internalType": "uint256",
          "name": "",
          "type": "uint256"
        }
      ],
      "stateMutability": "view",
      "type": "function"
    },
    {
      "inputs": [],
      "name": "evolvePrice",
      "outputs": [
        {
          "internalType": "bool",
          "name": "",
          "type": "bool"
        }
      ],
      "stateMutability": "view",
      "type": "function"
    },
    {
      "inputs": [],
      "name": "factory",
      "outputs": [
        {
          "internalType": "address payable",
          "name": "",
          "type": "address"
        }
      ],
      "stateMutability": "view",
      "type": "function"
    },
    {
      "inputs": [],
      "name": "feeFraction",
      "outputs": [
        {
          "internalType": "uint256",
          "name": "",
          "type": "uint256"
        }
      ],
      "stateMutability": "view",
      "type": "function"
    },
    {
      "inputs": [],
      "name": "intakeCap",
      "outputs": [
        {
          "internalType": "uint256",
          "name": "",
          "type": "uint256"
        }
      ],
      "stateMutability": "view",
      "type": "function"
    },
    {
      "inputs": [],
      "name": "limitOrderCount",
      "outputs": [
        {
          "internalType": "uint256",
          "name": "",
          "type": "uint256"
        }
      ],
      "stateMutability": "view",
      "type": "function"
    },
    {
      "inputs": [
        {
          "internalType": "uint256",
          "name": "",
          "type": "uint256"
        }
      ],
      "name": "limitOrders",
      "outputs": [
        {
          "internalType": "address",
          "name": "creator",
          "type": "address"
        },
        {
          "internalType": "uint256",
          "name": "purchasePrice",
          "type": "uint256"
        },
        {
          "internalType": "uint256",
          "name": "amountToSpend",
          "type": "uint256"
        },
        {
          "internalType": "uint256",
          "name": "executorFee",
          "type": "uint256"
        }
      ],
      "stateMutability": "view",
      "type": "function"
    },
    {
      "inputs": [],
      "name": "maxPerPeriod",
      "outputs": [
        {
          "internalType": "uint256",
          "name": "",
          "type": "uint256"
        }
      ],
      "stateMutability": "view",
      "type": "function"
    },
    {
      "inputs": [],
      "name": "minPurchaseFraction",
      "outputs": [
        {
          "internalType": "uint256",
          "name": "",
          "type": "uint256"
        }
      ],
      "stateMutability": "view",
      "type": "function"
    },
    {
      "inputs": [],
      "name": "owner",
      "outputs": [
        {
          "internalType": "address",
          "name": "",
          "type": "address"
        }
      ],
      "stateMutability": "view",
      "type": "function"
    },
    {
      "inputs": [],
      "name": "periodLength",
      "outputs": [
        {
          "internalType": "uint256",
          "name": "",
          "type": "uint256"
        }
      ],
      "stateMutability": "view",
      "type": "function"
    },
    {
      "inputs": [],
      "name": "purchaseToken",
      "outputs": [
        {
          "internalType": "address",
          "name": "",
          "type": "address"
        }
      ],
      "stateMutability": "view",
      "type": "function"
    },
    {
      "inputs": [],
      "name": "renounceOwnership",
      "outputs": [],
      "stateMutability": "nonpayable",
      "type": "function"
    },
    {
      "inputs": [
        {
          "internalType": "address",
          "name": "",
          "type": "address"
        }
      ],
      "name": "soldUser",
      "outputs": [
        {
          "internalType": "uint256",
          "name": "",
          "type": "uint256"
        }
      ],
      "stateMutability": "view",
      "type": "function"
    },
    {
      "inputs": [],
      "name": "startTime",
      "outputs": [
        {
          "internalType": "uint256",
          "name": "",
          "type": "uint256"
        }
      ],
      "stateMutability": "view",
      "type": "function"
    },
    {
      "inputs": [],
      "name": "state",
      "outputs": [
        {
          "internalType": "enum CoinMachine.CoinMachineState",
          "name": "",
          "type": "uint8"
        }
      ],
      "stateMutability": "view",
      "type": "function"
    },
    {
      "inputs": [],
      "name": "stoppable",
      "outputs": [
        {
          "internalType": "bool",
          "name": "",
          "type": "bool"
        }
      ],
      "stateMutability": "view",
      "type": "function"
    },
    {
      "inputs": [],
      "name": "targetPerPeriod",
      "outputs": [
        {
          "internalType": "uint256",
          "name": "",
          "type": "uint256"
        }
      ],
      "stateMutability": "view",
      "type": "function"
    },
    {
      "inputs": [],
      "name": "token",
      "outputs": [
        {
          "internalType": "address",
          "name": "",
          "type": "address"
        }
      ],
      "stateMutability": "view",
      "type": "function"
    },
    {
      "inputs": [
        {
          "internalType": "address",
          "name": "newOwner",
          "type": "address"
        }
      ],
      "name": "transferOwnership",
      "outputs": [],
      "stateMutability": "nonpayable",
      "type": "function"
    },
    {
      "inputs": [],
      "name": "userLimitFraction",
      "outputs": [
        {
          "internalType": "uint256",
          "name": "",
          "type": "uint256"
        }
      ],
      "stateMutability": "view",
      "type": "function"
    },
    {
      "inputs": [],
      "name": "whitelist",
      "outputs": [
        {
          "internalType": "address",
          "name": "",
          "type": "address"
        }
      ],
      "stateMutability": "view",
      "type": "function"
    },
    {
      "inputs": [],
      "name": "wrappedToken",
      "outputs": [
        {
          "internalType": "address",
          "name": "",
          "type": "address"
        }
      ],
      "stateMutability": "view",
      "type": "function"
    },
    {
      "stateMutability": "payable",
      "type": "receive"
    },
    {
      "inputs": [
        {
          "internalType": "address[2]",
          "name": "_tokens",
          "type": "address[2]"
        },
        {
          "internalType": "uint256[2]",
          "name": "_times",
          "type": "uint256[2]"
        },
        {
          "internalType": "uint256[2]",
          "name": "_periodsParams",
          "type": "uint256[2]"
        },
        {
          "internalType": "uint256[2]",
          "name": "_targets",
          "type": "uint256[2]"
        },
        {
          "internalType": "uint256[2]",
          "name": "_limits",
          "type": "uint256[2]"
        },
        {
          "internalType": "uint256",
          "name": "_startingPrice",
          "type": "uint256"
        },
        {
          "internalType": "uint256",
          "name": "_intakeCap",
          "type": "uint256"
        },
        {
          "internalType": "bool[3]",
          "name": "_options",
          "type": "bool[3]"
        },
        {
          "internalType": "address payable",
          "name": "_beneficiary",
          "type": "address"
        },
        {
          "internalType": "address",
          "name": "_whitelist",
          "type": "address"
        }
      ],
      "name": "initialise",
      "outputs": [],
      "stateMutability": "nonpayable",
      "type": "function"
    },
    {
      "inputs": [],
      "name": "pause",
      "outputs": [],
      "stateMutability": "nonpayable",
      "type": "function"
    },
    {
      "inputs": [],
      "name": "unpause",
      "outputs": [],
      "stateMutability": "nonpayable",
      "type": "function"
    },
    {
      "inputs": [],
      "name": "stop",
      "outputs": [],
      "stateMutability": "nonpayable",
      "type": "function"
    },
    {
      "inputs": [],
      "name": "deleteContract",
      "outputs": [],
      "stateMutability": "nonpayable",
      "type": "function"
    },
    {
      "inputs": [
        {
          "internalType": "address payable",
          "name": "_beneficiary",
          "type": "address"
        }
      ],
      "name": "setBeneficiary",
      "outputs": [],
      "stateMutability": "nonpayable",
      "type": "function"
    },
    {
      "inputs": [
        {
          "internalType": "uint256",
          "name": "_numTokens",
          "type": "uint256"
        },
        {
          "internalType": "uint256",
          "name": "_maxPrice",
          "type": "uint256"
        }
      ],
      "name": "buyTokens",
      "outputs": [],
      "stateMutability": "payable",
      "type": "function"
    },
    {
      "inputs": [
        {
          "internalType": "uint256",
          "name": "_purchasePrice",
          "type": "uint256"
        },
        {
          "internalType": "uint256",
          "name": "_amountToSpend",
          "type": "uint256"
        },
        {
          "internalType": "uint256",
          "name": "_executorFee",
          "type": "uint256"
        }
      ],
      "name": "createLimitOrder",
      "outputs": [],
      "stateMutability": "nonpayable",
      "type": "function"
    },
    {
      "inputs": [
        {
          "internalType": "uint256",
          "name": "_id",
          "type": "uint256"
        }
      ],
      "name": "executeLimitOrder",
      "outputs": [],
      "stateMutability": "nonpayable",
      "type": "function"
    },
    {
      "inputs": [
        {
          "internalType": "uint256",
          "name": "_id",
          "type": "uint256"
        }
      ],
      "name": "cancelLimitOrder",
      "outputs": [],
      "stateMutability": "nonpayable",
      "type": "function"
    },
    {
      "inputs": [],
      "name": "updatePeriod",
      "outputs": [],
      "stateMutability": "nonpayable",
      "type": "function"
    },
    {
      "inputs": [],
      "name": "getCurrentPrice",
      "outputs": [
        {
          "internalType": "uint256",
          "name": "",
          "type": "uint256"
        }
      ],
      "stateMutability": "view",
      "type": "function"
    },
    {
      "inputs": [],
      "name": "getTokenBalance",
      "outputs": [
        {
          "internalType": "uint256",
          "name": "",
          "type": "uint256"
        }
      ],
      "stateMutability": "view",
      "type": "function"
    },
    {
      "inputs": [],
      "name": "getSellableTokens",
      "outputs": [
        {
          "internalType": "uint256",
          "name": "",
          "type": "uint256"
        }
      ],
      "stateMutability": "view",
      "type": "function"
    },
    {
      "inputs": [],
      "name": "getMinPurchase",
      "outputs": [
        {
          "internalType": "uint256",
          "name": "",
          "type": "uint256"
        }
      ],
      "stateMutability": "view",
      "type": "function"
    },
    {
      "inputs": [
        {
          "internalType": "address",
          "name": "_user",
          "type": "address"
        }
      ],
      "name": "getMaxPurchase",
      "outputs": [
        {
          "internalType": "uint256",
          "name": "",
          "type": "uint256"
        }
      ],
      "stateMutability": "view",
      "type": "function"
    },
    {
      "inputs": [
        {
          "internalType": "address",
          "name": "_user",
          "type": "address"
        }
      ],
      "name": "getUserLimit",
      "outputs": [
        {
          "internalType": "uint256",
          "name": "",
          "type": "uint256"
        }
      ],
      "stateMutability": "view",
      "type": "function"
    },
    {
      "inputs": [],
      "name": "getTotalIntake",
      "outputs": [
        {
          "internalType": "uint256",
          "name": "",
          "type": "uint256"
        }
      ],
      "stateMutability": "view",
      "type": "function"
    },
    {
      "inputs": [],
      "name": "getSoldTotal",
      "outputs": [
        {
          "internalType": "uint256",
          "name": "",
          "type": "uint256"
        }
      ],
      "stateMutability": "view",
      "type": "function"
    },
    {
      "inputs": [],
      "name": "getCurrentPeriod",
      "outputs": [
        {
          "internalType": "uint256",
          "name": "",
          "type": "uint256"
        }
      ],
      "stateMutability": "view",
      "type": "function"
    },
    {
      "inputs": [],
      "name": "getLimitOrderPurchaseToken",
      "outputs": [
        {
          "internalType": "address",
          "name": "",
          "type": "address"
        }
      ],
      "stateMutability": "view",
      "type": "function"
    }
  ],
  "bytecode": "0x60e06040523480156200001157600080fd5b5060405162003362380380620033628339810160408190526200003491620001bd565b6200003f336200006f565b3360805260a08290526001600160a01b03811660c0526000196004556200006683620000bf565b505050620001fe565b600080546001600160a01b038381166001600160a01b0319831681178455604051919092169283917f8be0079c531659141344cd1fd0a4f28419497f9722a3daafe3b4186f6b6457e09190a35050565b620000c962000142565b6001600160a01b038116620001345760405162461bcd60e51b815260206004820152602660248201527f4f776e61626c653a206e6577206f776e657220697320746865207a65726f206160448201526564647265737360d01b60648201526084015b60405180910390fd5b6200013f816200006f565b50565b6000546001600160a01b031633146200019e5760405162461bcd60e51b815260206004820181905260248201527f4f776e61626c653a2063616c6c6572206973206e6f7420746865206f776e657260448201526064016200012b565b565b80516001600160a01b0381168114620001b857600080fd5b919050565b600080600060608486031215620001d357600080fd5b620001de84620001a0565b925060208401519150620001f560408501620001a0565b90509250925092565b60805160a05160c051613111620002516000396000818161067a01528181610be901526117cd015260008181610538015261273701526000818161082a0152818161281101526128c101526131116000f3fe60806040526004361061031e5760003560e01c806385bb8e29116101ab578063be0a64a2116100f7578063db1d0fd511610095578063eb91d37e1161006f578063eb91d37e14610904578063f2fde38b14610919578063f871919914610939578063fc0c546a1461095957600080fd5b8063db1d0fd5146108b8578063e2f90823146108ce578063e9587e86146108e457600080fd5b8063c7219460116100d1578063c72194601461084c578063c8b42c651461086c578063d2ca21151461088c578063d53316b2146108a257600080fd5b8063be0a64a2146107d4578063c19d93fb146107ea578063c45a01551461081857600080fd5b8063a5cdc8fc11610164578063b497d5011161013e578063b497d50114610767578063b5b2f1ef1461077d578063bb4872de14610792578063bdfcb771146107b357600080fd5b8063a5cdc8fc14610712578063a83627de14610732578063a95c4d621461074757600080fd5b806385bb8e29146105d85780638da5cb5b1461060957806391cadaf61461062757806393e59dc114610648578063996c6cc314610668578063a3e2b4951461069c57600080fd5b80633197cbb61161026a5780635bf8eddd116102235780637975ce28116101fd5780637975ce2814610585578063810226311461059857806382b2e257146105ae5780638456cb59146105c357600080fd5b80635bf8eddd14610526578063715018a61461055a57806378e979251461056f57600080fd5b80633197cbb61461048357806338af3eed146104995780633aee29d2146104d15780633f4ba83a146104e657806352a30384146104fb5780635a58cd4c1461051157600080fd5b8063114f6769116102d757806324604da0116102b157806324604da0146104155780632869b1281461042a5780632b96d909146104575780633098d9921461046d57600080fd5b8063114f6769146103c05780631c31f710146103e057806323d631eb1461040057600080fd5b806307da68f51461032a578063086146d2146103415780630a441f7b146103695780630aed14281461037f5780630c707339146103955780630f3d8803146103ab57600080fd5b3661032557005b600080fd5b34801561033657600080fd5b5061033f610979565b005b34801561034d57600080fd5b50610356610a66565b6040519081526020015b60405180910390f35b34801561037557600080fd5b50610356600a5481565b34801561038b57600080fd5b5061035660095481565b3480156103a157600080fd5b50610356600e5481565b3480156103b757600080fd5b50610356610a82565b3480156103cc57600080fd5b506103566103db366004612c6c565b610aa9565b3480156103ec57600080fd5b5061033f6103fb366004612c6c565b610aeb565b34801561040c57600080fd5b50610356610b9e565b34801561042157600080fd5b50610356610bb0565b34801561043657600080fd5b50610356610445366004612c6c565b60136020526000908152604090205481565b34801561046357600080fd5b50610356600c5481565b34801561047957600080fd5b5061035660165481565b34801561048f57600080fd5b5061035660055481565b3480156104a557600080fd5b506003546104b9906001600160a01b031681565b6040516001600160a01b039091168152602001610360565b3480156104dd57600080fd5b506104b9610bc2565b3480156104f257600080fd5b5061033f610c0b565b34801561050757600080fd5b50610356600b5481565b34801561051d57600080fd5b5061033f610c92565b34801561053257600080fd5b506103567f000000000000000000000000000000000000000000000000000000000000000081565b34801561056657600080fd5b5061033f610ef5565b34801561057b57600080fd5b5061035660045481565b61033f610593366004612c89565b610f07565b3480156105a457600080fd5b50610356600d5481565b3480156105ba57600080fd5b50610356610f7c565b3480156105cf57600080fd5b5061033f610fe9565b3480156105e457600080fd5b506003546105f990600160b81b900460ff1681565b6040519015158152602001610360565b34801561061557600080fd5b506000546001600160a01b03166104b9565b34801561063357600080fd5b506003546105f990600160a01b900460ff1681565b34801561065457600080fd5b50600f546104b9906001600160a01b031681565b34801561067457600080fd5b506104b97f000000000000000000000000000000000000000000000000000000000000000081565b3480156106a857600080fd5b506106e86106b7366004612cab565b60176020526000908152604090208054600182015460028301546003909301546001600160a01b0390921692909184565b604080516001600160a01b0390951685526020850193909352918301526060820152608001610360565b34801561071e57600080fd5b5061033f61072d366004612cab565b61109a565b34801561073e57600080fd5b5061033f611227565b34801561075357600080fd5b506002546104b9906001600160a01b031681565b34801561077357600080fd5b5061035660105481565b34801561078957600080fd5b506103566113a9565b34801561079e57600080fd5b506003546105f990600160a81b900460ff1681565b3480156107bf57600080fd5b506003546105f990600160b01b900460ff1681565b3480156107e057600080fd5b5061035660085481565b3480156107f657600080fd5b5060005461080b90600160a01b900460ff1681565b6040516103609190612cda565b34801561082457600080fd5b506104b97f000000000000000000000000000000000000000000000000000000000000000081565b34801561085857600080fd5b5061033f610867366004612cab565b6113fc565b34801561087857600080fd5b5061033f610887366004612e1c565b611705565b34801561089857600080fd5b5061035660065481565b3480156108ae57600080fd5b5061035660155481565b3480156108c457600080fd5b5061035660075481565b3480156108da57600080fd5b5061035660115481565b3480156108f057600080fd5b506103566108ff366004612c6c565b611dfc565b34801561091057600080fd5b50610356611e7a565b34801561092557600080fd5b5061033f610934366004612c6c565b611f47565b34801561094557600080fd5b5061033f610954366004612f16565b611fbd565b34801561096557600080fd5b506001546104b9906001600160a01b031681565b6109816121ab565b600354600160a81b900460ff166109df5760405162461bcd60e51b815260206004820152601a60248201527f636f696e2d6d616368696e652d6e6f742d73746f707061626c6500000000000060448201526064015b60405180910390fd5b6002600054600160a01b900460ff1660028111156109ff576109ff612cc4565b03610a4c5760405162461bcd60e51b815260206004820152601c60248201527f636f696e2d6d616368696e652d616c72656164792d73746f707065640000000060448201526064016109d6565b42600555610a5a6000612205565b610a64600261226c565b565b6000600654610a736122c5565b610a7d9190612f6e565b905090565b6000610a7d601054610a92610f7c565b610a9a610b9e565b610aa49190612f82565b6122ed565b600080610ab4610f7c565b90506000610ac06113a9565b90506000610acd85611dfc565b9050610ae281610add8585612313565b612313565b95945050505050565b610af36121ab565b6001600160a01b038116610b495760405162461bcd60e51b815260206004820152601c60248201527f636f696e2d6d616368696e652d6261642d62656e65666963696172790000000060448201526064016109d6565b600380546001600160a01b0319166001600160a01b0383169081179091556040519081527f04d55a8be181fb8d75b76f2d48aa0b2ee40f47e53d6e61763eeeec46feea8a24906020015b60405180910390a150565b6000600c54601254610a7d9190612f82565b6000600d54601454610a7d9190612f82565b6002546000906001600160a01b031615610be657506002546001600160a01b031690565b507f000000000000000000000000000000000000000000000000000000000000000090565b610c136121ab565b6001600054600160a01b900460ff166002811115610c3357610c33612cc4565b14610c805760405162461bcd60e51b815260206004820152601760248201527f636f696e2d6d616368696e652d6e6f742d70617573656400000000000000000060448201526064016109d6565b610c8a600061226c565b610a64611227565b610c9a6121ab565b4260055462278d00610cac9190612f82565b1115610cfa5760405162461bcd60e51b815260206004820152601a60248201527f636f696e2d6d616368696e652d63616e6e6f742d64656c65746500000000000060448201526064016109d6565b6000610d04610f7c565b60015460035460405163a9059cbb60e01b81526001600160a01b03918216600482015260248101849052929350169063a9059cbb906044016020604051808303816000875af1158015610d5b573d6000803e3d6000fd5b505050506040513d601f19601f82011682018060405250810190610d7f9190612f95565b610d9b5760405162461bcd60e51b81526004016109d690612fb2565b6000610da5610bc2565b6040516370a0823160e01b81523060048201529091506000906001600160a01b038316906370a0823190602401602060405180830381865afa158015610def573d6000803e3d6000fd5b505050506040513d601f19601f82011682018060405250810190610e139190612fe9565b60035460405163a9059cbb60e01b81526001600160a01b0391821660048201526024810183905291925083169063a9059cbb906044016020604051808303816000875af1158015610e68573d6000803e3d6000fd5b505050506040513d601f19601f82011682018060405250810190610e8c9190612f95565b610ea85760405162461bcd60e51b81526004016109d690612fb2565b6040805184815260208101839052478183015290517fe5b26d25fa607d899647938b184755e3bbf0eb7e140d357ffbc18ca0350934b29181900360600190a16003546001600160a01b0316ff5b610efd6121ab565b610a64600061232a565b610f0f611227565b80610f18611e7a565b1115610f5f5760405162461bcd60e51b8152602060048201526016602482015275636f696e2d6d616368696e652d6261642d707269636560501b60448201526064016109d6565b600254610f7890339084906001600160a01b031661237a565b5050565b6001546040516370a0823160e01b81523060048201526000916001600160a01b0316906370a0823190602401602060405180830381865afa158015610fc5573d6000803e3d6000fd5b505050506040513d601f19601f82011682018060405250810190610a7d9190612fe9565b610ff16121ab565b600354600160a81b900460ff1661104a5760405162461bcd60e51b815260206004820152601a60248201527f636f696e2d6d616368696e652d6e6f742d73746f707061626c6500000000000060448201526064016109d6565b60008054600160a01b900460ff16600281111561106957611069612cc4565b146110865760405162461bcd60e51b81526004016109d690613002565b6110906000612205565b610a64600161226c565b6000818152601760205260409020546001600160a01b031633146111005760405162461bcd60e51b815260206004820152601e60248201527f636f696e2d6d616368696e652d6e6f742d6f726465722d63726561746f72000060448201526064016109d6565b600081815260176020526040812060038101805482546001600160a01b0319168355600183018490556002909201839055829055600554909190421015611152576003546001600160a01b0316611154565b335b905061115e610bc2565b60405163a9059cbb60e01b81526001600160a01b03838116600483015260248201859052919091169063a9059cbb906044016020604051808303816000875af11580156111af573d6000803e3d6000fd5b505050506040513d601f19601f820116820180604052508101906111d39190612f95565b6111ef5760405162461bcd60e51b81526004016109d690613039565b6040518381527fa79034042a790ce528ef3275727fa99fa364bebccd18f9d6094e524e8c075f869060200160405180910390a1505050565b6000611231610a66565b905080600a5411156112455761124561306e565b80600a5410156113a657600a54600354600160a01b900460ff1661128a576112856000611270610f7c565b1180156112805750611280612b4f565b612205565b611329565b611298600754600d546122ed565b6112b9600754670de0b6b3a76400006112b19190613084565b600e546122ed565b6112c39190612f82565b600e55600060016112d48385613084565b6112de9190613084565b9050801561130c576113086112b1600754670de0b6b3a76400006113029190613084565b83612b76565b600e555b61132461131d600e54600854612b90565b6001612ba5565b600b55505b600d546014600082825461133d9190612f82565b9091555050600c5460128054600090611357908490612f82565b9091555050600a8290556000600d819055600c5560408051828152602081018490527f5b873fc01d45058fe77f3883a91020f46d5a7385baac6ceab19748d1d0ae464a910160405180910390a1505b50565b6000610a7d6113b6610a66565b600a5410156113c65760006113ca565b600c545b6009546113d79190613084565b610add6113e2610bb0565b6015546113ef9190613084565b6113f7611e7a565b612b90565b60165481111561144e5760405162461bcd60e51b815260206004820152601c60248201527f636f696e2d6d616368696e652d6f726465722d6e6f742d666f756e640000000060448201526064016109d6565b6000818152601760205260409020611464611227565b600061146e611e7a565b905081600101548111156114c45760405162461bcd60e51b815260206004820152601b60248201527f636f696e2d6d616368696e652d70726963652d746f6f2d68696768000000000060448201526064016109d6565b60006114eb6114d7846002015484612b90565b8454610add906001600160a01b0316610aa9565b905060006114f982846122ed565b905060006115138560030154610aa4848860020154612b90565b90508185600201546115259190613084565b6002860155600385015461153a908290613084565b6003860155845460028601546001600160a01b039091169060011061158857600087815260176020526040812080546001600160a01b03191681556001810182905560028101829055600301555b6000611592610bc2565b90506001600160a01b0381166115aa576115aa61306e565b60405163a9059cbb60e01b8152336004820152602481018490526001600160a01b0382169063a9059cbb906044016020604051808303816000875af11580156115f7573d6000803e3d6000fd5b505050506040513d601f19601f8201168201806040525081019061161b9190612f95565b6116375760405162461bcd60e51b81526004016109d690613039565b604051636eb1769f60e11b81526001600160a01b03838116600483015230602483015285919083169063dd62ed3e90604401602060405180830381865afa158015611686573d6000803e3d6000fd5b505050506040513d601f19601f820116820180604052508101906116aa9190612fe9565b106116ba576116ba82868361237a565b60408051898152602081018690529081018490527f17b224decce18200c88135db1990ee979165120be064f645ef080dd0e501f6dd9060600160405180910390a15050505050505050565b61170d6121ab565b600454421061175e5760405162461bcd60e51b815260206004820152601760248201527f636f696e2d6d616368696e652d73616c652d626567756e00000000000000000060448201526064016109d6565b89516001600160a01b03166117b55760405162461bcd60e51b815260206004820152601a60248201527f636f696e2d6d616368696e652d696e76616c69642d746f6b656e00000000000060448201526064016109d6565b60208a01516001600160a01b03161515806117f857507f00000000000000000000000000000000000000000000000000000000000000006001600160a01b031615155b6118445760405162461bcd60e51b815260206004820152601a60248201527f636f696e2d6d616368696e652d696e76616c69642d746f6b656e00000000000060448201526064016109d6565b87516118925760405162461bcd60e51b815260206004820152601d60248201527f636f696e2d6d616368696e652d706572696f642d746f6f2d736d616c6c00000060448201526064016109d6565b60208801516118e35760405162461bcd60e51b815260206004820152601d60248201527f636f696e2d6d616368696e652d77696e646f772d746f6f2d736d616c6c00000060448201526064016109d6565b602088015161020010156119395760405162461bcd60e51b815260206004820152601d60248201527f636f696e2d6d616368696e652d77696e646f772d746f6f2d6c6172676500000060448201526064016109d6565b86516119875760405162461bcd60e51b815260206004820152601d60248201527f636f696e2d6d616368696e652d7461726765742d746f6f2d736d616c6c00000060448201526064016109d6565b6020870151875111156119dc5760405162461bcd60e51b815260206004820152601a60248201527f636f696e2d6d616368696e652d6d61782d746f6f2d736d616c6c00000000000060448201526064016109d6565b8551670de0b6b3a76400001015611a355760405162461bcd60e51b815260206004820152601c60248201527f636f696e2d6d616368696e652d6c696d69742d746f6f2d6c617267650000000060448201526064016109d6565b8551611a835760405162461bcd60e51b815260206004820152601c60248201527f636f696e2d6d616368696e652d6c696d69742d746f6f2d736d616c6c0000000060448201526064016109d6565b602086015186511015611ad85760405162461bcd60e51b815260206004820181905260248201527f636f696e2d6d616368696e652d6c696d6974732d696e636f6e73697374656e7460448201526064016109d6565b60008511611b285760405162461bcd60e51b815260206004820152601c60248201527f636f696e2d6d616368696e652d70726963652d746f6f2d736d616c6c0000000060448201526064016109d6565b6001600160801b03851115611b7f5760405162461bcd60e51b815260206004820152601a60248201527f636f696e2d6d616368696e652d70726963652d746f6f2d62696700000000000060448201526064016109d6565b6001600160801b03841115611bd65760405162461bcd60e51b815260206004820152601860248201527f636f696e2d6d616368696e652d6361702d746f6f2d626967000000000000000060448201526064016109d6565b8951600180546001600160a01b039283166001600160a01b03199182161790915560208c015160028054919093169116179055885115611c17578851611c19565b425b600455602089015115611c30576020890151611c40565b600454611c409062ed4e00612f82565b600555600454421115611c955760405162461bcd60e51b815260206004820152601b60248201527f636f696e2d6d616368696e652d6261642d73746172742d74696d65000000000060448201526064016109d6565b60055460045410611ce85760405162461bcd60e51b815260206004820152601960248201527f636f696e2d6d616368696e652d6261642d656e642d74696d650000000000000060448201526064016109d6565b87516006556020880151611d04906002906113f7906001612f82565b600755865160088190556020808901516009558751601155870151601055600b869055611d3190866122ed565b600e556015849055825160038054602086015160408701511515600160b81b02901515600160b01b0261ffff60a81b19909216931515600160a81b0260ff60b01b1916939093171760ff60b81b1916919091179055611d8f82610aeb565b600f80546001600160a01b0319166001600160a01b038316179055611db4600061226c565b611dc76000611dc1610f7c565b11612205565b6040517f8659acc9ee6146ef7e0dcc9851284bd43577098ffbe0119792784129fa0d2eed90600090a150505050505050505050565b6000670de0b6b3a76400006011541480611e1f5750600f546001600160a01b0316155b611e70576001600160a01b038216600090815260136020526040902054611e61611e47610b9e565b611e4f610f7c565b611e599190612f82565b6011546122ed565b611e6b9190613084565b611e74565b6000195b92915050565b600080611e85610a66565b905080600a54101580611ea25750600354600160a01b900460ff16155b15611eaf575050600b5490565b600e54600754600d54611ec291906122ed565b611ee1600754670de0b6b3a7640000611edb9190613084565b836122ed565b611eeb9190612f82565b905060006001600a5484611eff9190613084565b611f099190613084565b90508015611f3057611f2d611edb600754670de0b6b3a76400006113029190613084565b91505b611f3f61131d83600854612b90565b935050505090565b611f4f6121ab565b6001600160a01b038116611fb45760405162461bcd60e51b815260206004820152602660248201527f4f776e61626c653a206e6577206f776e657220697320746865207a65726f206160448201526564647265737360d01b60648201526084016109d6565b6113a68161232a565b611fc5612b4f565b611fe15760405162461bcd60e51b81526004016109d690613002565b600354600160b01b900460ff166120455760405162461bcd60e51b815260206004820152602260248201527f636f696e2d6d616368696e652d6c696d69742d6f72646572732d64697361626c604482015261195960f21b60648201526084016109d6565b61204d610bc2565b6040516323b872dd60e01b8152336004820152306024820152604481018390526001600160a01b0391909116906323b872dd906064016020604051808303816000875af11580156120a2573d6000803e3d6000fd5b505050506040513d601f19601f820116820180604052508101906120c69190612f95565b6120e25760405162461bcd60e51b81526004016109d690613039565b601680549060006120f283613097565b909155505060408051608080820183523380835260208084018881528486018881526060808701898152601680546000908152601787528a9020985189546001600160a01b0319166001600160a01b039091161789559351600189015591516002880155905160039096019590955554855190815290810188905293840186905291830184905290917f3a7d2e94cabf944a15f064b55e235dd1ad06f5df84561d5339ed98e8194906e9910160405180910390a2505050565b6000546001600160a01b03163314610a645760405162461bcd60e51b815260206004820181905260248201527f4f776e61626c653a2063616c6c6572206973206e6f7420746865206f776e657260448201526064016109d6565b600360149054906101000a900460ff161515811515146113a65760038054821515600160a01b0260ff60a01b199091161790556040517f5b4e200daa1a93764a810c35f18f2fcfb14b5e95df6ae7ac1ffdc8eec425babc90610b9390831515815260200190565b6000805482919060ff60a01b1916600160a01b83600281111561229157612291612cc4565b02179055507fd2d7d26509a0f467151b1957c8c832c751923756862314d6002c201f254b64f681604051610b939190612cda565b60006004546122e3601854426122db9190612f82565b600454612ba5565b610a7d9190613084565b6000670de0b6b3a764000061230283856130b0565b61230c9190612f6e565b9392505050565b600081831115612323578161230c565b5090919050565b600080546001600160a01b038381166001600160a01b0319831681178455604051919092169283917f8be0079c531659141344cd1fd0a4f28419497f9722a3daafe3b4186f6b6457e09190a35050565b612382612b4f565b61239e5760405162461bcd60e51b81526004016109d690613002565b6123a6610a66565b600a5410156123b7576123b761306e565b4260045411156124095760405162461bcd60e51b815260206004820152601b60248201527f636f696e2d6d616368696e652d73616c652d6e6f742d626567756e000000000060448201526064016109d6565b60055442106124535760405162461bcd60e51b815260206004820152601660248201527531b7b4b716b6b0b1b434b73296b9b0b63296b7bb32b960511b60448201526064016109d6565b600f546001600160a01b031615806124d45750600f5460405163673448dd60e01b81526001600160a01b0385811660048301529091169063673448dd90602401602060405180830381865afa1580156124b0573d6000803e3d6000fd5b505050506040513d601f19601f820116820180604052508101906124d49190612f95565b6125205760405162461bcd60e51b815260206004820152601960248201527f636f696e2d6d616368696e652d756e617574686f72697365640000000000000060448201526064016109d6565b600061252b84610aa9565b905060006125398285612313565b905060008111612587573415612580576040516001600160a01b038616903480156108fc02916000818181858888f1935050505015801561257e573d6000803e3d6000fd5b505b5050505050565b600061259582600b546122ed565b905080600d60008282546125a99190612f82565b9091555050601154670de0b6b3a764000011806125c857506000601054115b156126735760006125d7610a82565b6001600160a01b038816600090815260136020526040812080549293508592909190612604908490612f82565b90915550506001600160a01b0387166000908152601360205260409020548111156126715760405162461bcd60e51b815260206004820152601f60248201527f636f696e2d6d616368696e652d70757263686173652d746f6f2d736d616c6c0060448201526064016109d6565b505b81600c60008282546126859190612f82565b9091555050601554612695610bb0565b11156126a3576126a361306e565b600954600c5411156126b7576126b761306e565b6126bf610f7c565b82106126cf576126cf6000612205565b600954600c541480156126eb5750600354600160b81b900460ff165b1561272f5760006006546126fd6122c5565b61270791906130c7565b9050806006546127179190613084565b601860008282546127289190612f82565b9091555050505b600061275b827f00000000000000000000000000000000000000000000000000000000000000006122ed565b90506001600160a01b0385166128a257813410156127bb5760405162461bcd60e51b815260206004820152601f60248201527f636f696e2d6d616368696e652d696e73756666696369656e742d66756e64730060448201526064016109d6565b81341115612804576001600160a01b0387166108fc6127da8434613084565b6040518115909202916000818181858888f19350505050158015612802573d6000803e3d6000fd5b505b6040516001600160a01b037f0000000000000000000000000000000000000000000000000000000000000000169082156108fc029083906000818181858888f1935050505015801561285a573d6000803e3d6000fd5b506003546001600160a01b03166108fc6128748385613084565b6040518115909202916000818181858888f1935050505015801561289c573d6000803e3d6000fd5b50612a6f565b6040516323b872dd60e01b81526001600160a01b0388811660048301527f000000000000000000000000000000000000000000000000000000000000000081166024830152604482018390528616906323b872dd906064016020604051808303816000875af1158015612919573d6000803e3d6000fd5b505050506040513d601f19601f8201168201806040525081019061293d9190612f95565b6129895760405162461bcd60e51b815260206004820152601c60248201527f636f696e2d6d616368696e652d70757263686173652d6661696c65640000000060448201526064016109d6565b6003546001600160a01b03808716916323b872dd918a91166129ab8587613084565b6040516001600160e01b031960e086901b1681526001600160a01b03938416600482015292909116602483015260448201526064016020604051808303816000875af11580156129ff573d6000803e3d6000fd5b505050506040513d601f19601f82011682018060405250810190612a239190612f95565b612a6f5760405162461bcd60e51b815260206004820152601c60248201527f636f696e2d6d616368696e652d70757263686173652d6661696c65640000000060448201526064016109d6565b60015460405163a9059cbb60e01b81526001600160a01b038981166004830152602482018690529091169063a9059cbb906044016020604051808303816000875af1158015612ac2573d6000803e3d6000fd5b505050506040513d601f19601f82011682018060405250810190612ae69190612f95565b612b025760405162461bcd60e51b81526004016109d690612fb2565b60408051848152602081018490526001600160a01b038916917f8442948036198f1146d3a63c3db355d7e0295c2cc5676c755990445da4fdc1c9910160405180910390a250505050505050565b600080600054600160a01b900460ff166002811115612b7057612b70612cc4565b14905090565b6000633b9aca00612302612b8a85836130b0565b84612bb5565b600081612302670de0b6b3a7640000856130b0565b600081831015612323578161230c565b6000612bc26002836130c7565b600003612bdb576b033b2e3c9fd0803ce8000000612bdd565b825b9050612bea600283612f6e565b91505b8115611e7457612bfd8384612c2e565b9250612c0a6002836130c7565b15612c1c57612c198184612c2e565b90505b612c27600283612f6e565b9150612bed565b60006b033b2e3c9fd0803ce800000061230283856130b0565b6001600160a01b03811681146113a657600080fd5b8035612c6781612c47565b919050565b600060208284031215612c7e57600080fd5b813561230c81612c47565b60008060408385031215612c9c57600080fd5b50508035926020909101359150565b600060208284031215612cbd57600080fd5b5035919050565b634e487b7160e01b600052602160045260246000fd5b6020810160038310612cfc57634e487b7160e01b600052602160045260246000fd5b91905290565b6040805190810167ffffffffffffffff81118282101715612d3357634e487b7160e01b600052604160045260246000fd5b60405290565b600082601f830112612d4a57600080fd5b612d52612d02565b806040840185811115612d6457600080fd5b845b81811015612d7e578035845260209384019301612d66565b509095945050505050565b80151581146113a657600080fd5b600082601f830112612da857600080fd5b6040516060810181811067ffffffffffffffff82111715612dd957634e487b7160e01b600052604160045260246000fd5b604052806060840185811115612dee57600080fd5b845b81811015612e11578035612e0381612d89565b835260209283019201612df0565b509195945050505050565b6000806000806000806000806000806102208b8d031215612e3c57600080fd5b8b601f8c0112612e4b57600080fd5b612e53612d02565b8060408d018e811115612e6557600080fd5b8d5b81811015612e88578035612e7a81612c47565b845260209384019301612e67565b50819c50612e968f82612d39565b9b50505050612ea88c60808d01612d39565b9750612eb78c60c08d01612d39565b9650612ec78c6101008d01612d39565b95506101408b013594506101608b01359350612ee78c6101808d01612d97565b9250612ef66101e08c01612c5c565b9150612f056102008c01612c5c565b90509295989b9194979a5092959850565b600080600060608486031215612f2b57600080fd5b505081359360208301359350604090920135919050565b634e487b7160e01b600052601260045260246000fd5b634e487b7160e01b600052601160045260246000fd5b600082612f7d57612f7d612f42565b500490565b80820180821115611e7457611e74612f58565b600060208284031215612fa757600080fd5b815161230c81612d89565b6020808252601c908201527f636f696e2d6d616368696e652d7472616e736665722d6661696c656400000000604082015260600190565b600060208284031215612ffb57600080fd5b5051919050565b60208082526017908201527f636f696e2d6d616368696e652d6e6f742d616374697665000000000000000000604082015260600190565b6020808252818101527f636f696e2d6d616368696e652d6665652d7472616e736665722d6661696c6564604082015260600190565b634e487b7160e01b600052600160045260246000fd5b81810381811115611e7457611e74612f58565b6000600182016130a9576130a9612f58565b5060010190565b8082028115828204841417611e7457611e74612f58565b6000826130d6576130d6612f42565b50069056fea264697066735822122074d140f0d0366d2827cca7001c613b6874a274eec5347e61a985fa13acb51d8c64736f6c63430008110033",
  "immutableReferences": {
    "913": [
      {
        "length": 32,
        "start": 2090
      },
      {
        "length": 32,
        "start": 10257
      },
      {
        "length": 32,
        "start": 10433
      }
    ],
    "915": [
      {
        "length": 32,
        "start": 1336
      },
      {
        "length": 32,
        "start": 10039
      }
    ],
    "917": [
      {
        "length": 32,
        "start": 1658
      },
      {
        "length": 32,
        "start": 3049
      },
      {
        "length": 32,
        "start": 6093
      }
    ]
  },
  "source": "// SPDX-License-Identifier: GPL-3.0-only\n/*\n  This file is part of The Colony Network.\n\n  The Colony Network is free software: you can redistribute it and/or modify\n  it under the terms of the GNU General Public License as published by\n  the Free Software Foundation, either version 3 of the License, or\n  (at your option) any later version.\n\n  The Colony Network is distributed in the hope that it will be useful,\n  but WITHOUT ANY WARRANTY; without even the implied warranty of\n  MERCHANTABILITY or FITNESS FOR A PARTICULAR PURPOSE.  See the\n  GNU General Public License for more details.\n\n  You should have received a copy of the GNU General Public License\n  along with The Colony Network. If not, see <http://www.gnu.org/licenses/>.\n*/\n\npragma solidity 0.8.17;\n\nimport \"./Math.sol\";\nimport \"./Whitelist.sol\";\nimport \"@openzeppelin/contracts/access/Ownable.sol\";\nimport \"@openzeppelin/contracts/token/ERC20/ERC20.sol\";\n\n\n// ignore-file-swc-108\n\ncontract CoinMachine is Ownable, Math {\n  receive() external payable {}\n\n  // Events\n\n  event CoinMachineInitialised();\n  event TokensBought(address indexed buyer, uint256 numTokens, uint256 totalCost);\n  event PeriodUpdated(uint256 activePeriod, uint256 currentPeriod);\n  event PriceEvolutionSet(bool evolvePrice);\n  event BeneficiarySet(address beneficiary);\n  event CoinMachineStateSet(CoinMachineState state);\n  event LimitOrderCreated(uint256 id, address indexed creator, uint256 purchasePrice, uint256 amountToSpend, uint256 executorFee);\n  event LimitOrderExecuted(uint256 id, uint256 amountToSpend, uint256 executorFee);\n  event LimitOrderCancelled(uint256 id);\n  event CoinMachineDeleted(uint256 tokenBalance, uint256 purchaseTokenBalance, uint256 chainNativeTokenBalance);\n\n  // Datatypes\n\n   enum CoinMachineState { Active, Paused, Stopped }\n\n   struct LimitOrder {\n    address creator;\n    uint256 purchasePrice; // Price to purchase at (or below)\n    uint256 amountToSpend; // Number of tokens to spend\n    uint256 executorFee; // Amount executor receives to fulfill the order\n   }\n\n  // Immutables\n\n  address payable public immutable factory; // The coin machine factory address\n  uint256 public immutable feeFraction; // The fraction defining the sale fee\n  address public immutable wrappedToken; // If purchaseToken is chain-native token, use a wrapped token\n\n  // Storage\n\n  CoinMachineState public state; // The state of the coin machine\n\n  address public token; // The token we are selling\n  address public purchaseToken; // The token in which we receive payments, 0x0 for eth\n  address payable public beneficiary; // Address to receive sale proceeds\n\n  bool public evolvePrice; // If we should evolve the price or not\n  bool public stoppable; // Whether the sale can be paused/stopped\n  bool public allowLimitOrders; // Whether the sale supports limit orders\n  bool public continuousSale; // Whether periods advance on sell-out\n\n  uint256 public startTime; // Timestamp to begin the sale\n  uint256 public endTime; // Timestamp to end the sale\n\n  uint256 public periodLength; // Duration of a sale period in seconds (e.g. 3600 = 1 hour)\n  uint256 public alpha; // WAD-denominated float between 0 and 1 that controls how quickly the EMA adjusts\n\n  uint256 public targetPerPeriod; // Target number of tokens to sell in a period\n  uint256 public maxPerPeriod; // Maximum number of tokens sellable in a period\n\n  uint256 public activePeriod; // The active sale period\n  uint256 public activePrice; // The active sale price (a WAD ratio of averageIntake / targetPerPeriod)\n\n  uint256 public activeSold; // Tokens sold in the active period\n  uint256 public activeIntake; // Payment received in the active period\n  uint256 public emaIntake; // Averaged payment intake\n\n  address public whitelist; // Address of an optional whitelist\n\n  uint256 public minPurchaseFraction; // Minimum percent of supply a user can buy (in WADs)\n  uint256 public userLimitFraction; // Limit an address can buy of the total supply (in WADs)\n  uint256 soldTotalPastPeriods; // Total tokens sold by the coin machine, excluding current period\n  mapping(address => uint256) public soldUser; // Tokens sold to a particular user\n\n  uint256 totalIntakePastPeriods; // Total amount of purchaseToken we have received, excluding current period\n  uint256 public intakeCap; // Maximum amount of purchaseToken we wish to recieve\n\n  uint256 public limitOrderCount;\n  mapping(uint256 => LimitOrder) public limitOrders; // Limit orders, stored by sequential id\n\n  uint256 sellOutOffset;\n\n  // Constructor\n\n  constructor(address _owner, uint256 _feeFraction, address _wrappedToken) {\n    factory = payable(msg.sender);\n    feeFraction = _feeFraction;\n    wrappedToken = _wrappedToken;\n    startTime = type(uint256).max;\n    transferOwnership(_owner);\n  }\n\n  // Modifiers\n\n  modifier active() {\n    require(isActive(), \"coin-machine-not-active\");\n    _;\n  }\n\n  // Owner\n\n  uint256 constant TOKEN_IDX = 0;\n  uint256 constant PURCHASE_TOKEN_IDX = 1;\n  uint256 constant START_TIME_IDX = 0;\n  uint256 constant END_TIME_IDX = 1;\n  uint256 constant PERIOD_LENGTH_IDX = 0;\n  uint256 constant WINDOW_SIZE_IDX = 1;\n  uint256 constant SALE_TARGET_IDX = 0;\n  uint256 constant SALE_MAX_IDX = 1;\n  uint256 constant BUY_MAX_IDX = 0;\n  uint256 constant BUY_MIN_IDX = 1;\n  uint256 constant STOPPABLE_IDX = 0;\n  uint256 constant LIMIT_ORDERS_IDX = 1;\n  uint256 constant CONTINUOUS_SALE_IDX = 2;\n\n  /// @notice Must be called before any sales can be made\n  /// @param _tokens The tokens we are selling and buying. Use 0x0 to buy Ether\n  /// @param _times The times to start and end the sale\n  /// @param _periodsParams Period length in seconds, and number of periods used in moving average. In the long-term, 86% of the weighting will be in this window size. The higher the number, the slower the price will be to adjust\n  /// @param _targets The target and maximum number of tokens to sell per period\n  /// @param _limits The maximum and minimum amount of tokens a user can purchase (as percent of total sold)\n  /// @param _startingPrice The sale price to start at, expressed in units of _purchaseToken per token being sold, as a WAD\n  /// @param _intakeCap The maximum amount of purchaseToken we wish to receive\n  /// @param _options Whether or not the sale can be stopped, and whether to allow limit orders\n  /// @param _beneficiary Address (payable) to send sale proceeds\n  /// @param _whitelist Address of an optional whitelist\n  function initialise(\n    address[2] memory _tokens,\n    uint256[2] memory _times,\n    uint256[2] memory _periodsParams,\n    uint256[2] memory _targets,\n    uint256[2] memory _limits,\n    uint256 _startingPrice,\n    uint256 _intakeCap,\n    bool[3] memory _options,\n    address payable _beneficiary,\n    address _whitelist\n  )\n    external\n    onlyOwner\n  {\n    require(block.timestamp < startTime, \"coin-machine-sale-begun\");\n\n    require(_tokens[TOKEN_IDX] != address(0x0), \"coin-machine-invalid-token\");\n    require(_tokens[PURCHASE_TOKEN_IDX] != address(0x0) || wrappedToken != address(0x0), \"coin-machine-invalid-token\");\n    require(_periodsParams[PERIOD_LENGTH_IDX] > 0, \"coin-machine-period-too-small\");\n    require(_periodsParams[WINDOW_SIZE_IDX] > 0, \"coin-machine-window-too-small\");\n    require(_periodsParams[WINDOW_SIZE_IDX] <= 512, \"coin-machine-window-too-large\");\n    require(_targets[SALE_TARGET_IDX] > 0, \"coin-machine-target-too-small\");\n    require(_targets[SALE_TARGET_IDX] <= _targets[SALE_MAX_IDX], \"coin-machine-max-too-small\");\n    require(_limits[BUY_MAX_IDX] <= WAD, \"coin-machine-limit-too-large\");\n    require(_limits[BUY_MAX_IDX] > 0, \"coin-machine-limit-too-small\");\n    require(_limits[BUY_MAX_IDX] >= _limits[BUY_MIN_IDX], \"coin-machine-limits-inconsistent\");\n    require(_startingPrice > 0, \"coin-machine-price-too-small\");\n    require(_startingPrice <= type(uint128).max, \"coin-machine-price-too-big\");\n    require(_intakeCap <= type(uint128).max, \"coin-machine-cap-too-big\");\n\n    token = _tokens[TOKEN_IDX];\n    purchaseToken = _tokens[PURCHASE_TOKEN_IDX];\n\n    startTime = (_times[START_TIME_IDX] == 0) ? block.timestamp : _times[START_TIME_IDX];\n    endTime = (_times[END_TIME_IDX] == 0) ? startTime + 180 days : _times[END_TIME_IDX];\n    require(block.timestamp <= startTime, \"coin-machine-bad-start-time\");\n    require(startTime < endTime, \"coin-machine-bad-end-time\");\n\n    periodLength = _periodsParams[PERIOD_LENGTH_IDX];\n    alpha = wdiv(2, _periodsParams[WINDOW_SIZE_IDX] + 1); // Two ints enter, 1 WAD leaves\n    // In the long-term, 86% of the weighting will be in this window size. This is a 'standard' conversion\n    // used between SMAs and EMAs, as the center of mass of the weightings is the same if this is used.\n\n    targetPerPeriod = _targets[SALE_TARGET_IDX];\n    maxPerPeriod = _targets[SALE_MAX_IDX];\n\n    userLimitFraction = _limits[BUY_MAX_IDX];\n    minPurchaseFraction = _limits[BUY_MIN_IDX];\n\n    activePrice = _startingPrice;\n    emaIntake = wmul(targetPerPeriod, _startingPrice);\n\n    intakeCap = _intakeCap;\n    stoppable = _options[STOPPABLE_IDX];\n    allowLimitOrders = _options[LIMIT_ORDERS_IDX];\n    continuousSale = _options[CONTINUOUS_SALE_IDX];\n\n    setBeneficiary(_beneficiary);\n    whitelist = _whitelist; // 0x0 if no whitelist is being used\n\n    setCoinMachineState(CoinMachineState.Active);\n    setPriceEvolution(getTokenBalance() > 0);\n\n    emit CoinMachineInitialised();\n  }\n\n  /// @notice Pause the coin machine if active\n  function pause() external onlyOwner {\n    require(stoppable, \"coin-machine-not-stoppable\");\n    require(state == CoinMachineState.Active, \"coin-machine-not-active\");\n    setPriceEvolution(false);\n    setCoinMachineState(CoinMachineState.Paused);\n  }\n\n  /// @notice Unpause the coin machine if paused\n  function unpause() external onlyOwner {\n    require(state == CoinMachineState.Paused, \"coin-machine-not-paused\");\n    setCoinMachineState(CoinMachineState.Active);\n    updatePeriod();\n  }\n\n  /// @notice Stop the coin machine (cannot be undone)\n  function stop() external onlyOwner {\n    require(stoppable, \"coin-machine-not-stoppable\");\n    require(state != CoinMachineState.Stopped, \"coin-machine-already-stopped\");\n\n    endTime = block.timestamp;\n    setPriceEvolution(false);\n    setCoinMachineState(CoinMachineState.Stopped);\n  }\n\n  /// @notice Delete the contract and send all remaining tokens to beneficiary, 30 days after sale ends\n  function deleteContract() public onlyOwner {\n    require(endTime + 30 days <= block.timestamp, \"coin-machine-cannot-delete\");\n\n    // Withdraw leftover sale tokens\n    uint256 tokenBalance = getTokenBalance();\n    require(ERC20(token).transfer(beneficiary, tokenBalance), \"coin-machine-transfer-failed\");\n\n    // Withdraw unclaimed purchase tokens\n    address limitOrderPurchaseToken = getLimitOrderPurchaseToken();\n    uint256 limitOrderPurchaseTokenBalance = ERC20(limitOrderPurchaseToken).balanceOf(address(this));\n    require(ERC20(limitOrderPurchaseToken).transfer(beneficiary, limitOrderPurchaseTokenBalance), \"coin-machine-transfer-failed\");\n\n    emit CoinMachineDeleted(tokenBalance, limitOrderPurchaseTokenBalance, address(this).balance);\n\n    // Withdraw any native tokens and selfdestruct\n    selfdestruct(beneficiary);\n  }\n\n  /// @notice Set the beneficiary address\n  /// @param _beneficiary The beneficiary to receive sale proceeds\n  function setBeneficiary(address payable _beneficiary) public onlyOwner {\n    require(_beneficiary != address(0x0), \"coin-machine-bad-beneficiary\");\n    beneficiary = _beneficiary;\n\n    emit BeneficiarySet(_beneficiary);\n  }\n\n  // Public\n\n  /// @notice Purchase tokens from Coin Machine.\n  /// @param _numTokens The number of tokens to purchase\n  function buyTokens(uint256 _numTokens, uint256 _maxPrice) external payable {\n    updatePeriod();\n    require(getCurrentPrice() <= _maxPrice, \"coin-machine-bad-price\");\n    buyTokensFor(msg.sender, _numTokens, purchaseToken);\n  }\n\n  // Temporary placement to clarify the diff\n  function buyTokensFor(\n    address _recipient,\n    uint256 _numTokens,\n    address _purchaseToken\n  )\n    internal active\n  {\n    assert(activePeriod >= getCurrentPeriod());\n\n    require(startTime <= block.timestamp, \"coin-machine-sale-not-begun\");\n    require(block.timestamp < endTime, \"coin-machine-sale-over\");\n\n    require(\n      whitelist == address(0x0) || Whitelist(whitelist).isApproved(_recipient),\n      \"coin-machine-unauthorised\"\n    );\n\n    uint256 maxPurchase = getMaxPurchase(_recipient);\n    uint256 numTokens = min(maxPurchase, _numTokens);\n\n    if (numTokens <= 0) {\n      // This refund should only occur for direct purchases, never limit orders\n      if (msg.value > 0) { payable(_recipient).transfer(msg.value); } // Refund any balance\n      return;\n    }\n\n    uint256 totalCost = wmul(numTokens, activePrice);\n    activeIntake += totalCost;\n\n    // Do userLimitFraction bookkeeping (only if needed)\n    if (userLimitFraction < WAD || minPurchaseFraction > 0) {\n      uint256 minPurchase = getMinPurchase();\n      soldUser[_recipient] += numTokens;\n      require(soldUser[_recipient] >= minPurchase, \"coin-machine-purchase-too-small\");\n    }\n\n    activeSold += numTokens;\n    assert(getTotalIntake() <= intakeCap);\n    assert(activeSold <= maxPerPeriod);\n\n    // Check if the contract is sold out\n    if (numTokens >= getTokenBalance()) { setPriceEvolution(false); }\n\n    // Check if the period is sold out, and if so to auto-advance\n    if (activeSold == maxPerPeriod && continuousSale) {\n      // slither-disable-next-line weak-prng\n      uint256 periodElapsed = getSystemTime() % periodLength;\n      sellOutOffset += periodLength - periodElapsed;\n     }\n\n    uint256 fee = wmul(totalCost, feeFraction);\n\n    if (_purchaseToken == address(0x0)) {\n      require(msg.value >= totalCost, \"coin-machine-insufficient-funds\");\n      if (msg.value > totalCost) { payable(_recipient).transfer(msg.value - totalCost); } // Refund any balance\n      factory.transfer(fee);\n      beneficiary.transfer(totalCost - fee);\n    } else {\n      require(ERC20(_purchaseToken).transferFrom(_recipient, factory, fee), \"coin-machine-purchase-failed\");\n      require(ERC20(_purchaseToken).transferFrom(_recipient, beneficiary, totalCost - fee), \"coin-machine-purchase-failed\");\n    }\n\n    require(ERC20(token).transfer(_recipient, numTokens), \"coin-machine-transfer-failed\");\n\n    // slither-disable-next-line reentrancy-unlimited-gas\n    emit TokensBought(_recipient, numTokens, totalCost);\n  }\n\n  /// @notice Create a limit order\n  /// @param _purchasePrice The price (or below) at which you wish to purchase\n  /// @param _amountToSpend The number of tokens you wish to spend\n  /// @param _executorFee The fee you will pay to the executor\n  function createLimitOrder(\n    uint256 _purchasePrice,\n    uint256 _amountToSpend,\n    uint256 _executorFee\n  )\n    public\n    active\n  {\n    require(allowLimitOrders, \"coin-machine-limit-orders-disabled\");\n    require(ERC20(getLimitOrderPurchaseToken()).transferFrom(msg.sender, address(this), _executorFee), \"coin-machine-fee-transfer-failed\");\n\n    limitOrderCount++;\n    limitOrders[limitOrderCount] = LimitOrder(msg.sender, _purchasePrice, _amountToSpend, _executorFee);\n\n    emit LimitOrderCreated(limitOrderCount, msg.sender, _purchasePrice, _amountToSpend, _executorFee);\n  }\n\n  /// @notice Execute the limit order and claim the fee\n  /// @param _id The id of the limit order\n  function executeLimitOrder(uint256 _id) public {\n    require(_id <= limitOrderCount, \"coin-machine-order-not-found\");\n    LimitOrder storage limitOrder = limitOrders[_id];\n\n    updatePeriod();\n\n    uint256 currentPrice = getCurrentPrice();\n    require(currentPrice <= limitOrder.purchasePrice, \"coin-machine-price-too-high\");\n\n    // Convert from amount to spend to amount to purchase using current price as denominator\n    uint256 numTokens = min(\n      wdiv(limitOrder.amountToSpend, currentPrice),\n      getMaxPurchase(limitOrder.creator)\n    );\n\n    // Scale the fee by the % of the spend amount being fulfilled in this transaction\n    uint256 amountToSpend = wmul(numTokens, currentPrice);\n    uint256 executorFee = wmul(\n      limitOrder.executorFee,\n      wdiv(amountToSpend, limitOrder.amountToSpend)\n    );\n\n    limitOrder.amountToSpend = limitOrder.amountToSpend - amountToSpend;\n    limitOrder.executorFee = limitOrder.executorFee - executorFee;\n\n    address creator = limitOrder.creator;\n    if (limitOrder.amountToSpend <= 1) { delete limitOrders[_id]; } // <= 1 due to rounding error\n\n    address limitOrderPurchaseToken = getLimitOrderPurchaseToken();\n    assert(limitOrderPurchaseToken != address(0x0));\n\n    require(ERC20(limitOrderPurchaseToken).transfer(msg.sender, executorFee), \"coin-machine-fee-transfer-failed\");\n\n    if (ERC20(limitOrderPurchaseToken).allowance(creator, address(this)) >= amountToSpend) {\n      buyTokensFor(creator, numTokens, limitOrderPurchaseToken);\n    }\n\n    // slither-disable-next-line reentrancy-unlimited-gas\n    emit LimitOrderExecuted(_id, amountToSpend, executorFee);\n  }\n\n  /// @notice Cancel the limit order and if the sale is over, reclaim the fee\n  /// @dev Can only be called by order creator\n  /// @param _id The id of the limit order\n  function cancelLimitOrder(uint256 _id) public {\n    require(limitOrders[_id].creator == msg.sender, \"coin-machine-not-order-creator\");\n\n    uint256 executorFee = limitOrders[_id].executorFee;\n\n    delete limitOrders[_id];\n\n    address cancelBeneficiary = (endTime <= block.timestamp) ? msg.sender : beneficiary;\n    require(ERC20(getLimitOrderPurchaseToken()).transfer(cancelBeneficiary, executorFee), \"coin-machine-fee-transfer-failed\");\n\n    emit LimitOrderCancelled(_id);\n  }\n\n  /// @notice Bring the token accounting current\n  function updatePeriod() public {\n    uint256 currentPeriod = getCurrentPeriod();\n\n    assert(activePeriod <= currentPeriod);\n\n    if (activePeriod < currentPeriod) {\n      uint256 initialActivePeriod = activePeriod;\n\n      // If we're out of tokens or deprecated, don't update the price\n      if (!evolvePrice) {\n        setPriceEvolution(getTokenBalance() > 0 && isActive());\n      } else {\n        emaIntake = wmul((WAD - alpha), emaIntake) + wmul(alpha, activeIntake); // wmul(wad, int) => int\n\n        // Handle any additional missed periods\n        uint256 periodGap = currentPeriod - initialActivePeriod - 1;\n        if (periodGap != 0) {\n          emaIntake = wmul(wpow((WAD - alpha), periodGap), emaIntake);\n        }\n\n        // Update the price (minimum 1 WEI)\n        activePrice = max(wdiv(emaIntake, targetPerPeriod), 1);\n      }\n\n      // Update the global counters\n      totalIntakePastPeriods += activeIntake;\n      soldTotalPastPeriods += activeSold;\n\n      // Set the new active period params\n      activePeriod = currentPeriod;\n      activeIntake = 0;\n      activeSold = 0;\n\n      emit PeriodUpdated(initialActivePeriod, currentPeriod);\n    }\n  }\n\n  // View\n\n  /// @notice Get the current price per token\n  function getCurrentPrice() public view returns (uint256) {\n    uint256 currentPeriod = getCurrentPeriod();\n\n    if (activePeriod >= currentPeriod || !evolvePrice) {\n      return activePrice;\n\n    // Otherwise, infer the new price\n    } else {\n      uint256 newIntake = emaIntake;\n\n      // Accommodate the activePeriod\n      newIntake = wmul((WAD - alpha), newIntake) + wmul(alpha, activeIntake);\n\n      // Accommodate periods between the activePeriod and the currentPeriod\n      uint256 periodGap = currentPeriod - activePeriod - 1;\n      if (periodGap != 0) {\n        newIntake = wmul(wpow((WAD - alpha), periodGap), newIntake);\n      }\n\n      // Min price is 1 WEI\n      return max(wdiv(newIntake, targetPerPeriod), 1);\n    }\n  }\n\n  /// @notice Get the remaining balance of tokens\n  function getTokenBalance() public view returns (uint256) {\n    return ERC20(token).balanceOf(address(this));\n  }\n\n  /// @notice Get the number of remaining tokens for sale this period\n  function getSellableTokens() public view returns (uint256) {\n    return min(\n      maxPerPeriod - ((activePeriod >= getCurrentPeriod()) ? activeSold : 0),\n      wdiv(intakeCap - getTotalIntake(), getCurrentPrice()) // Get number of tokens we can sell before we hit the cap\n    );\n  }\n\n  /// @notice Get the minimum amount of tokens a user can purchase\n  function getMinPurchase() public view returns (uint256) {\n    return wmul(minPurchaseFraction, getSoldTotal() + getTokenBalance());\n  }\n\n  /// @notice Get the maximum amount of tokens a user can purchase in a period\n  function getMaxPurchase(address _user) public view returns (uint256) {\n    uint256 tokenBalance = getTokenBalance();\n    uint256 sellableTokens = getSellableTokens();\n    uint256 userLimit = getUserLimit(_user);\n    return min(userLimit, min(tokenBalance, sellableTokens));\n  }\n\n  /// @notice Get the maximum amount of tokens a user can purchase in total\n  function getUserLimit(address _user) public view returns (uint256) {\n    return\n      (userLimitFraction == WAD || whitelist == address(0x0)) ?\n      type(uint256).max :\n      wmul(getTokenBalance() + getSoldTotal(), userLimitFraction) - soldUser[_user]\n    ;\n  }\n\n  /// @notice Get the total amount of purchaseToken received so far\n  function getTotalIntake() public view returns (uint256) {\n    return totalIntakePastPeriods + activeIntake;\n  }\n\n  /// @notice Get the total amount of token sold so far\n  function getSoldTotal() public view returns (uint256) {\n    return soldTotalPastPeriods + activeSold;\n  }\n\n  /// @notice Get the current period based on the system time\n  function getCurrentPeriod() public view returns (uint256) {\n    return getSystemTime() / periodLength;\n  }\n\n  /// @notice Get the limit order purchase token\n  function getLimitOrderPurchaseToken() public view returns (address) {\n    return (purchaseToken == address(0x0)) ? wrappedToken : purchaseToken;\n  }\n\n  // Internal\n\n  function setCoinMachineState(CoinMachineState _state) internal {\n    state = _state;\n\n    emit CoinMachineStateSet(_state);\n  }\n\n  function isActive() internal view returns (bool) {\n    return state == CoinMachineState.Active;\n  }\n\n  function setPriceEvolution(bool _status) internal {\n    if (_status != evolvePrice) {\n      evolvePrice = _status;\n\n      emit PriceEvolutionSet(_status);\n    }\n  }\n\n  function getSystemTime() internal view returns (uint256) {\n    return (max(block.timestamp + sellOutOffset, startTime) - startTime);\n  }\n}\n",
  "sourcePath": "/home/thomassdk/code/colony/coinMachine/main/contracts/contracts/CoinMachine.sol",
  "compiler": {
    "name": "solc",
    "version": "0.8.17+commit.8df45f5f.Emscripten.clang"
  },
  "schemaVersion": "3.4.10",
  "updatedAt": "2023-01-30T13:33:11.406Z",
  "devdoc": {
    "kind": "dev",
    "methods": {
      "buyTokens(uint256,uint256)": {
        "params": {
          "_numTokens": "The number of tokens to purchase"
        }
      },
      "cancelLimitOrder(uint256)": {
        "details": "Can only be called by order creator",
        "params": {
          "_id": "The id of the limit order"
        }
      },
      "createLimitOrder(uint256,uint256,uint256)": {
        "params": {
          "_amountToSpend": "The number of tokens you wish to spend",
          "_executorFee": "The fee you will pay to the executor",
          "_purchasePrice": "The price (or below) at which you wish to purchase"
        }
      },
      "executeLimitOrder(uint256)": {
        "params": {
          "_id": "The id of the limit order"
        }
      },
      "initialise(address[2],uint256[2],uint256[2],uint256[2],uint256[2],uint256,uint256,bool[3],address,address)": {
        "params": {
          "_beneficiary": "Address (payable) to send sale proceeds",
          "_intakeCap": "The maximum amount of purchaseToken we wish to receive",
          "_limits": "The maximum and minimum amount of tokens a user can purchase (as percent of total sold)",
          "_options": "Whether or not the sale can be stopped, and whether to allow limit orders",
          "_periodsParams": "Period length in seconds, and number of periods used in moving average. In the long-term, 86% of the weighting will be in this window size. The higher the number, the slower the price will be to adjust",
          "_startingPrice": "The sale price to start at, expressed in units of _purchaseToken per token being sold, as a WAD",
          "_targets": "The target and maximum number of tokens to sell per period",
          "_times": "The times to start and end the sale",
          "_tokens": "The tokens we are selling and buying. Use 0x0 to buy Ether",
          "_whitelist": "Address of an optional whitelist"
        }
      },
      "owner()": {
        "details": "Returns the address of the current owner."
      },
      "renounceOwnership()": {
        "details": "Leaves the contract without owner. It will not be possible to call `onlyOwner` functions anymore. Can only be called by the current owner. NOTE: Renouncing ownership will leave the contract without an owner, thereby removing any functionality that is only available to the owner."
      },
      "setBeneficiary(address)": {
        "params": {
          "_beneficiary": "The beneficiary to receive sale proceeds"
        }
      },
      "transferOwnership(address)": {
        "details": "Transfers ownership of the contract to a new account (`newOwner`). Can only be called by the current owner."
      }
    },
    "version": 1
  },
  "userdoc": {
    "kind": "user",
    "methods": {
      "buyTokens(uint256,uint256)": {
        "notice": "Purchase tokens from Coin Machine."
      },
      "cancelLimitOrder(uint256)": {
        "notice": "Cancel the limit order and if the sale is over, reclaim the fee"
      },
      "createLimitOrder(uint256,uint256,uint256)": {
        "notice": "Create a limit order"
      },
      "deleteContract()": {
        "notice": "Delete the contract and send all remaining tokens to beneficiary, 30 days after sale ends"
      },
      "executeLimitOrder(uint256)": {
        "notice": "Execute the limit order and claim the fee"
      },
      "getCurrentPeriod()": {
        "notice": "Get the current period based on the system time"
      },
      "getCurrentPrice()": {
        "notice": "Get the current price per token"
      },
      "getLimitOrderPurchaseToken()": {
        "notice": "Get the limit order purchase token"
      },
      "getMaxPurchase(address)": {
        "notice": "Get the maximum amount of tokens a user can purchase in a period"
      },
      "getMinPurchase()": {
        "notice": "Get the minimum amount of tokens a user can purchase"
      },
      "getSellableTokens()": {
        "notice": "Get the number of remaining tokens for sale this period"
      },
      "getSoldTotal()": {
        "notice": "Get the total amount of token sold so far"
      },
      "getTokenBalance()": {
        "notice": "Get the remaining balance of tokens"
      },
      "getTotalIntake()": {
        "notice": "Get the total amount of purchaseToken received so far"
      },
      "getUserLimit(address)": {
        "notice": "Get the maximum amount of tokens a user can purchase in total"
      },
      "initialise(address[2],uint256[2],uint256[2],uint256[2],uint256[2],uint256,uint256,bool[3],address,address)": {
        "notice": "Must be called before any sales can be made"
      },
      "pause()": {
        "notice": "Pause the coin machine if active"
      },
      "setBeneficiary(address)": {
        "notice": "Set the beneficiary address"
      },
      "stop()": {
        "notice": "Stop the coin machine (cannot be undone)"
      },
      "unpause()": {
        "notice": "Unpause the coin machine if paused"
      },
      "updatePeriod()": {
        "notice": "Bring the token accounting current"
      }
    },
    "version": 1
  }
}