{
  "contractName": "CoinMachineFactory",
  "abi": [
    {
      "anonymous": false,
      "inputs": [
        {
          "indexed": false,
          "internalType": "bytes32",
          "name": "agreementHash",
          "type": "bytes32"
        }
      ],
      "name": "AgreementHashSet",
      "type": "event"
    },
    {
      "anonymous": false,
      "inputs": [
        {
          "indexed": true,
          "internalType": "address",
          "name": "owner",
          "type": "address"
        },
        {
          "indexed": false,
          "internalType": "bytes32",
          "name": "agreementHash",
          "type": "bytes32"
        },
        {
          "indexed": false,
          "internalType": "address",
          "name": "coinMachine",
          "type": "address"
        }
      ],
      "name": "CoinMachineDeployed",
      "type": "event"
    },
    {
      "anonymous": false,
      "inputs": [
        {
          "indexed": false,
          "internalType": "uint256",
          "name": "feeFraction",
          "type": "uint256"
        }
      ],
      "name": "FeeFractionSet",
      "type": "event"
    },
    {
      "anonymous": false,
      "inputs": [
        {
          "indexed": true,
          "internalType": "address",
          "name": "previousOwner",
          "type": "address"
        },
        {
          "indexed": true,
          "internalType": "address",
          "name": "newOwner",
          "type": "address"
        }
      ],
      "name": "OwnershipTransferred",
      "type": "event"
    },
    {
      "anonymous": false,
      "inputs": [
        {
          "indexed": true,
          "internalType": "address",
          "name": "owner",
          "type": "address"
        },
        {
          "indexed": false,
          "internalType": "address",
          "name": "whitelist",
          "type": "address"
        }
      ],
      "name": "WhitelistDeployed",
      "type": "event"
    },
    {
      "anonymous": false,
      "inputs": [
        {
          "indexed": false,
          "internalType": "address",
          "name": "wrappedToken",
          "type": "address"
        }
      ],
      "name": "WrappedTokenSet",
      "type": "event"
    },
    {
      "stateMutability": "payable",
      "type": "fallback",
      "payable": true
    },
    {
      "inputs": [],
      "name": "owner",
      "outputs": [
        {
          "internalType": "address",
          "name": "",
          "type": "address"
        }
      ],
      "stateMutability": "view",
      "type": "function",
      "constant": true
    },
    {
      "inputs": [],
      "name": "renounceOwnership",
      "outputs": [],
      "stateMutability": "nonpayable",
      "type": "function"
    },
    {
      "inputs": [],
      "name": "resolver",
      "outputs": [
        {
          "internalType": "contract Resolver",
          "name": "",
          "type": "address"
        }
      ],
      "stateMutability": "view",
      "type": "function",
      "constant": true
    },
    {
      "inputs": [
        {
          "internalType": "address",
          "name": "_resolver",
          "type": "address"
        }
      ],
      "name": "setResolver",
      "outputs": [],
      "stateMutability": "nonpayable",
      "type": "function"
    },
    {
      "inputs": [
        {
          "internalType": "address",
          "name": "newOwner",
          "type": "address"
        }
      ],
      "name": "transferOwnership",
      "outputs": [],
      "stateMutability": "nonpayable",
      "type": "function"
    },
    {
      "stateMutability": "payable",
      "type": "receive",
      "payable": true
    },
    {
      "inputs": [
        {
          "internalType": "bytes32",
          "name": "_agreementHash",
          "type": "bytes32"
        }
      ],
      "name": "deployCoinMachine",
      "outputs": [],
      "stateMutability": "nonpayable",
      "type": "function"
    },
    {
      "inputs": [
        {
          "internalType": "bool",
          "name": "_useApprovals",
          "type": "bool"
        },
        {
          "internalType": "string",
          "name": "_agreementHash",
          "type": "string"
        }
      ],
      "name": "deployWhitelist",
      "outputs": [],
      "stateMutability": "nonpayable",
      "type": "function"
    },
    {
      "inputs": [],
      "name": "getAgreementHash",
      "outputs": [
        {
          "internalType": "bytes32",
          "name": "",
          "type": "bytes32"
        }
      ],
      "stateMutability": "view",
      "type": "function",
      "constant": true
    },
    {
      "inputs": [],
      "name": "getFeeFraction",
      "outputs": [
        {
          "internalType": "uint256",
          "name": "",
          "type": "uint256"
        }
      ],
      "stateMutability": "view",
      "type": "function",
      "constant": true
    },
    {
      "inputs": [],
      "name": "getWrappedToken",
      "outputs": [
        {
          "internalType": "address",
          "name": "",
          "type": "address"
        }
      ],
      "stateMutability": "view",
      "type": "function",
      "constant": true
    },
    {
      "inputs": [
        {
          "internalType": "bytes32",
          "name": "_agreementHash",
          "type": "bytes32"
        }
      ],
      "name": "setAgreementHash",
      "outputs": [],
      "stateMutability": "nonpayable",
      "type": "function"
    },
    {
      "inputs": [
        {
          "internalType": "uint256",
          "name": "_feeFraction",
          "type": "uint256"
        }
      ],
      "name": "setFeeFraction",
      "outputs": [],
      "stateMutability": "nonpayable",
      "type": "function"
    },
    {
      "inputs": [
        {
          "internalType": "address",
          "name": "_wrappedToken",
          "type": "address"
        }
      ],
      "name": "setWrappedToken",
      "outputs": [],
      "stateMutability": "nonpayable",
      "type": "function"
    },
    {
      "inputs": [
        {
          "internalType": "address",
          "name": "_token",
          "type": "address"
        }
      ],
      "name": "withdraw",
      "outputs": [],
      "stateMutability": "nonpayable",
      "type": "function"
    }
  ],
  "bytecode": "0x608060405234801561001057600080fd5b5061001a3361001f565b61006f565b600080546001600160a01b038381166001600160a01b0319831681178455604051919092169283917f8be0079c531659141344cd1fd0a4f28419497f9722a3daafe3b4186f6b6457e09190a35050565b614fea8061007e6000396000f3fe608060405260043610620000f75760003560e01c806362d5c1a6116200008b5780638da5cb5b11620000615780638da5cb5b146200034057806396208e5d1462000360578063f174e2411462000385578063f2fde38b14620003a557620000ff565b806362d5c1a614620002ec578063696da9211462000311578063715018a6146200032857620000ff565b80632c4e594e11620000cd5780632c4e594e14620002585780634661bdc1146200027d5780634e543b2614620002a257806351cff8d914620002c757620000ff565b806304f3bcec14620001d357806320ddf6c4146200021257806325ea8ab8146200023757620000ff565b36620000ff57005b600080356001600160e01b03191690036200011657005b6001546040516337b4746960e11b8152600080356001600160e01b0319166004830152916001600160a01b031690636f68e8d290602401602060405180830381865afa1580156200016b573d6000803e3d6000fd5b505050506040513d601f19601f820116820180604052508101906200019191906200099f565b9050803b80620001a057600080fd5b5036600060405137600060405136604051845af43d60006040513e8060018114620001cb573d604051fd5b3d604051f35b005b348015620001e057600080fd5b50600154620001f5906001600160a01b031681565b6040516001600160a01b0390911681526020015b60405180910390f35b3480156200021f57600080fd5b50620001d162000231366004620009c6565b620003ca565b3480156200024457600080fd5b506003545b60405190815260200162000209565b3480156200026557600080fd5b50620001d16200027736600462000a05565b6200046e565b3480156200028a57600080fd5b50620001d16200029c366004620009c6565b620004f3565b348015620002af57600080fd5b50620001d1620002c136600462000ad5565b62000603565b348015620002d457600080fd5b50620001d1620002e636600462000ad5565b6200062f565b348015620002f957600080fd5b50620001d16200030b36600462000ad5565b62000791565b3480156200031e57600080fd5b5060025462000249565b3480156200033557600080fd5b50620001d1620007ea565b3480156200034d57600080fd5b506000546001600160a01b0316620001f5565b3480156200036d57600080fd5b50620001d16200037f366004620009c6565b62000802565b3480156200039257600080fd5b506004546001600160a01b0316620001f5565b348015620003b257600080fd5b50620001d1620003c436600462000ad5565b62000842565b620003d4620008c1565b670de0b6b3a7640000811115620004325760405162461bcd60e51b815260206004820152601860248201527f666163746f72792d696e76616c69642d6672616374696f6e000000000000000060448201526064015b60405180910390fd5b60038190556040518181527f842d79c6cbd40c7e0a733544e66121cf0197ff6c5990d5d2db7d8fd274c8eecb906020015b60405180910390a150565b600033838360405162000481906200096d565b6200048f9392919062000af5565b604051809103906000f080158015620004ac573d6000803e3d6000fd5b506040516001600160a01b038216815290915033907f89e160c603b67f87acccbdf7bbba001af95153b8685cef7558276d07f1d547499060200160405180910390a2505050565b8060025414620005515760405162461bcd60e51b815260206004820152602260248201527f636f696e2d6d616368696e652d666163746f72792d6261642d7369676e617475604482015261726560f01b606482015260840162000429565b600033600354600460009054906101000a90046001600160a01b03166040516200057b906200097b565b6001600160a01b03938416815260208101929092529091166040820152606001604051809103906000f080158015620005b8573d6000803e3d6000fd5b50604080518481526001600160a01b038316602082015291925033917fa86047e186cb70ffc8978159a67423a695acd855307dce8584e1efe07f16c57f910160405180910390a25050565b6200060d620008c1565b600180546001600160a01b0319166001600160a01b0392909216919091179055565b62000639620008c1565b6040516370a0823160e01b81523060048201526000906001600160a01b038316906370a0823190602401602060405180830381865afa15801562000681573d6000803e3d6000fd5b505050506040513d601f19601f82011682018060405250810190620006a7919062000b5e565b9050816001600160a01b031663a9059cbb620006cb6000546001600160a01b031690565b6040516001600160e01b031960e084901b1681526001600160a01b039091166004820152602481018490526044016020604051808303816000875af115801562000719573d6000803e3d6000fd5b505050506040513d601f19601f820116820180604052508101906200073f919062000b78565b6200078d5760405162461bcd60e51b815260206004820152601760248201527f666163746f72792d7472616e736665722d6661696c6564000000000000000000604482015260640162000429565b5050565b6200079b620008c1565b600480546001600160a01b0319166001600160a01b0383169081179091556040519081527fcdac50d85226112df04d457741fc564ec1f6bfd605813ab83f9eb4f4771c66a99060200162000463565b620007f4620008c1565b6200080060006200091d565b565b6200080c620008c1565b60028190556040518181527fc5d54bb3985a3e542a5f468d8cfbca942ce13901ecd79a60f60d004215eb6e099060200162000463565b6200084c620008c1565b6001600160a01b038116620008b35760405162461bcd60e51b815260206004820152602660248201527f4f776e61626c653a206e6577206f776e657220697320746865207a65726f206160448201526564647265737360d01b606482015260840162000429565b620008be816200091d565b50565b6000546001600160a01b03163314620008005760405162461bcd60e51b815260206004820181905260248201527f4f776e61626c653a2063616c6c6572206973206e6f7420746865206f776e6572604482015260640162000429565b600080546001600160a01b038381166001600160a01b0319831681178455604051919092169283917f8be0079c531659141344cd1fd0a4f28419497f9722a3daafe3b4186f6b6457e09190a35050565b6110ba8062000b9983390190565b6133628062001c5383390190565b6001600160a01b0381168114620008be57600080fd5b600060208284031215620009b257600080fd5b8151620009bf8162000989565b9392505050565b600060208284031215620009d957600080fd5b5035919050565b8015158114620008be57600080fd5b634e487b7160e01b600052604160045260246000fd5b6000806040838503121562000a1957600080fd5b823562000a2681620009e0565b9150602083013567ffffffffffffffff8082111562000a4457600080fd5b818501915085601f83011262000a5957600080fd5b81358181111562000a6e5762000a6e620009ef565b604051601f8201601f19908116603f0116810190838211818310171562000a995762000a99620009ef565b8160405282815288602084870101111562000ab357600080fd5b8260208601602083013760006020848301015280955050505050509250929050565b60006020828403121562000ae857600080fd5b8135620009bf8162000989565b60018060a01b0384168152600060208415158184015260606040840152835180606085015260005b8181101562000b3b5785810183015185820160800152820162000b1d565b506000608082860101526080601f19601f83011685010192505050949350505050565b60006020828403121562000b7157600080fd5b5051919050565b60006020828403121562000b8b57600080fd5b8151620009bf81620009e056fe60a06040523480156200001157600080fd5b50604051620010ba380380620010ba833981016040819052620000349162000200565b6200003f33620000bd565b81806200004d575060008151115b620000945760405162461bcd60e51b81526020600482015260126024820152711dda1a5d195b1a5cdd0b5898590b5a5b9a5d60721b60448201526064015b60405180910390fd5b8115156080526001620000a882826200039e565b50620000b4836200010d565b5050506200046a565b600080546001600160a01b038381166001600160a01b0319831681178455604051919092169283917f8be0079c531659141344cd1fd0a4f28419497f9722a3daafe3b4186f6b6457e09190a35050565b620001176200018c565b6001600160a01b0381166200017e5760405162461bcd60e51b815260206004820152602660248201527f4f776e61626c653a206e6577206f776e657220697320746865207a65726f206160448201526564647265737360d01b60648201526084016200008b565b6200018981620000bd565b50565b6000546001600160a01b03163314620001e85760405162461bcd60e51b815260206004820181905260248201527f4f776e61626c653a2063616c6c6572206973206e6f7420746865206f776e657260448201526064016200008b565b565b634e487b7160e01b600052604160045260246000fd5b6000806000606084860312156200021657600080fd5b83516001600160a01b03811681146200022e57600080fd5b8093505060208085015180151581146200024757600080fd5b60408601519093506001600160401b03808211156200026557600080fd5b818701915087601f8301126200027a57600080fd5b8151818111156200028f576200028f620001ea565b604051601f8201601f19908116603f01168101908382118183101715620002ba57620002ba620001ea565b816040528281528a86848701011115620002d357600080fd5b600093505b82841015620002f75784840186015181850187015292850192620002d8565b60008684830101528096505050505050509250925092565b600181811c908216806200032457607f821691505b6020821081036200034557634e487b7160e01b600052602260045260246000fd5b50919050565b601f8211156200039957600081815260208120601f850160051c81016020861015620003745750805b601f850160051c820191505b81811015620003955782815560010162000380565b5050505b505050565b81516001600160401b03811115620003ba57620003ba620001ea565b620003d281620003cb84546200030f565b846200034b565b602080601f8311600181146200040a5760008415620003f15750858301515b600019600386901b1c1916600185901b17855562000395565b600085815260208120601f198616915b828110156200043b578886015182559484019460019091019084016200041a565b50858210156200045a5787850151600019600388901b60f8161c191681555b5050505050600190811b01905550565b608051610c206200049a6000396000818160dc0152818161028b0152818161044e01526105880152610c206000f3fe608060405234801561001057600080fd5b50600436106100b45760003560e01c8063673448dd11610071578063673448dd1461017c578063715018a61461018f5780638da5cb5b14610197578063a11c1d51146101b2578063c792f36d146101c5578063f2fde38b146101e857600080fd5b80630ab55d0b146100b95780631ad044cb146100d75780631bbfb0091461010e5780632ec7ff9514610123578063429b62e5146101365780635d0341ba14610159575b600080fd5b6100c16101fb565b6040516100ce919061089c565b60405180910390f35b6100fe7f000000000000000000000000000000000000000000000000000000000000000081565b60405190151581526020016100ce565b61012161011c366004610942565b610289565b005b610121610131366004610942565b610444565b6100fe610144366004610a01565b60026020526000908152604090205460ff1681565b6100fe610167366004610a01565b60036020526000908152604090205460ff1681565b6100fe61018a366004610a01565b610584565b61012161060b565b6000546040516001600160a01b0390911681526020016100ce565b6101216101c0366004610a23565b61061f565b6100fe6101d3366004610a01565b60046020526000908152604090205460ff1681565b6101216101f6366004610a01565b610755565b6001805461020890610ab8565b80601f016020809104026020016040519081016040528092919081815260200182805461023490610ab8565b80156102815780601f1061025657610100808354040283529160200191610281565b820191906000526020600020905b81548152906001019060200180831161026457829003601f168201915b505050505081565b7f00000000000000000000000000000000000000000000000000000000000000006102f45760405162461bcd60e51b815260206004820152601660248201527577686974656c6973742d6e6f2d617070726f76616c7360501b60448201526064015b60405180910390fd5b3360009081526002602052604090205460ff168061032b5750336103206000546001600160a01b031690565b6001600160a01b0316145b61036d5760405162461bcd60e51b81526020600482015260136024820152723bb434ba32b634b9ba16b737ba16b0b236b4b760691b60448201526064016102eb565b60005b825181101561043f57816003600085848151811061039057610390610af2565b60200260200101516001600160a01b03166001600160a01b0316815260200190815260200160002060006101000a81548160ff0219169083151502179055508281815181106103e1576103e1610af2565b60200260200101516001600160a01b03167f60dc44a8ff6f8c563265a9654c756ef7d51cb49658531b2c735ef754c74e8a3483604051610425911515815260200190565b60405180910390a28061043781610b08565b915050610370565b505050565b61044c6107ce565b7f00000000000000000000000000000000000000000000000000000000000000006104b25760405162461bcd60e51b815260206004820152601660248201527577686974656c6973742d6e6f2d617070726f76616c7360501b60448201526064016102eb565b60005b825181101561043f5781600260008584815181106104d5576104d5610af2565b60200260200101516001600160a01b03166001600160a01b0316815260200190815260200160002060006101000a81548160ff02191690831515021790555082818151811061052657610526610af2565b60200260200101516001600160a01b03167fcebd8d7799da909f67afa66d365d9c6effd59adb80d622132305767f2b0ee6288360405161056a911515815260200190565b60405180910390a28061057c81610b08565b9150506104b5565b60007f000000000000000000000000000000000000000000000000000000000000000015806105cb57506001600160a01b03821660009081526003602052604090205460ff165b80156106055750600180546105df90610ab8565b1590508061060557506001600160a01b03821660009081526004602052604090205460ff165b92915050565b6106136107ce565b61061d6000610828565b565b60006001805461062e90610ab8565b9050116106765760405162461bcd60e51b81526020600482015260166024820152751dda1a5d195b1a5cdd0b5b9bcb5859dc99595b595b9d60521b60448201526064016102eb565b806040516020016106879190610b2f565b6040516020818303038152906040528051906020012060016040516020016106af9190610b4b565b60405160208183030381529060405280519060200120146107125760405162461bcd60e51b815260206004820152601760248201527f77686974656c6973742d6261642d7369676e617475726500000000000000000060448201526064016102eb565b33600081815260046020526040808220805460ff19166001179055517f5cca47fc45be2c2c68100afd7cd2431116c0c535c159e4f6c7e63934cf9f7aad9190a250565b61075d6107ce565b6001600160a01b0381166107c25760405162461bcd60e51b815260206004820152602660248201527f4f776e61626c653a206e6577206f776e657220697320746865207a65726f206160448201526564647265737360d01b60648201526084016102eb565b6107cb81610828565b50565b6000546001600160a01b0316331461061d5760405162461bcd60e51b815260206004820181905260248201527f4f776e61626c653a2063616c6c6572206973206e6f7420746865206f776e657260448201526064016102eb565b600080546001600160a01b038381166001600160a01b0319831681178455604051919092169283917f8be0079c531659141344cd1fd0a4f28419497f9722a3daafe3b4186f6b6457e09190a35050565b60005b8381101561089357818101518382015260200161087b565b50506000910152565b60208152600082518060208401526108bb816040850160208701610878565b601f01601f19169190910160400192915050565b634e487b7160e01b600052604160045260246000fd5b604051601f8201601f1916810167ffffffffffffffff8111828210171561090e5761090e6108cf565b604052919050565b80356001600160a01b038116811461092d57600080fd5b919050565b8035801515811461092d57600080fd5b6000806040838503121561095557600080fd5b823567ffffffffffffffff8082111561096d57600080fd5b818501915085601f83011261098157600080fd5b8135602082821115610995576109956108cf565b8160051b92506109a68184016108e5565b82815292840181019281810190898511156109c057600080fd5b948201945b848610156109e5576109d686610916565b825294820194908201906109c5565b96506109f49050878201610932565b9450505050509250929050565b600060208284031215610a1357600080fd5b610a1c82610916565b9392505050565b60006020808385031215610a3657600080fd5b823567ffffffffffffffff80821115610a4e57600080fd5b818501915085601f830112610a6257600080fd5b813581811115610a7457610a746108cf565b610a86601f8201601f191685016108e5565b91508082528684828501011115610a9c57600080fd5b8084840185840137600090820190930192909252509392505050565b600181811c90821680610acc57607f821691505b602082108103610aec57634e487b7160e01b600052602260045260246000fd5b50919050565b634e487b7160e01b600052603260045260246000fd5b600060018201610b2857634e487b7160e01b600052601160045260246000fd5b5060010190565b60008251610b41818460208701610878565b9190910192915050565b600080835481600182811c915080831680610b6757607f831692505b60208084108203610b8657634e487b7160e01b86526022600452602486fd5b818015610b9a5760018114610baf57610bdc565b60ff1986168952841515850289019650610bdc565b60008a81526020902060005b86811015610bd45781548b820152908501908301610bbb565b505084890196505b50949897505050505050505056fea26469706673582212200010d5d8931da3e9eb66e2f5a46ccd43d74dc3a67d4e024471b03c3c58ead4e464736f6c6343000811003360e06040523480156200001157600080fd5b5060405162003362380380620033628339810160408190526200003491620001bd565b6200003f336200006f565b3360805260a08290526001600160a01b03811660c0526000196004556200006683620000bf565b505050620001fe565b600080546001600160a01b038381166001600160a01b0319831681178455604051919092169283917f8be0079c531659141344cd1fd0a4f28419497f9722a3daafe3b4186f6b6457e09190a35050565b620000c962000142565b6001600160a01b038116620001345760405162461bcd60e51b815260206004820152602660248201527f4f776e61626c653a206e6577206f776e657220697320746865207a65726f206160448201526564647265737360d01b60648201526084015b60405180910390fd5b6200013f816200006f565b50565b6000546001600160a01b031633146200019e5760405162461bcd60e51b815260206004820181905260248201527f4f776e61626c653a2063616c6c6572206973206e6f7420746865206f776e657260448201526064016200012b565b565b80516001600160a01b0381168114620001b857600080fd5b919050565b600080600060608486031215620001d357600080fd5b620001de84620001a0565b925060208401519150620001f560408501620001a0565b90509250925092565b60805160a05160c051613111620002516000396000818161067a01528181610be901526117cd015260008181610538015261273701526000818161082a0152818161281101526128c101526131116000f3fe60806040526004361061031e5760003560e01c806385bb8e29116101ab578063be0a64a2116100f7578063db1d0fd511610095578063eb91d37e1161006f578063eb91d37e14610904578063f2fde38b14610919578063f871919914610939578063fc0c546a1461095957600080fd5b8063db1d0fd5146108b8578063e2f90823146108ce578063e9587e86146108e457600080fd5b8063c7219460116100d1578063c72194601461084c578063c8b42c651461086c578063d2ca21151461088c578063d53316b2146108a257600080fd5b8063be0a64a2146107d4578063c19d93fb146107ea578063c45a01551461081857600080fd5b8063a5cdc8fc11610164578063b497d5011161013e578063b497d50114610767578063b5b2f1ef1461077d578063bb4872de14610792578063bdfcb771146107b357600080fd5b8063a5cdc8fc14610712578063a83627de14610732578063a95c4d621461074757600080fd5b806385bb8e29146105d85780638da5cb5b1461060957806391cadaf61461062757806393e59dc114610648578063996c6cc314610668578063a3e2b4951461069c57600080fd5b80633197cbb61161026a5780635bf8eddd116102235780637975ce28116101fd5780637975ce2814610585578063810226311461059857806382b2e257146105ae5780638456cb59146105c357600080fd5b80635bf8eddd14610526578063715018a61461055a57806378e979251461056f57600080fd5b80633197cbb61461048357806338af3eed146104995780633aee29d2146104d15780633f4ba83a146104e657806352a30384146104fb5780635a58cd4c1461051157600080fd5b8063114f6769116102d757806324604da0116102b157806324604da0146104155780632869b1281461042a5780632b96d909146104575780633098d9921461046d57600080fd5b8063114f6769146103c05780631c31f710146103e057806323d631eb1461040057600080fd5b806307da68f51461032a578063086146d2146103415780630a441f7b146103695780630aed14281461037f5780630c707339146103955780630f3d8803146103ab57600080fd5b3661032557005b600080fd5b34801561033657600080fd5b5061033f610979565b005b34801561034d57600080fd5b50610356610a66565b6040519081526020015b60405180910390f35b34801561037557600080fd5b50610356600a5481565b34801561038b57600080fd5b5061035660095481565b3480156103a157600080fd5b50610356600e5481565b3480156103b757600080fd5b50610356610a82565b3480156103cc57600080fd5b506103566103db366004612c6c565b610aa9565b3480156103ec57600080fd5b5061033f6103fb366004612c6c565b610aeb565b34801561040c57600080fd5b50610356610b9e565b34801561042157600080fd5b50610356610bb0565b34801561043657600080fd5b50610356610445366004612c6c565b60136020526000908152604090205481565b34801561046357600080fd5b50610356600c5481565b34801561047957600080fd5b5061035660165481565b34801561048f57600080fd5b5061035660055481565b3480156104a557600080fd5b506003546104b9906001600160a01b031681565b6040516001600160a01b039091168152602001610360565b3480156104dd57600080fd5b506104b9610bc2565b3480156104f257600080fd5b5061033f610c0b565b34801561050757600080fd5b50610356600b5481565b34801561051d57600080fd5b5061033f610c92565b34801561053257600080fd5b506103567f000000000000000000000000000000000000000000000000000000000000000081565b34801561056657600080fd5b5061033f610ef5565b34801561057b57600080fd5b5061035660045481565b61033f610593366004612c89565b610f07565b3480156105a457600080fd5b50610356600d5481565b3480156105ba57600080fd5b50610356610f7c565b3480156105cf57600080fd5b5061033f610fe9565b3480156105e457600080fd5b506003546105f990600160b81b900460ff1681565b6040519015158152602001610360565b34801561061557600080fd5b506000546001600160a01b03166104b9565b34801561063357600080fd5b506003546105f990600160a01b900460ff1681565b34801561065457600080fd5b50600f546104b9906001600160a01b031681565b34801561067457600080fd5b506104b97f000000000000000000000000000000000000000000000000000000000000000081565b3480156106a857600080fd5b506106e86106b7366004612cab565b60176020526000908152604090208054600182015460028301546003909301546001600160a01b0390921692909184565b604080516001600160a01b0390951685526020850193909352918301526060820152608001610360565b34801561071e57600080fd5b5061033f61072d366004612cab565b61109a565b34801561073e57600080fd5b5061033f611227565b34801561075357600080fd5b506002546104b9906001600160a01b031681565b34801561077357600080fd5b5061035660105481565b34801561078957600080fd5b506103566113a9565b34801561079e57600080fd5b506003546105f990600160a81b900460ff1681565b3480156107bf57600080fd5b506003546105f990600160b01b900460ff1681565b3480156107e057600080fd5b5061035660085481565b3480156107f657600080fd5b5060005461080b90600160a01b900460ff1681565b6040516103609190612cda565b34801561082457600080fd5b506104b97f000000000000000000000000000000000000000000000000000000000000000081565b34801561085857600080fd5b5061033f610867366004612cab565b6113fc565b34801561087857600080fd5b5061033f610887366004612e1c565b611705565b34801561089857600080fd5b5061035660065481565b3480156108ae57600080fd5b5061035660155481565b3480156108c457600080fd5b5061035660075481565b3480156108da57600080fd5b5061035660115481565b3480156108f057600080fd5b506103566108ff366004612c6c565b611dfc565b34801561091057600080fd5b50610356611e7a565b34801561092557600080fd5b5061033f610934366004612c6c565b611f47565b34801561094557600080fd5b5061033f610954366004612f16565b611fbd565b34801561096557600080fd5b506001546104b9906001600160a01b031681565b6109816121ab565b600354600160a81b900460ff166109df5760405162461bcd60e51b815260206004820152601a60248201527f636f696e2d6d616368696e652d6e6f742d73746f707061626c6500000000000060448201526064015b60405180910390fd5b6002600054600160a01b900460ff1660028111156109ff576109ff612cc4565b03610a4c5760405162461bcd60e51b815260206004820152601c60248201527f636f696e2d6d616368696e652d616c72656164792d73746f707065640000000060448201526064016109d6565b42600555610a5a6000612205565b610a64600261226c565b565b6000600654610a736122c5565b610a7d9190612f6e565b905090565b6000610a7d601054610a92610f7c565b610a9a610b9e565b610aa49190612f82565b6122ed565b600080610ab4610f7c565b90506000610ac06113a9565b90506000610acd85611dfc565b9050610ae281610add8585612313565b612313565b95945050505050565b610af36121ab565b6001600160a01b038116610b495760405162461bcd60e51b815260206004820152601c60248201527f636f696e2d6d616368696e652d6261642d62656e65666963696172790000000060448201526064016109d6565b600380546001600160a01b0319166001600160a01b0383169081179091556040519081527f04d55a8be181fb8d75b76f2d48aa0b2ee40f47e53d6e61763eeeec46feea8a24906020015b60405180910390a150565b6000600c54601254610a7d9190612f82565b6000600d54601454610a7d9190612f82565b6002546000906001600160a01b031615610be657506002546001600160a01b031690565b507f000000000000000000000000000000000000000000000000000000000000000090565b610c136121ab565b6001600054600160a01b900460ff166002811115610c3357610c33612cc4565b14610c805760405162461bcd60e51b815260206004820152601760248201527f636f696e2d6d616368696e652d6e6f742d70617573656400000000000000000060448201526064016109d6565b610c8a600061226c565b610a64611227565b610c9a6121ab565b4260055462278d00610cac9190612f82565b1115610cfa5760405162461bcd60e51b815260206004820152601a60248201527f636f696e2d6d616368696e652d63616e6e6f742d64656c65746500000000000060448201526064016109d6565b6000610d04610f7c565b60015460035460405163a9059cbb60e01b81526001600160a01b03918216600482015260248101849052929350169063a9059cbb906044016020604051808303816000875af1158015610d5b573d6000803e3d6000fd5b505050506040513d601f19601f82011682018060405250810190610d7f9190612f95565b610d9b5760405162461bcd60e51b81526004016109d690612fb2565b6000610da5610bc2565b6040516370a0823160e01b81523060048201529091506000906001600160a01b038316906370a0823190602401602060405180830381865afa158015610def573d6000803e3d6000fd5b505050506040513d601f19601f82011682018060405250810190610e139190612fe9565b60035460405163a9059cbb60e01b81526001600160a01b0391821660048201526024810183905291925083169063a9059cbb906044016020604051808303816000875af1158015610e68573d6000803e3d6000fd5b505050506040513d601f19601f82011682018060405250810190610e8c9190612f95565b610ea85760405162461bcd60e51b81526004016109d690612fb2565b6040805184815260208101839052478183015290517fe5b26d25fa607d899647938b184755e3bbf0eb7e140d357ffbc18ca0350934b29181900360600190a16003546001600160a01b0316ff5b610efd6121ab565b610a64600061232a565b610f0f611227565b80610f18611e7a565b1115610f5f5760405162461bcd60e51b8152602060048201526016602482015275636f696e2d6d616368696e652d6261642d707269636560501b60448201526064016109d6565b600254610f7890339084906001600160a01b031661237a565b5050565b6001546040516370a0823160e01b81523060048201526000916001600160a01b0316906370a0823190602401602060405180830381865afa158015610fc5573d6000803e3d6000fd5b505050506040513d601f19601f82011682018060405250810190610a7d9190612fe9565b610ff16121ab565b600354600160a81b900460ff1661104a5760405162461bcd60e51b815260206004820152601a60248201527f636f696e2d6d616368696e652d6e6f742d73746f707061626c6500000000000060448201526064016109d6565b60008054600160a01b900460ff16600281111561106957611069612cc4565b146110865760405162461bcd60e51b81526004016109d690613002565b6110906000612205565b610a64600161226c565b6000818152601760205260409020546001600160a01b031633146111005760405162461bcd60e51b815260206004820152601e60248201527f636f696e2d6d616368696e652d6e6f742d6f726465722d63726561746f72000060448201526064016109d6565b600081815260176020526040812060038101805482546001600160a01b0319168355600183018490556002909201839055829055600554909190421015611152576003546001600160a01b0316611154565b335b905061115e610bc2565b60405163a9059cbb60e01b81526001600160a01b03838116600483015260248201859052919091169063a9059cbb906044016020604051808303816000875af11580156111af573d6000803e3d6000fd5b505050506040513d601f19601f820116820180604052508101906111d39190612f95565b6111ef5760405162461bcd60e51b81526004016109d690613039565b6040518381527fa79034042a790ce528ef3275727fa99fa364bebccd18f9d6094e524e8c075f869060200160405180910390a1505050565b6000611231610a66565b905080600a5411156112455761124561306e565b80600a5410156113a657600a54600354600160a01b900460ff1661128a576112856000611270610f7c565b1180156112805750611280612b4f565b612205565b611329565b611298600754600d546122ed565b6112b9600754670de0b6b3a76400006112b19190613084565b600e546122ed565b6112c39190612f82565b600e55600060016112d48385613084565b6112de9190613084565b9050801561130c576113086112b1600754670de0b6b3a76400006113029190613084565b83612b76565b600e555b61132461131d600e54600854612b90565b6001612ba5565b600b55505b600d546014600082825461133d9190612f82565b9091555050600c5460128054600090611357908490612f82565b9091555050600a8290556000600d819055600c5560408051828152602081018490527f5b873fc01d45058fe77f3883a91020f46d5a7385baac6ceab19748d1d0ae464a910160405180910390a1505b50565b6000610a7d6113b6610a66565b600a5410156113c65760006113ca565b600c545b6009546113d79190613084565b610add6113e2610bb0565b6015546113ef9190613084565b6113f7611e7a565b612b90565b60165481111561144e5760405162461bcd60e51b815260206004820152601c60248201527f636f696e2d6d616368696e652d6f726465722d6e6f742d666f756e640000000060448201526064016109d6565b6000818152601760205260409020611464611227565b600061146e611e7a565b905081600101548111156114c45760405162461bcd60e51b815260206004820152601b60248201527f636f696e2d6d616368696e652d70726963652d746f6f2d68696768000000000060448201526064016109d6565b60006114eb6114d7846002015484612b90565b8454610add906001600160a01b0316610aa9565b905060006114f982846122ed565b905060006115138560030154610aa4848860020154612b90565b90508185600201546115259190613084565b6002860155600385015461153a908290613084565b6003860155845460028601546001600160a01b039091169060011061158857600087815260176020526040812080546001600160a01b03191681556001810182905560028101829055600301555b6000611592610bc2565b90506001600160a01b0381166115aa576115aa61306e565b60405163a9059cbb60e01b8152336004820152602481018490526001600160a01b0382169063a9059cbb906044016020604051808303816000875af11580156115f7573d6000803e3d6000fd5b505050506040513d601f19601f8201168201806040525081019061161b9190612f95565b6116375760405162461bcd60e51b81526004016109d690613039565b604051636eb1769f60e11b81526001600160a01b03838116600483015230602483015285919083169063dd62ed3e90604401602060405180830381865afa158015611686573d6000803e3d6000fd5b505050506040513d601f19601f820116820180604052508101906116aa9190612fe9565b106116ba576116ba82868361237a565b60408051898152602081018690529081018490527f17b224decce18200c88135db1990ee979165120be064f645ef080dd0e501f6dd9060600160405180910390a15050505050505050565b61170d6121ab565b600454421061175e5760405162461bcd60e51b815260206004820152601760248201527f636f696e2d6d616368696e652d73616c652d626567756e00000000000000000060448201526064016109d6565b89516001600160a01b03166117b55760405162461bcd60e51b815260206004820152601a60248201527f636f696e2d6d616368696e652d696e76616c69642d746f6b656e00000000000060448201526064016109d6565b60208a01516001600160a01b03161515806117f857507f00000000000000000000000000000000000000000000000000000000000000006001600160a01b031615155b6118445760405162461bcd60e51b815260206004820152601a60248201527f636f696e2d6d616368696e652d696e76616c69642d746f6b656e00000000000060448201526064016109d6565b87516118925760405162461bcd60e51b815260206004820152601d60248201527f636f696e2d6d616368696e652d706572696f642d746f6f2d736d616c6c00000060448201526064016109d6565b60208801516118e35760405162461bcd60e51b815260206004820152601d60248201527f636f696e2d6d616368696e652d77696e646f772d746f6f2d736d616c6c00000060448201526064016109d6565b602088015161020010156119395760405162461bcd60e51b815260206004820152601d60248201527f636f696e2d6d616368696e652d77696e646f772d746f6f2d6c6172676500000060448201526064016109d6565b86516119875760405162461bcd60e51b815260206004820152601d60248201527f636f696e2d6d616368696e652d7461726765742d746f6f2d736d616c6c00000060448201526064016109d6565b6020870151875111156119dc5760405162461bcd60e51b815260206004820152601a60248201527f636f696e2d6d616368696e652d6d61782d746f6f2d736d616c6c00000000000060448201526064016109d6565b8551670de0b6b3a76400001015611a355760405162461bcd60e51b815260206004820152601c60248201527f636f696e2d6d616368696e652d6c696d69742d746f6f2d6c617267650000000060448201526064016109d6565b8551611a835760405162461bcd60e51b815260206004820152601c60248201527f636f696e2d6d616368696e652d6c696d69742d746f6f2d736d616c6c0000000060448201526064016109d6565b602086015186511015611ad85760405162461bcd60e51b815260206004820181905260248201527f636f696e2d6d616368696e652d6c696d6974732d696e636f6e73697374656e7460448201526064016109d6565b60008511611b285760405162461bcd60e51b815260206004820152601c60248201527f636f696e2d6d616368696e652d70726963652d746f6f2d736d616c6c0000000060448201526064016109d6565b6001600160801b03851115611b7f5760405162461bcd60e51b815260206004820152601a60248201527f636f696e2d6d616368696e652d70726963652d746f6f2d62696700000000000060448201526064016109d6565b6001600160801b03841115611bd65760405162461bcd60e51b815260206004820152601860248201527f636f696e2d6d616368696e652d6361702d746f6f2d626967000000000000000060448201526064016109d6565b8951600180546001600160a01b039283166001600160a01b03199182161790915560208c015160028054919093169116179055885115611c17578851611c19565b425b600455602089015115611c30576020890151611c40565b600454611c409062ed4e00612f82565b600555600454421115611c955760405162461bcd60e51b815260206004820152601b60248201527f636f696e2d6d616368696e652d6261642d73746172742d74696d65000000000060448201526064016109d6565b60055460045410611ce85760405162461bcd60e51b815260206004820152601960248201527f636f696e2d6d616368696e652d6261642d656e642d74696d650000000000000060448201526064016109d6565b87516006556020880151611d04906002906113f7906001612f82565b600755865160088190556020808901516009558751601155870151601055600b869055611d3190866122ed565b600e556015849055825160038054602086015160408701511515600160b81b02901515600160b01b0261ffff60a81b19909216931515600160a81b0260ff60b01b1916939093171760ff60b81b1916919091179055611d8f82610aeb565b600f80546001600160a01b0319166001600160a01b038316179055611db4600061226c565b611dc76000611dc1610f7c565b11612205565b6040517f8659acc9ee6146ef7e0dcc9851284bd43577098ffbe0119792784129fa0d2eed90600090a150505050505050505050565b6000670de0b6b3a76400006011541480611e1f5750600f546001600160a01b0316155b611e70576001600160a01b038216600090815260136020526040902054611e61611e47610b9e565b611e4f610f7c565b611e599190612f82565b6011546122ed565b611e6b9190613084565b611e74565b6000195b92915050565b600080611e85610a66565b905080600a54101580611ea25750600354600160a01b900460ff16155b15611eaf575050600b5490565b600e54600754600d54611ec291906122ed565b611ee1600754670de0b6b3a7640000611edb9190613084565b836122ed565b611eeb9190612f82565b905060006001600a5484611eff9190613084565b611f099190613084565b90508015611f3057611f2d611edb600754670de0b6b3a76400006113029190613084565b91505b611f3f61131d83600854612b90565b935050505090565b611f4f6121ab565b6001600160a01b038116611fb45760405162461bcd60e51b815260206004820152602660248201527f4f776e61626c653a206e6577206f776e657220697320746865207a65726f206160448201526564647265737360d01b60648201526084016109d6565b6113a68161232a565b611fc5612b4f565b611fe15760405162461bcd60e51b81526004016109d690613002565b600354600160b01b900460ff166120455760405162461bcd60e51b815260206004820152602260248201527f636f696e2d6d616368696e652d6c696d69742d6f72646572732d64697361626c604482015261195960f21b60648201526084016109d6565b61204d610bc2565b6040516323b872dd60e01b8152336004820152306024820152604481018390526001600160a01b0391909116906323b872dd906064016020604051808303816000875af11580156120a2573d6000803e3d6000fd5b505050506040513d601f19601f820116820180604052508101906120c69190612f95565b6120e25760405162461bcd60e51b81526004016109d690613039565b601680549060006120f283613097565b909155505060408051608080820183523380835260208084018881528486018881526060808701898152601680546000908152601787528a9020985189546001600160a01b0319166001600160a01b039091161789559351600189015591516002880155905160039096019590955554855190815290810188905293840186905291830184905290917f3a7d2e94cabf944a15f064b55e235dd1ad06f5df84561d5339ed98e8194906e9910160405180910390a2505050565b6000546001600160a01b03163314610a645760405162461bcd60e51b815260206004820181905260248201527f4f776e61626c653a2063616c6c6572206973206e6f7420746865206f776e657260448201526064016109d6565b600360149054906101000a900460ff161515811515146113a65760038054821515600160a01b0260ff60a01b199091161790556040517f5b4e200daa1a93764a810c35f18f2fcfb14b5e95df6ae7ac1ffdc8eec425babc90610b9390831515815260200190565b6000805482919060ff60a01b1916600160a01b83600281111561229157612291612cc4565b02179055507fd2d7d26509a0f467151b1957c8c832c751923756862314d6002c201f254b64f681604051610b939190612cda565b60006004546122e3601854426122db9190612f82565b600454612ba5565b610a7d9190613084565b6000670de0b6b3a764000061230283856130b0565b61230c9190612f6e565b9392505050565b600081831115612323578161230c565b5090919050565b600080546001600160a01b038381166001600160a01b0319831681178455604051919092169283917f8be0079c531659141344cd1fd0a4f28419497f9722a3daafe3b4186f6b6457e09190a35050565b612382612b4f565b61239e5760405162461bcd60e51b81526004016109d690613002565b6123a6610a66565b600a5410156123b7576123b761306e565b4260045411156124095760405162461bcd60e51b815260206004820152601b60248201527f636f696e2d6d616368696e652d73616c652d6e6f742d626567756e000000000060448201526064016109d6565b60055442106124535760405162461bcd60e51b815260206004820152601660248201527531b7b4b716b6b0b1b434b73296b9b0b63296b7bb32b960511b60448201526064016109d6565b600f546001600160a01b031615806124d45750600f5460405163673448dd60e01b81526001600160a01b0385811660048301529091169063673448dd90602401602060405180830381865afa1580156124b0573d6000803e3d6000fd5b505050506040513d601f19601f820116820180604052508101906124d49190612f95565b6125205760405162461bcd60e51b815260206004820152601960248201527f636f696e2d6d616368696e652d756e617574686f72697365640000000000000060448201526064016109d6565b600061252b84610aa9565b905060006125398285612313565b905060008111612587573415612580576040516001600160a01b038616903480156108fc02916000818181858888f1935050505015801561257e573d6000803e3d6000fd5b505b5050505050565b600061259582600b546122ed565b905080600d60008282546125a99190612f82565b9091555050601154670de0b6b3a764000011806125c857506000601054115b156126735760006125d7610a82565b6001600160a01b038816600090815260136020526040812080549293508592909190612604908490612f82565b90915550506001600160a01b0387166000908152601360205260409020548111156126715760405162461bcd60e51b815260206004820152601f60248201527f636f696e2d6d616368696e652d70757263686173652d746f6f2d736d616c6c0060448201526064016109d6565b505b81600c60008282546126859190612f82565b9091555050601554612695610bb0565b11156126a3576126a361306e565b600954600c5411156126b7576126b761306e565b6126bf610f7c565b82106126cf576126cf6000612205565b600954600c541480156126eb5750600354600160b81b900460ff165b1561272f5760006006546126fd6122c5565b61270791906130c7565b9050806006546127179190613084565b601860008282546127289190612f82565b9091555050505b600061275b827f00000000000000000000000000000000000000000000000000000000000000006122ed565b90506001600160a01b0385166128a257813410156127bb5760405162461bcd60e51b815260206004820152601f60248201527f636f696e2d6d616368696e652d696e73756666696369656e742d66756e64730060448201526064016109d6565b81341115612804576001600160a01b0387166108fc6127da8434613084565b6040518115909202916000818181858888f19350505050158015612802573d6000803e3d6000fd5b505b6040516001600160a01b037f0000000000000000000000000000000000000000000000000000000000000000169082156108fc029083906000818181858888f1935050505015801561285a573d6000803e3d6000fd5b506003546001600160a01b03166108fc6128748385613084565b6040518115909202916000818181858888f1935050505015801561289c573d6000803e3d6000fd5b50612a6f565b6040516323b872dd60e01b81526001600160a01b0388811660048301527f000000000000000000000000000000000000000000000000000000000000000081166024830152604482018390528616906323b872dd906064016020604051808303816000875af1158015612919573d6000803e3d6000fd5b505050506040513d601f19601f8201168201806040525081019061293d9190612f95565b6129895760405162461bcd60e51b815260206004820152601c60248201527f636f696e2d6d616368696e652d70757263686173652d6661696c65640000000060448201526064016109d6565b6003546001600160a01b03808716916323b872dd918a91166129ab8587613084565b6040516001600160e01b031960e086901b1681526001600160a01b03938416600482015292909116602483015260448201526064016020604051808303816000875af11580156129ff573d6000803e3d6000fd5b505050506040513d601f19601f82011682018060405250810190612a239190612f95565b612a6f5760405162461bcd60e51b815260206004820152601c60248201527f636f696e2d6d616368696e652d70757263686173652d6661696c65640000000060448201526064016109d6565b60015460405163a9059cbb60e01b81526001600160a01b038981166004830152602482018690529091169063a9059cbb906044016020604051808303816000875af1158015612ac2573d6000803e3d6000fd5b505050506040513d601f19601f82011682018060405250810190612ae69190612f95565b612b025760405162461bcd60e51b81526004016109d690612fb2565b60408051848152602081018490526001600160a01b038916917f8442948036198f1146d3a63c3db355d7e0295c2cc5676c755990445da4fdc1c9910160405180910390a250505050505050565b600080600054600160a01b900460ff166002811115612b7057612b70612cc4565b14905090565b6000633b9aca00612302612b8a85836130b0565b84612bb5565b600081612302670de0b6b3a7640000856130b0565b600081831015612323578161230c565b6000612bc26002836130c7565b600003612bdb576b033b2e3c9fd0803ce8000000612bdd565b825b9050612bea600283612f6e565b91505b8115611e7457612bfd8384612c2e565b9250612c0a6002836130c7565b15612c1c57612c198184612c2e565b90505b612c27600283612f6e565b9150612bed565b60006b033b2e3c9fd0803ce800000061230283856130b0565b6001600160a01b03811681146113a657600080fd5b8035612c6781612c47565b919050565b600060208284031215612c7e57600080fd5b813561230c81612c47565b60008060408385031215612c9c57600080fd5b50508035926020909101359150565b600060208284031215612cbd57600080fd5b5035919050565b634e487b7160e01b600052602160045260246000fd5b6020810160038310612cfc57634e487b7160e01b600052602160045260246000fd5b91905290565b6040805190810167ffffffffffffffff81118282101715612d3357634e487b7160e01b600052604160045260246000fd5b60405290565b600082601f830112612d4a57600080fd5b612d52612d02565b806040840185811115612d6457600080fd5b845b81811015612d7e578035845260209384019301612d66565b509095945050505050565b80151581146113a657600080fd5b600082601f830112612da857600080fd5b6040516060810181811067ffffffffffffffff82111715612dd957634e487b7160e01b600052604160045260246000fd5b604052806060840185811115612dee57600080fd5b845b81811015612e11578035612e0381612d89565b835260209283019201612df0565b509195945050505050565b6000806000806000806000806000806102208b8d031215612e3c57600080fd5b8b601f8c0112612e4b57600080fd5b612e53612d02565b8060408d018e811115612e6557600080fd5b8d5b81811015612e88578035612e7a81612c47565b845260209384019301612e67565b50819c50612e968f82612d39565b9b50505050612ea88c60808d01612d39565b9750612eb78c60c08d01612d39565b9650612ec78c6101008d01612d39565b95506101408b013594506101608b01359350612ee78c6101808d01612d97565b9250612ef66101e08c01612c5c565b9150612f056102008c01612c5c565b90509295989b9194979a5092959850565b600080600060608486031215612f2b57600080fd5b505081359360208301359350604090920135919050565b634e487b7160e01b600052601260045260246000fd5b634e487b7160e01b600052601160045260246000fd5b600082612f7d57612f7d612f42565b500490565b80820180821115611e7457611e74612f58565b600060208284031215612fa757600080fd5b815161230c81612d89565b6020808252601c908201527f636f696e2d6d616368696e652d7472616e736665722d6661696c656400000000604082015260600190565b600060208284031215612ffb57600080fd5b5051919050565b60208082526017908201527f636f696e2d6d616368696e652d6e6f742d616374697665000000000000000000604082015260600190565b6020808252818101527f636f696e2d6d616368696e652d6665652d7472616e736665722d6661696c6564604082015260600190565b634e487b7160e01b600052600160045260246000fd5b81810381811115611e7457611e74612f58565b6000600182016130a9576130a9612f58565b5060010190565b8082028115828204841417611e7457611e74612f58565b6000826130d6576130d6612f42565b50069056fea264697066735822122074d140f0d0366d2827cca7001c613b6874a274eec5347e61a985fa13acb51d8c64736f6c63430008110033a2646970667358221220fe5016e5dd10afa92a303c2d5fff70166d1f0af8d1b8e5c94a7b11214bbea92664736f6c63430008110033",
  "immutableReferences": {},
  "source": "// SPDX-License-Identifier: GPL-3.0-only\n\n/*\n  This file is part of The Colony Network.\n\n  The Colony Network is free software: you can redistribute it and/or modify\n  it under the terms of the GNU General Public License as published by\n  the Free Software Foundation, either version 3 of the License, or\n  (at your option) any later version.\n\n  The Colony Network is distributed in the hope that it will be useful,\n  but WITHOUT ANY WARRANTY; without even the implied warranty of\n  MERCHANTABILITY or FITNESS FOR A PARTICULAR PURPOSE.  See the\n  GNU General Public License for more details.\n\n  You should have received a copy of the GNU General Public License\n  along with The Colony Network. If not, see <http://www.gnu.org/licenses/>.\n*/\n\npragma solidity 0.8.17;\n\nimport \"../CoinMachine.sol\";\nimport \"../Whitelist.sol\";\nimport \"./CoinMachineFactoryStorage.sol\";\n\n\ncontract CoinMachineFactory is CoinMachineFactoryStorage {\n  receive() external payable {}\n\n  // Public\n\n  function deployCoinMachine(bytes32 _agreementHash) external {\n    require(agreementHash == _agreementHash, \"coin-machine-factory-bad-signature\");\n\n    CoinMachine coinMachine = new CoinMachine(msg.sender, feeFraction, wrappedToken);\n\n    emit CoinMachineDeployed(msg.sender, _agreementHash, address(coinMachine));\n  }\n\n  function deployWhitelist(bool _useApprovals, string memory _agreementHash) external {\n    Whitelist whitelist = new Whitelist(msg.sender, _useApprovals, _agreementHash);\n\n    emit WhitelistDeployed(msg.sender, address(whitelist));\n  }\n\n  // View\n\n  function getAgreementHash() external view returns (bytes32) {\n    return agreementHash;\n  }\n\n  function getFeeFraction() external view returns (uint256) {\n    return feeFraction;\n  }\n\n  function getWrappedToken() public view returns (address) {\n    return wrappedToken;\n  }\n\n  // Owner\n\n  function setAgreementHash(bytes32 _agreementHash) external onlyOwner {\n    agreementHash = _agreementHash;\n\n    emit AgreementHashSet(_agreementHash);\n  }\n\n  function setFeeFraction(uint256 _feeFraction) external onlyOwner {\n    require(_feeFraction <= WAD, \"factory-invalid-fraction\");\n    feeFraction = _feeFraction;\n\n    emit FeeFractionSet(_feeFraction);\n  }\n\n  function setWrappedToken(address _wrappedToken) public onlyOwner {\n    wrappedToken = _wrappedToken;\n\n    emit WrappedTokenSet(_wrappedToken);\n  }\n\n  function withdraw(address _token) external onlyOwner {\n    uint256 balance = ERC20(_token).balanceOf(address(this));\n    require(ERC20(_token).transfer(owner(), balance), \"factory-transfer-failed\");\n  }\n}\n",
  "sourcePath": "/home/thomassdk/code/colony/coinMachine/main/contracts/contracts/factory/CoinMachineFactory.sol",
  "compiler": {
    "name": "solc",
    "version": "0.8.17+commit.8df45f5f.Emscripten.clang"
  },
  "schemaVersion": "3.4.10",
  "updatedAt": "2023-01-30T13:33:17.889Z",
  "networkType": "ethereum",
  "devdoc": {
    "kind": "dev",
    "methods": {
      "owner()": {
        "details": "Returns the address of the current owner."
      },
      "renounceOwnership()": {
        "details": "Leaves the contract without owner. It will not be possible to call `onlyOwner` functions anymore. Can only be called by the current owner. NOTE: Renouncing ownership will leave the contract without an owner, thereby removing any functionality that is only available to the owner."
      },
      "transferOwnership(address)": {
        "details": "Transfers ownership of the contract to a new account (`newOwner`). Can only be called by the current owner."
      }
    },
    "version": 1
  },
  "userdoc": {
    "kind": "user",
    "methods": {},
    "version": 1
  }
}