{
  "contractName": "Whitelist",
  "abi": [
    {
      "inputs": [
        {
          "internalType": "address",
          "name": "_owner",
          "type": "address"
        },
        {
          "internalType": "bool",
          "name": "_useApprovals",
          "type": "bool"
        },
        {
          "internalType": "string",
          "name": "_agreementHash",
          "type": "string"
        }
      ],
      "stateMutability": "nonpayable",
      "type": "constructor"
    },
    {
      "anonymous": false,
      "inputs": [
        {
          "indexed": true,
          "internalType": "address",
          "name": "_user",
          "type": "address"
        },
        {
          "indexed": false,
          "internalType": "bool",
          "name": "_status",
          "type": "bool"
        }
      ],
      "name": "AdminRoleSet",
      "type": "event"
    },
    {
      "anonymous": false,
      "inputs": [
        {
          "indexed": true,
          "internalType": "address",
          "name": "_user",
          "type": "address"
        }
      ],
      "name": "AgreementSigned",
      "type": "event"
    },
    {
      "anonymous": false,
      "inputs": [
        {
          "indexed": true,
          "internalType": "address",
          "name": "previousOwner",
          "type": "address"
        },
        {
          "indexed": true,
          "internalType": "address",
          "name": "newOwner",
          "type": "address"
        }
      ],
      "name": "OwnershipTransferred",
      "type": "event"
    },
    {
      "anonymous": false,
      "inputs": [
        {
          "indexed": true,
          "internalType": "address",
          "name": "_user",
          "type": "address"
        },
        {
          "indexed": false,
          "internalType": "bool",
          "name": "_status",
          "type": "bool"
        }
      ],
      "name": "UserApproved",
      "type": "event"
    },
    {
      "inputs": [
        {
          "internalType": "address",
          "name": "",
          "type": "address"
        }
      ],
      "name": "admins",
      "outputs": [
        {
          "internalType": "bool",
          "name": "",
          "type": "bool"
        }
      ],
      "stateMutability": "view",
      "type": "function"
    },
    {
      "inputs": [],
      "name": "agreementHash",
      "outputs": [
        {
          "internalType": "string",
          "name": "",
          "type": "string"
        }
      ],
      "stateMutability": "view",
      "type": "function"
    },
    {
      "inputs": [
        {
          "internalType": "address",
          "name": "",
          "type": "address"
        }
      ],
      "name": "approvals",
      "outputs": [
        {
          "internalType": "bool",
          "name": "",
          "type": "bool"
        }
      ],
      "stateMutability": "view",
      "type": "function"
    },
    {
      "inputs": [],
      "name": "owner",
      "outputs": [
        {
          "internalType": "address",
          "name": "",
          "type": "address"
        }
      ],
      "stateMutability": "view",
      "type": "function"
    },
    {
      "inputs": [],
      "name": "renounceOwnership",
      "outputs": [],
      "stateMutability": "nonpayable",
      "type": "function"
    },
    {
      "inputs": [
        {
          "internalType": "address",
          "name": "",
          "type": "address"
        }
      ],
      "name": "signatures",
      "outputs": [
        {
          "internalType": "bool",
          "name": "",
          "type": "bool"
        }
      ],
      "stateMutability": "view",
      "type": "function"
    },
    {
      "inputs": [
        {
          "internalType": "address",
          "name": "newOwner",
          "type": "address"
        }
      ],
      "name": "transferOwnership",
      "outputs": [],
      "stateMutability": "nonpayable",
      "type": "function"
    },
    {
      "inputs": [],
      "name": "useApprovals",
      "outputs": [
        {
          "internalType": "bool",
          "name": "",
          "type": "bool"
        }
      ],
      "stateMutability": "view",
      "type": "function"
    },
    {
      "inputs": [
        {
          "internalType": "address[]",
          "name": "_users",
          "type": "address[]"
        },
        {
          "internalType": "bool",
          "name": "_status",
          "type": "bool"
        }
      ],
      "name": "setAdminRole",
      "outputs": [],
      "stateMutability": "nonpayable",
      "type": "function"
    },
    {
      "inputs": [
        {
          "internalType": "address[]",
          "name": "_users",
          "type": "address[]"
        },
        {
          "internalType": "bool",
          "name": "_status",
          "type": "bool"
        }
      ],
      "name": "approveUsers",
      "outputs": [],
      "stateMutability": "nonpayable",
      "type": "function"
    },
    {
      "inputs": [
        {
          "internalType": "string",
          "name": "_agreementHash",
          "type": "string"
        }
      ],
      "name": "signAgreement",
      "outputs": [],
      "stateMutability": "nonpayable",
      "type": "function"
    },
    {
      "inputs": [
        {
          "internalType": "address",
          "name": "_user",
          "type": "address"
        }
      ],
      "name": "isApproved",
      "outputs": [
        {
          "internalType": "bool",
          "name": "",
          "type": "bool"
        }
      ],
      "stateMutability": "view",
      "type": "function"
    }
  ],
  "bytecode": "0x60a06040523480156200001157600080fd5b50604051620010ba380380620010ba833981016040819052620000349162000200565b6200003f33620000bd565b81806200004d575060008151115b620000945760405162461bcd60e51b81526020600482015260126024820152711dda1a5d195b1a5cdd0b5898590b5a5b9a5d60721b60448201526064015b60405180910390fd5b8115156080526001620000a882826200039e565b50620000b4836200010d565b5050506200046a565b600080546001600160a01b038381166001600160a01b0319831681178455604051919092169283917f8be0079c531659141344cd1fd0a4f28419497f9722a3daafe3b4186f6b6457e09190a35050565b620001176200018c565b6001600160a01b0381166200017e5760405162461bcd60e51b815260206004820152602660248201527f4f776e61626c653a206e6577206f776e657220697320746865207a65726f206160448201526564647265737360d01b60648201526084016200008b565b6200018981620000bd565b50565b6000546001600160a01b03163314620001e85760405162461bcd60e51b815260206004820181905260248201527f4f776e61626c653a2063616c6c6572206973206e6f7420746865206f776e657260448201526064016200008b565b565b634e487b7160e01b600052604160045260246000fd5b6000806000606084860312156200021657600080fd5b83516001600160a01b03811681146200022e57600080fd5b8093505060208085015180151581146200024757600080fd5b60408601519093506001600160401b03808211156200026557600080fd5b818701915087601f8301126200027a57600080fd5b8151818111156200028f576200028f620001ea565b604051601f8201601f19908116603f01168101908382118183101715620002ba57620002ba620001ea565b816040528281528a86848701011115620002d357600080fd5b600093505b82841015620002f75784840186015181850187015292850192620002d8565b60008684830101528096505050505050509250925092565b600181811c908216806200032457607f821691505b6020821081036200034557634e487b7160e01b600052602260045260246000fd5b50919050565b601f8211156200039957600081815260208120601f850160051c81016020861015620003745750805b601f850160051c820191505b81811015620003955782815560010162000380565b5050505b505050565b81516001600160401b03811115620003ba57620003ba620001ea565b620003d281620003cb84546200030f565b846200034b565b602080601f8311600181146200040a5760008415620003f15750858301515b600019600386901b1c1916600185901b17855562000395565b600085815260208120601f198616915b828110156200043b578886015182559484019460019091019084016200041a565b50858210156200045a5787850151600019600388901b60f8161c191681555b5050505050600190811b01905550565b608051610c206200049a6000396000818160dc0152818161028b0152818161044e01526105880152610c206000f3fe608060405234801561001057600080fd5b50600436106100b45760003560e01c8063673448dd11610071578063673448dd1461017c578063715018a61461018f5780638da5cb5b14610197578063a11c1d51146101b2578063c792f36d146101c5578063f2fde38b146101e857600080fd5b80630ab55d0b146100b95780631ad044cb146100d75780631bbfb0091461010e5780632ec7ff9514610123578063429b62e5146101365780635d0341ba14610159575b600080fd5b6100c16101fb565b6040516100ce919061089c565b60405180910390f35b6100fe7f000000000000000000000000000000000000000000000000000000000000000081565b60405190151581526020016100ce565b61012161011c366004610942565b610289565b005b610121610131366004610942565b610444565b6100fe610144366004610a01565b60026020526000908152604090205460ff1681565b6100fe610167366004610a01565b60036020526000908152604090205460ff1681565b6100fe61018a366004610a01565b610584565b61012161060b565b6000546040516001600160a01b0390911681526020016100ce565b6101216101c0366004610a23565b61061f565b6100fe6101d3366004610a01565b60046020526000908152604090205460ff1681565b6101216101f6366004610a01565b610755565b6001805461020890610ab8565b80601f016020809104026020016040519081016040528092919081815260200182805461023490610ab8565b80156102815780601f1061025657610100808354040283529160200191610281565b820191906000526020600020905b81548152906001019060200180831161026457829003601f168201915b505050505081565b7f00000000000000000000000000000000000000000000000000000000000000006102f45760405162461bcd60e51b815260206004820152601660248201527577686974656c6973742d6e6f2d617070726f76616c7360501b60448201526064015b60405180910390fd5b3360009081526002602052604090205460ff168061032b5750336103206000546001600160a01b031690565b6001600160a01b0316145b61036d5760405162461bcd60e51b81526020600482015260136024820152723bb434ba32b634b9ba16b737ba16b0b236b4b760691b60448201526064016102eb565b60005b825181101561043f57816003600085848151811061039057610390610af2565b60200260200101516001600160a01b03166001600160a01b0316815260200190815260200160002060006101000a81548160ff0219169083151502179055508281815181106103e1576103e1610af2565b60200260200101516001600160a01b03167f60dc44a8ff6f8c563265a9654c756ef7d51cb49658531b2c735ef754c74e8a3483604051610425911515815260200190565b60405180910390a28061043781610b08565b915050610370565b505050565b61044c6107ce565b7f00000000000000000000000000000000000000000000000000000000000000006104b25760405162461bcd60e51b815260206004820152601660248201527577686974656c6973742d6e6f2d617070726f76616c7360501b60448201526064016102eb565b60005b825181101561043f5781600260008584815181106104d5576104d5610af2565b60200260200101516001600160a01b03166001600160a01b0316815260200190815260200160002060006101000a81548160ff02191690831515021790555082818151811061052657610526610af2565b60200260200101516001600160a01b03167fcebd8d7799da909f67afa66d365d9c6effd59adb80d622132305767f2b0ee6288360405161056a911515815260200190565b60405180910390a28061057c81610b08565b9150506104b5565b60007f000000000000000000000000000000000000000000000000000000000000000015806105cb57506001600160a01b03821660009081526003602052604090205460ff165b80156106055750600180546105df90610ab8565b1590508061060557506001600160a01b03821660009081526004602052604090205460ff165b92915050565b6106136107ce565b61061d6000610828565b565b60006001805461062e90610ab8565b9050116106765760405162461bcd60e51b81526020600482015260166024820152751dda1a5d195b1a5cdd0b5b9bcb5859dc99595b595b9d60521b60448201526064016102eb565b806040516020016106879190610b2f565b6040516020818303038152906040528051906020012060016040516020016106af9190610b4b565b60405160208183030381529060405280519060200120146107125760405162461bcd60e51b815260206004820152601760248201527f77686974656c6973742d6261642d7369676e617475726500000000000000000060448201526064016102eb565b33600081815260046020526040808220805460ff19166001179055517f5cca47fc45be2c2c68100afd7cd2431116c0c535c159e4f6c7e63934cf9f7aad9190a250565b61075d6107ce565b6001600160a01b0381166107c25760405162461bcd60e51b815260206004820152602660248201527f4f776e61626c653a206e6577206f776e657220697320746865207a65726f206160448201526564647265737360d01b60648201526084016102eb565b6107cb81610828565b50565b6000546001600160a01b0316331461061d5760405162461bcd60e51b815260206004820181905260248201527f4f776e61626c653a2063616c6c6572206973206e6f7420746865206f776e657260448201526064016102eb565b600080546001600160a01b038381166001600160a01b0319831681178455604051919092169283917f8be0079c531659141344cd1fd0a4f28419497f9722a3daafe3b4186f6b6457e09190a35050565b60005b8381101561089357818101518382015260200161087b565b50506000910152565b60208152600082518060208401526108bb816040850160208701610878565b601f01601f19169190910160400192915050565b634e487b7160e01b600052604160045260246000fd5b604051601f8201601f1916810167ffffffffffffffff8111828210171561090e5761090e6108cf565b604052919050565b80356001600160a01b038116811461092d57600080fd5b919050565b8035801515811461092d57600080fd5b6000806040838503121561095557600080fd5b823567ffffffffffffffff8082111561096d57600080fd5b818501915085601f83011261098157600080fd5b8135602082821115610995576109956108cf565b8160051b92506109a68184016108e5565b82815292840181019281810190898511156109c057600080fd5b948201945b848610156109e5576109d686610916565b825294820194908201906109c5565b96506109f49050878201610932565b9450505050509250929050565b600060208284031215610a1357600080fd5b610a1c82610916565b9392505050565b60006020808385031215610a3657600080fd5b823567ffffffffffffffff80821115610a4e57600080fd5b818501915085601f830112610a6257600080fd5b813581811115610a7457610a746108cf565b610a86601f8201601f191685016108e5565b91508082528684828501011115610a9c57600080fd5b8084840185840137600090820190930192909252509392505050565b600181811c90821680610acc57607f821691505b602082108103610aec57634e487b7160e01b600052602260045260246000fd5b50919050565b634e487b7160e01b600052603260045260246000fd5b600060018201610b2857634e487b7160e01b600052601160045260246000fd5b5060010190565b60008251610b41818460208701610878565b9190910192915050565b600080835481600182811c915080831680610b6757607f831692505b60208084108203610b8657634e487b7160e01b86526022600452602486fd5b818015610b9a5760018114610baf57610bdc565b60ff1986168952841515850289019650610bdc565b60008a81526020902060005b86811015610bd45781548b820152908501908301610bbb565b505084890196505b50949897505050505050505056fea26469706673582212200010d5d8931da3e9eb66e2f5a46ccd43d74dc3a67d4e024471b03c3c58ead4e464736f6c63430008110033",
  "immutableReferences": {
    "2864": [
      {
        "length": 32,
        "start": 220
      },
      {
        "length": 32,
        "start": 651
      },
      {
        "length": 32,
        "start": 1102
      },
      {
        "length": 32,
        "start": 1416
      }
    ]
  },
  "source": "// SPDX-License-Identifier: GPL-3.0-only\n\n/*\n  This file is part of The Colony Network.\n\n  The Colony Network is free software: you can redistribute it and/or modify\n  it under the terms of the GNU General Public License as published by\n  the Free Software Foundation, either version 3 of the License, or\n  (at your option) any later version.\n\n  The Colony Network is distributed in the hope that it will be useful,\n  but WITHOUT ANY WARRANTY; without even the implied warranty of\n  MERCHANTABILITY or FITNESS FOR A PARTICULAR PURPOSE.  See the\n  GNU General Public License for more details.\n\n  You should have received a copy of the GNU General Public License\n  along with The Colony Network. If not, see <http://www.gnu.org/licenses/>.\n*/\n\npragma solidity 0.8.17;\n\nimport \"@openzeppelin/contracts/access/Ownable.sol\";\n\n// ignore-file-swc-108\n\n\ncontract Whitelist is Ownable {\n\n  //  Events\n\n  event AdminRoleSet(address indexed _user, bool _status);\n  event UserApproved(address indexed _user, bool _status);\n  event AgreementSigned(address indexed _user);\n\n  // Immutables\n\n  bool public immutable useApprovals;\n\n  // Storage\n\n  // slither-disable-next-line immutable-states\n  string public agreementHash;\n  mapping (address => bool) public admins;\n  mapping (address => bool) public approvals;\n  mapping (address => bool) public signatures;\n\n  // Constructor\n\n  constructor(address _owner, bool _useApprovals, string memory _agreementHash) {\n    require(_useApprovals || bytes(_agreementHash).length > 0, \"whitelist-bad-init\");\n\n    useApprovals = _useApprovals;\n    agreementHash = _agreementHash;\n\n    transferOwnership(_owner);\n  }\n\n  // Public\n\n  /// @notice Sets user admin roles in the whitelist\n  /// @param _users An array of user addresses\n  /// @param _status The admin status to set\n  function setAdminRole(address[] memory _users, bool _status) external onlyOwner {\n    require(useApprovals, \"whitelist-no-approvals\");\n\n    for (uint256 i; i < _users.length; i++) {\n      admins[_users[i]] = _status;\n\n      emit AdminRoleSet(_users[i], _status);\n    }\n  }\n\n  /// @notice Sets user statuses in the whitelist, can only be called by admin or owner\n  /// @param _users An array of user addresses\n  /// @param _status The whitelist status to set\n  function approveUsers(address[] memory _users, bool _status) external {\n    require(useApprovals, \"whitelist-no-approvals\");\n    require(admins[msg.sender] || owner() == msg.sender, \"whitelist-not-admin\");\n\n    for (uint256 i; i < _users.length; i++) {\n      approvals[_users[i]] = _status;\n\n      emit UserApproved(_users[i], _status);\n    }\n  }\n\n  /// @notice The user's signature on the agreement\n  /// @param _agreementHash The agreement hash being signed\n  function signAgreement(string memory _agreementHash) external {\n    require(bytes(agreementHash).length > 0, \"whitelist-no-agreement\");\n    require(\n      keccak256(abi.encodePacked(agreementHash)) ==\n      keccak256(abi.encodePacked(_agreementHash)),\n      \"whitelist-bad-signature\"\n    );\n\n    signatures[msg.sender] = true;\n\n    emit AgreementSigned(msg.sender);\n  }\n\n  /// @notice Get the user's overall whitelist status\n  /// @param _user The address of the user\n  function isApproved(address _user) external view returns (bool) {\n    return (\n      (!useApprovals || approvals[_user]) &&\n      (bytes(agreementHash).length == 0 || signatures[_user])\n    );\n  }\n}\n",
  "sourcePath": "/home/thomassdk/code/colony/coinMachine/main/contracts/contracts/Whitelist.sol",
  "compiler": {
    "name": "solc",
    "version": "0.8.17+commit.8df45f5f.Emscripten.clang"
  },
  "schemaVersion": "3.4.10",
  "updatedAt": "2023-01-30T13:33:11.422Z",
  "devdoc": {
    "kind": "dev",
    "methods": {
      "approveUsers(address[],bool)": {
        "params": {
          "_status": "The whitelist status to set",
          "_users": "An array of user addresses"
        }
      },
      "isApproved(address)": {
        "params": {
          "_user": "The address of the user"
        }
      },
      "owner()": {
        "details": "Returns the address of the current owner."
      },
      "renounceOwnership()": {
        "details": "Leaves the contract without owner. It will not be possible to call `onlyOwner` functions anymore. Can only be called by the current owner. NOTE: Renouncing ownership will leave the contract without an owner, thereby removing any functionality that is only available to the owner."
      },
      "setAdminRole(address[],bool)": {
        "params": {
          "_status": "The admin status to set",
          "_users": "An array of user addresses"
        }
      },
      "signAgreement(string)": {
        "params": {
          "_agreementHash": "The agreement hash being signed"
        }
      },
      "transferOwnership(address)": {
        "details": "Transfers ownership of the contract to a new account (`newOwner`). Can only be called by the current owner."
      }
    },
    "version": 1
  },
  "userdoc": {
    "kind": "user",
    "methods": {
      "approveUsers(address[],bool)": {
        "notice": "Sets user statuses in the whitelist, can only be called by admin or owner"
      },
      "isApproved(address)": {
        "notice": "Get the user's overall whitelist status"
      },
      "setAdminRole(address[],bool)": {
        "notice": "Sets user admin roles in the whitelist"
      },
      "signAgreement(string)": {
        "notice": "The user's signature on the agreement"
      }
    },
    "version": 1
  }
}