{
  "contractName": "Whitelist",
  "abi": [
    {
      "anonymous": false,
      "inputs": [
        {
          "indexed": true,
          "internalType": "address",
          "name": "_user",
          "type": "address"
        }
      ],
      "name": "AgreementSigned",
      "type": "event"
    },
    {
      "anonymous": false,
      "inputs": [
        {
          "indexed": true,
          "internalType": "address",
          "name": "authority",
          "type": "address"
        }
      ],
      "name": "LogSetAuthority",
      "type": "event"
    },
    {
      "anonymous": false,
      "inputs": [
        {
          "indexed": true,
          "internalType": "address",
          "name": "owner",
          "type": "address"
        }
      ],
      "name": "LogSetOwner",
      "type": "event"
    },
    {
      "anonymous": false,
      "inputs": [
        {
          "indexed": true,
          "internalType": "address",
          "name": "_user",
          "type": "address"
        },
        {
          "indexed": false,
          "internalType": "bool",
          "name": "_status",
          "type": "bool"
        }
      ],
      "name": "UserApproved",
      "type": "event"
    },
    {
      "anonymous": false,
      "inputs": [
        {
          "indexed": false,
          "internalType": "bool",
          "name": "_approvals",
          "type": "bool"
        },
        {
          "indexed": false,
          "internalType": "string",
          "name": "_agreementHash",
          "type": "string"
        }
      ],
      "name": "WhitelistInitialised",
      "type": "event"
    },
    {
      "inputs": [],
      "name": "agreementHash",
      "outputs": [
        {
          "internalType": "string",
          "name": "",
          "type": "string"
        }
      ],
      "stateMutability": "view",
      "type": "function"
    },
    {
      "inputs": [],
      "name": "authority",
      "outputs": [
        {
          "internalType": "contract DSAuthority",
          "name": "",
          "type": "address"
        }
      ],
      "stateMutability": "view",
      "type": "function"
    },
    {
      "inputs": [],
      "name": "owner",
      "outputs": [
        {
          "internalType": "address",
          "name": "",
          "type": "address"
        }
      ],
      "stateMutability": "view",
      "type": "function"
    },
    {
      "inputs": [
        {
          "internalType": "contract DSAuthority",
          "name": "authority_",
          "type": "address"
        }
      ],
      "name": "setAuthority",
      "outputs": [],
      "stateMutability": "nonpayable",
      "type": "function"
    },
    {
      "inputs": [
        {
          "internalType": "address",
          "name": "owner_",
          "type": "address"
        }
      ],
      "name": "setOwner",
      "outputs": [],
      "stateMutability": "nonpayable",
      "type": "function"
    },
    {
      "inputs": [],
      "name": "useApprovals",
      "outputs": [
        {
          "internalType": "bool",
          "name": "",
          "type": "bool"
        }
      ],
      "stateMutability": "view",
      "type": "function"
    },
    {
      "inputs": [
        {
          "internalType": "bool",
          "name": "_useApprovals",
          "type": "bool"
        },
        {
          "internalType": "string",
          "name": "_agreementHash",
          "type": "string"
        }
      ],
      "name": "initialise",
      "outputs": [],
      "stateMutability": "nonpayable",
      "type": "function"
    },
    {
      "inputs": [
        {
          "internalType": "address[]",
          "name": "_users",
          "type": "address[]"
        },
        {
          "internalType": "bool",
          "name": "_status",
          "type": "bool"
        }
      ],
      "name": "approveUsers",
      "outputs": [],
      "stateMutability": "nonpayable",
      "type": "function"
    },
    {
      "inputs": [
        {
          "internalType": "string",
          "name": "_agreementHash",
          "type": "string"
        }
      ],
      "name": "signAgreement",
      "outputs": [],
      "stateMutability": "nonpayable",
      "type": "function"
    },
    {
      "inputs": [
        {
          "internalType": "address",
          "name": "_user",
          "type": "address"
        }
      ],
      "name": "isApproved",
      "outputs": [
        {
          "internalType": "bool",
          "name": "",
          "type": "bool"
        }
      ],
      "stateMutability": "view",
      "type": "function"
    },
    {
      "inputs": [
        {
          "internalType": "address",
          "name": "_user",
          "type": "address"
        }
      ],
      "name": "getApproval",
      "outputs": [
        {
          "internalType": "bool",
          "name": "",
          "type": "bool"
        }
      ],
      "stateMutability": "view",
      "type": "function"
    },
    {
      "inputs": [
        {
          "internalType": "address",
          "name": "_user",
          "type": "address"
        }
      ],
      "name": "getSignature",
      "outputs": [
        {
          "internalType": "bool",
          "name": "",
          "type": "bool"
        }
      ],
      "stateMutability": "view",
      "type": "function"
    }
  ],
  "bytecode": "0x608060405234801561001057600080fd5b50600180546001600160a01b031916339081179091556040517fce241d7ca1f669fee44b6fc00b8eba2df3bb514eed0f6f668f8f89096e81ed9490600090a2610ebf8061005e6000396000f3fe608060405234801561001057600080fd5b50600436106100b45760003560e01c80637a9e5e4b116100715780637a9e5e4b146101625780638da5cb5b14610175578063a11c1d51146101a0578063a3087860146101b3578063bf7e214f146101c6578063da076a87146101d957600080fd5b80630ab55d0b146100b957806313af4035146100d75780631ad044cb146100ec5780631bbfb00914610110578063277fc0e914610123578063673448dd1461014f575b600080fd5b6100c1610205565b6040516100ce9190610a7c565b60405180910390f35b6100ea6100e5366004610aae565b610293565b005b60015461010090600160a01b900460ff1681565b60405190151581526020016100ce565b6100ea61011e366004610b2b565b61033b565b610100610131366004610aae565b6001600160a01b031660009081526004602052604090205460ff1690565b61010061015d366004610aae565b6104a6565b6100ea610170366004610aae565b61055e565b600154610188906001600160a01b031681565b6040516001600160a01b0390911681526020016100ce565b6100ea6101ae366004610c5f565b6105ff565b6100ea6101c1366004610c9c565b610777565b600054610188906001600160a01b031681565b6101006101e7366004610aae565b6001600160a01b031660009081526003602052604090205460ff1690565b6002805461021290610cec565b80601f016020809104026020016040519081016040528092919081815260200182805461023e90610cec565b801561028b5780601f106102605761010080835404028352916020019161028b565b820191906000526020600020905b81548152906001019060200180831161026e57829003601f168201915b505050505081565b6102a9336000356001600160e01b0319166108aa565b6102f15760405162461bcd60e51b8152602060048201526014602482015273191ccb585d5d1a0b5d5b985d5d1a1bdc9a5e995960621b60448201526064015b60405180910390fd5b600180546001600160a01b0319166001600160a01b0383169081179091556040517fce241d7ca1f669fee44b6fc00b8eba2df3bb514eed0f6f668f8f89096e81ed9490600090a250565b600154600160a01b900460ff1680610361575060006002805461035d90610cec565b9050115b61037d5760405162461bcd60e51b81526004016102e890610d26565b600154600160a01b900460ff166103cf5760405162461bcd60e51b815260206004820152601660248201527577686974656c6973742d6e6f2d617070726f76616c7360501b60448201526064016102e8565b60005b82518110156104a15781600360008584815181106103f2576103f2610d5d565b60200260200101516001600160a01b03166001600160a01b0316815260200190815260200160002060006101000a81548160ff02191690831515021790555082818151811061044357610443610d5d565b60200260200101516001600160a01b03167f60dc44a8ff6f8c563265a9654c756ef7d51cb49658531b2c735ef754c74e8a3483604051610487911515815260200190565b60405180910390a28061049981610d73565b9150506103d2565b505050565b600154600090600160a01b900460ff16806104cf57506000600280546104cb90610cec565b9050115b6104eb5760405162461bcd60e51b81526004016102e890610d26565b600154600160a01b900460ff16158061051c57506001600160a01b03821660009081526003602052604090205460ff165b801561055657506002805461053090610cec565b1590508061055657506001600160a01b03821660009081526004602052604090205460ff165b90505b919050565b610574336000356001600160e01b0319166108aa565b6105b75760405162461bcd60e51b8152602060048201526014602482015273191ccb585d5d1a0b5d5b985d5d1a1bdc9a5e995960621b60448201526064016102e8565b600080546001600160a01b0319166001600160a01b038316908117825560405190917f1abebea81bfa2637f28358c371278fb15ede7ea8dd28d2e03b112ff6d936ada491a250565b600154600160a01b900460ff1680610625575060006002805461062190610cec565b9050115b6106415760405162461bcd60e51b81526004016102e890610d26565b60006002805461065090610cec565b9050116106985760405162461bcd60e51b81526020600482015260166024820152751dda1a5d195b1a5cdd0b5b9bcb5859dc99595b595b9d60521b60448201526064016102e8565b806040516020016106a99190610d9a565b6040516020818303038152906040528051906020012060026040516020016106d19190610db6565b60405160208183030381529060405280519060200120146107345760405162461bcd60e51b815260206004820152601760248201527f77686974656c6973742d6261642d7369676e617475726500000000000000000060448201526064016102e8565b33600081815260046020526040808220805460ff19166001179055517f5cca47fc45be2c2c68100afd7cd2431116c0c535c159e4f6c7e63934cf9f7aad9190a250565b600154600160a01b900460ff1615801561079d57506002805461079990610cec565b1590505b6107e95760405162461bcd60e51b815260206004820152601d60248201527f77686974656c6973742d616c72656164792d696e697469616c6973656400000060448201526064016102e8565b81806107f6575060008151115b6108425760405162461bcd60e51b815260206004820152601c60248201527f77686974656c6973742d6261642d696e697469616c69736174696f6e0000000060448201526064016102e8565b6001805460ff60a01b1916600160a01b84151502179055805161086c906002906020840190610987565b507f408642aecc5365a31834392dc28a804b59d142d525d5c2fadbca335e00324da7828260405161089e929190610e51565b60405180910390a15050565b6000306001600160a01b038416036108c457506001610981565b6001546001600160a01b03908116908416036108e257506001610981565b6000546001600160a01b03166108fa57506000610981565b60005460405163b700961360e01b81526001600160a01b0385811660048301523060248301526001600160e01b0319851660448301529091169063b700961390606401602060405180830381865afa15801561095a573d6000803e3d6000fd5b505050506040513d601f19601f8201168201806040525081019061097e9190610e6c565b90505b92915050565b82805461099390610cec565b90600052602060002090601f0160209004810192826109b557600085556109fb565b82601f106109ce57805160ff19168380011785556109fb565b828001600101855582156109fb579182015b828111156109fb5782518255916020019190600101906109e0565b50610a07929150610a0b565b5090565b5b80821115610a075760008155600101610a0c565b60005b83811015610a3b578181015183820152602001610a23565b83811115610a4a576000848401525b50505050565b60008151808452610a68816020860160208601610a20565b601f01601f19169290920160200192915050565b602081526000610a8f6020830184610a50565b9392505050565b6001600160a01b0381168114610aab57600080fd5b50565b600060208284031215610ac057600080fd5b8135610a8f81610a96565b634e487b7160e01b600052604160045260246000fd5b604051601f8201601f1916810167ffffffffffffffff81118282101715610b0a57610b0a610acb565b604052919050565b8015158114610aab57600080fd5b803561055981610b12565b60008060408385031215610b3e57600080fd5b823567ffffffffffffffff80821115610b5657600080fd5b818501915085601f830112610b6a57600080fd5b8135602082821115610b7e57610b7e610acb565b8160051b9250610b8f818401610ae1565b8281529284018101928181019089851115610ba957600080fd5b948201945b84861015610bd35785359350610bc384610a96565b8382529482019490820190610bae565b9650610be29050878201610b20565b9450505050509250929050565b600082601f830112610c0057600080fd5b813567ffffffffffffffff811115610c1a57610c1a610acb565b610c2d601f8201601f1916602001610ae1565b818152846020838601011115610c4257600080fd5b816020850160208301376000918101602001919091529392505050565b600060208284031215610c7157600080fd5b813567ffffffffffffffff811115610c8857600080fd5b610c9484828501610bef565b949350505050565b60008060408385031215610caf57600080fd5b8235610cba81610b12565b9150602083013567ffffffffffffffff811115610cd657600080fd5b610ce285828601610bef565b9150509250929050565b600181811c90821680610d0057607f821691505b602082108103610d2057634e487b7160e01b600052602260045260246000fd5b50919050565b60208082526019908201527f77686974656c6973742d6e6f742d696e697469616c6973656400000000000000604082015260600190565b634e487b7160e01b600052603260045260246000fd5b600060018201610d9357634e487b7160e01b600052601160045260246000fd5b5060010190565b60008251610dac818460208701610a20565b9190910192915050565b600080835481600182811c915080831680610dd257607f831692505b60208084108203610df157634e487b7160e01b86526022600452602486fd5b818015610e055760018114610e1657610e43565b60ff19861689528489019650610e43565b60008a81526020902060005b86811015610e3b5781548b820152908501908301610e22565b505084890196505b509498975050505050505050565b8215158152604060208201526000610c946040830184610a50565b600060208284031215610e7e57600080fd5b8151610a8f81610b1256fea2646970667358221220710fc41cca449635963f7bb9ef9ba84bc1a01c4a2d4e3138400c4db395777e0664736f6c634300080d0033",
  "immutableReferences": {},
  "source": "/*\n  This file is part of The Colony Network.\n\n  The Colony Network is free software: you can redistribute it and/or modify\n  it under the terms of the GNU General Public License as published by\n  the Free Software Foundation, either version 3 of the License, or\n  (at your option) any later version.\n\n  The Colony Network is distributed in the hope that it will be useful,\n  but WITHOUT ANY WARRANTY; without even the implied warranty of\n  MERCHANTABILITY or FITNESS FOR A PARTICULAR PURPOSE.  See the\n  GNU General Public License for more details.\n\n  You should have received a copy of the GNU General Public License\n  along with The Colony Network. If not, see <http://www.gnu.org/licenses/>.\n*/\n\npragma solidity 0.8.13;\n\nimport \"./../lib/dappsys/auth.sol\";\n\n// ignore-file-swc-108\n\n\ncontract Whitelist is DSAuth {\n\n  //  Events\n\n  event UserApproved(address indexed _user, bool _status);\n  event AgreementSigned(address indexed _user);\n  event WhitelistInitialised(bool _approvals, string _agreementHash);\n\n  // Storage\n\n  bool public useApprovals;\n  string public agreementHash;\n\n  mapping (address => bool) approvals;\n  mapping (address => bool) signatures;\n\n  // Modifiers\n\n  modifier initialised() {\n    require(useApprovals || bytes(agreementHash).length > 0, \"whitelist-not-initialised\");\n    _;\n  }\n\n  // Public\n\n  /// @notice Initialise the extension\n  /// @param _useApprovals Whether or not to require administrative approval\n  /// @param _agreementHash An agreement hash (such as an IPFS URI)\n  function initialise(bool _useApprovals, string memory _agreementHash) public {\n    require(!useApprovals && bytes(agreementHash).length == 0, \"whitelist-already-initialised\");\n    require(_useApprovals || bytes(_agreementHash).length > 0, \"whitelist-bad-initialisation\");\n\n    useApprovals = _useApprovals;\n    agreementHash = _agreementHash;\n\n    emit WhitelistInitialised(_useApprovals, _agreementHash);\n  }\n\n  /// @notice Sets user statuses in the whitelist\n  /// @param _users An array of user addresses\n  /// @param _status The whitelist status to set\n  function approveUsers(address[] memory _users, bool _status) public initialised {\n    require(useApprovals, \"whitelist-no-approvals\");\n\n    for (uint256 i; i < _users.length; i++) {\n      approvals[_users[i]] = _status;\n\n      emit UserApproved(_users[i], _status);\n    }\n  }\n\n  /// @notice The user's signature on the agreement\n  /// @param _agreementHash The agreement hash being signed\n  function signAgreement(string memory _agreementHash) public initialised {\n    require(bytes(agreementHash).length > 0, \"whitelist-no-agreement\");\n    require(\n      keccak256(abi.encodePacked(agreementHash)) ==\n      keccak256(abi.encodePacked(_agreementHash)),\n      \"whitelist-bad-signature\"\n    );\n\n    signatures[msg.sender] = true;\n\n    emit AgreementSigned(msg.sender);\n  }\n\n  /// @notice Get the user's overall whitelist status\n  /// @param _user The address of the user\n  function isApproved(address _user) public initialised view returns (bool) {\n    return (\n      (!useApprovals || approvals[_user]) &&\n      (bytes(agreementHash).length == 0 || signatures[_user])\n    );\n  }\n\n  /// @notice Get the user's approval status\n  /// @param _user The address of the user\n  function getApproval(address _user) public view returns (bool) {\n    return approvals[_user];\n  }\n\n  /// @notice Get the user's signature status\n  /// @param _user The address of the user\n  function getSignature(address _user) public view returns (bool) {\n    return signatures[_user];\n  }\n}\n",
  "sourcePath": "/Users/alicjakujawa/coinMachine/contracts/contracts/Whitelist.sol",
  "compiler": {
    "name": "solc",
    "version": "0.8.13+commit.abaa5c0e.Emscripten.clang"
  },
  "schemaVersion": "3.4.10",
  "updatedAt": "2022-10-21T09:16:43.654Z",
  "devdoc": {
    "kind": "dev",
    "methods": {
      "approveUsers(address[],bool)": {
        "params": {
          "_status": "The whitelist status to set",
          "_users": "An array of user addresses"
        }
      },
      "getApproval(address)": {
        "params": {
          "_user": "The address of the user"
        }
      },
      "getSignature(address)": {
        "params": {
          "_user": "The address of the user"
        }
      },
      "initialise(bool,string)": {
        "params": {
          "_agreementHash": "An agreement hash (such as an IPFS URI)",
          "_useApprovals": "Whether or not to require administrative approval"
        }
      },
      "isApproved(address)": {
        "params": {
          "_user": "The address of the user"
        }
      },
      "signAgreement(string)": {
        "params": {
          "_agreementHash": "The agreement hash being signed"
        }
      }
    },
    "version": 1
  },
  "userdoc": {
    "kind": "user",
    "methods": {
      "approveUsers(address[],bool)": {
        "notice": "Sets user statuses in the whitelist"
      },
      "getApproval(address)": {
        "notice": "Get the user's approval status"
      },
      "getSignature(address)": {
        "notice": "Get the user's signature status"
      },
      "initialise(bool,string)": {
        "notice": "Initialise the extension"
      },
      "isApproved(address)": {
        "notice": "Get the user's overall whitelist status"
      },
      "signAgreement(string)": {
        "notice": "The user's signature on the agreement"
      }
    },
    "version": 1
  }
}